:020000040800F2
:1000000000000220B5260008851E0008871E000893
:10001000891E00088B1E00088D1E000800000000CD
:10002000000000000000000000000000B14A0008CD
:100030008F1E000800000000514B0008911E0008B0
:1000400005270008052700080527000805270008E0
:1000500005270008052700080527000805270008D0
:1000600005270008052700080527000805270008C0
:10007000A91E000805270008052700080527000815
:10008000B91E0008052700080527000805270008F5
:10009000C91E0008052700080527000805270008D5
:1000A0000527000805270008052700080527000880
:1000B0000527000805270008052700080527000870
:1000C0000527000805270008052700080527000860
:1000D00005270008D91E0008E91E00080D200008A9
:1000E0000527000805270008052700080527000840
:1000F0000527000805270008052700080527000830
:10010000052700080527000805270008052700081F
:10011000052700080527000805270008052700080F
:1001200005270008312100080527000805270008D9
:100130000527000800000000000000000527000857
:1001400041210008052700080527000805270008A9
:100150000527000805270008512100086121000833
:1001600005270008052700080527000805270008BF
:100170000527000805270008000000000000000017
:0801800005270008052700080F
:1001C00010B5054C237833B9044B13B10448AFF391
:1001D00000800123237010BDC00900200000000032
:1001E0008CBE000808B5034B1BB103490348AFF3AD
:1001F000008008BD00000000C40900208CBE00087B
:1002000081F0004102E000BF83F0004330B54FEAC7
:1002100041044FEA430594EA050F08BF90EA020F34
:100220001FBF54EA000C55EA020C7FEA645C7FEAC7
:10023000655C00F0E2804FEA5454D4EB5555B8BFEA
:100240006D420CDD2C4480EA020281EA030382EA5B
:10025000000083EA010180EA020281EA0303362DED
:1002600088BF30BD11F0004F4FEA01314FF4801CC0
:100270004CEA113102D0404261EB410113F0004FD2
:100280004FEA03334CEA133302D0524263EB430389
:1002900094EA050F00F0A780A4F10104D5F1200E27
:1002A0000DDB02FA0EFC22FA05F2801841F1000182
:1002B00003FA0EF2801843FA05F359410EE0A5F156
:1002C00020050EF1200E012A03FA0EFC28BF4CF087
:1002D000020C43FA05F3C01851EBE37101F000453D
:1002E00007D54FF0000EDCF1000C7EEB00006EEB4A
:1002F0000101B1F5801F1BD3B1F5001F0CD34908D4
:100300005FEA30004FEA3C0C04F101044FEA44522A
:1003100012F5800F80F09A80BCF1004F08BF5FEAB1
:10032000500C50F1000041EB045141EA050130BD91
:100330005FEA4C0C404141EB0101013C28BFB1F5A3
:10034000801FE9D291F0000F04BF01460020B1FAEE
:1003500081F308BF2033A3F10B03B3F120020CDAC1
:100360000C3208DD02F1140CC2F10C0201FA0CF09F
:1003700021FA02F10CE002F11402D8BFC2F1200C04
:1003800001FA02F120FA0CFCDCBF41EA0C019040BA
:10039000E41AA2BF01EB0451294330BD6FEA040403
:1003A0001F3C1CDA0C340EDC04F11404C4F12002EE
:1003B00020FA04F001FA02F340EA030021FA04F300
:1003C00045EA030130BDC4F10C04C4F1200220FA57
:1003D00002F001FA04F340EA0300294630BD21FA95
:1003E00004F0294630BD94F0000F83F4801306BF5B
:1003F00081F480110134013D4EE77FEA645C18BF4F
:100400007FEA655C29D094EA050F08BF90EA020FE5
:1004100005D054EA000C04BF1946104630BD91EADD
:10042000030F1EBF0021002030BD5FEA545C05D1E0
:100430004000494128BF41F0004130BD14F580041F
:100440003CBF01F5801130BD01F0004545F0FE4193
:1004500041F470014FF0000030BD7FEA645C1ABFC8
:10046000194610467FEA655C1CBF0B46024650EAFF
:10047000013406BF52EA033591EA030F41F400212B
:1004800030BD00BF90F0000F04BF0021704730B5B1
:100490004FF4806404F132044FF000054FF0000186
:1004A00050E700BF90F0000F04BF0021704730B547
:1004B0004FF4806404F1320410F0004548BF40421C
:1004C0004FF000013EE700BF42004FEAE2014FEA71
:1004D00031014FEA02701FBF12F07F4393F07F4F4C
:1004E00081F06051704732F07F4208BF704793F04F
:1004F0007F4F04BF41F40021704730B54FF4607462
:1005000001F0004521F000411CE700BF50EA010264
:1005100008BF704730B54FF000050AE050EA01020D
:1005200008BF704730B511F0004502D5404261EB7D
:1005300041014FF4806404F132045FEA915C3FF4BE
:10054000D8AE4FF003025FEADC0C18BF03325FEA5B
:10055000DC0C18BF033202EBDC02C2F1200300FA0C
:1005600003FC20FA02F001FA03FE40EA0E0021FA31
:1005700002F11444BDE600BF53B94AB9002908BFCF
:1005800000281CBF4FF0FF314FF0FF3000F074B96E
:10059000ADF1080C6DE904CE00F006F8DDF804E0DA
:1005A000DDE9022304B070472DE9F047089D0446B9
:1005B0008E46002B4DD18A42944669D9B2FA82F216
:1005C00052B101FA02F3C2F1200120FA01F10CFA52
:1005D00002FC41EA030E94404FEA1C48210CBEFB8A
:1005E000F8F61FFA8CF708FB16E341EA034306FB13
:1005F00007F199420AD91CEB030306F1FF3080F0A2
:100600001F81994240F21C81023E63445B1AA4B2EE
:10061000B3FBF8F008FB103344EA034400FB07F790
:10062000A7420AD91CEB040400F1FF3380F00A81D1
:10063000A74240F207816444023840EA0640E41BC6
:1006400000261DB1D4400023C5E900433146BDE872
:10065000F0878B4209D9002D00F0EF800026C5E914
:10066000000130463146BDE8F087B3FA83F6002E2C
:100670004AD18B4202D3824200F2F980841A61EBA4
:10068000030301209E46002DE0D0C5E9004EDDE7C2
:1006900002B9FFDEB2FA82F2002A40F09280A1EBAA
:1006A0000C014FEA1C471FFA8CFE0126200CB1FBFF
:1006B000F7F307FB131140EA01410EFB03F08842F8
:1006C00008D91CEB010103F1FF3802D2884200F285
:1006D000CB804346091AA4B2B1FBF7F007FB101117
:1006E00044EA01440EFB00FEA64508D91CEB0404B5
:1006F00000F1FF3102D2A64500F2BB800846A4EB10
:100700000E0440EA03409CE7C6F12007B34022FAFA
:1007100007FC4CEA030C20FA07F401FA06F31C4329
:10072000F9404FEA1C4900FA06F3B1FBF9F8200C36
:100730001FFA8CFE09FB181140EA014108FB0EF07C
:10074000884202FA06F20BD91CEB010108F1FF3ACC
:1007500080F08880884240F28580A8F102086144D8
:10076000091AA4B2B1FBF9F009FB101144EA0141E6
:1007700000FB0EFE8E4508D91CEB010100F1FF3491
:100780006CD28E456AD90238614440EA0840A0FB29
:100790000294A1EB0E01A142C846A64656D353D0FF
:1007A0005DB1B3EB080261EB0E0101FA07F722FA23
:1007B00006F3F1401F43C5E9007100263146BDE84C
:1007C000F087C2F12003D8400CFA02FC21FA03F3AF
:1007D000914001434FEA1C471FFA8CFEB3FBF7F030
:1007E00007FB10360B0C43EA064300FB0EF69E4255
:1007F00004FA02F408D91CEB030300F1FF382FD2EE
:100800009E422DD9023863449B1B89B2B3FBF7F695
:1008100007FB163341EA034106FB0EF38B4208D96E
:100820001CEB010106F1FF3816D28B4214D9023EAF
:100830006144C91A46EA004638E72E46284605E7CD
:100840000646E3E61846F8E64B45A9D2B9EB02089E
:1008500064EB0C0E0138A3E74646EAE7204694E72E
:100860004046D1E7D0467BE7023B614432E7304661
:1008700009E76444023842E7704700BF844641EA12
:10088000000313F003036DD1403A41D351F8043B08
:1008900040F8043B51F8043B40F8043B51F8043B5A
:1008A00040F8043B51F8043B40F8043B51F8043B4A
:1008B00040F8043B51F8043B40F8043B51F8043B3A
:1008C00040F8043B51F8043B40F8043B51F8043B2A
:1008D00040F8043B51F8043B40F8043B51F8043B1A
:1008E00040F8043B51F8043B40F8043B51F8043B0A
:1008F00040F8043B51F8043B40F8043B51F8043BFA
:1009000040F8043B51F8043B40F8043B403ABDD268
:10091000303211D351F8043B40F8043B51F8043B0A
:1009200040F8043B51F8043B40F8043B51F8043BC9
:1009300040F8043B103AEDD20C3205D351F8043B99
:1009400040F8043B043AF9D2043208D0D2071CBF65
:1009500011F8013B00F8013B01D30B88038060468E
:10096000704700BF082A13D38B078DD010F0030304
:100970008AD0C3F10403D21ADB071CBF11F8013B74
:1009800000F8013B80D331F8023B20F8023B7BE7C3
:10099000043AD9D3013A11F8013B00F8013BF9D2EE
:1009A0000B7803704B7843708B7883706046704788
:1009B00001F0FF01102A2BDB10F0070F08D010F810
:1009C000013B013A8B422DD010F0070F42B3F6D114
:1009D000F0B441EA012141EA014122F007047FF02D
:1009E00000070023F0E80256083C85EA010586EA84
:1009F000010685FA47F5A3FA87F586FA47F6A5FAC0
:100A000087F68EB9EED1F0BC01F0FF0102F00702CB
:100A100032B110F8013B013A83EA010313B1F8D176
:100A20000020704701387047002D06BF3546033857
:100A3000073815F0010F07D1013015F4807F02BF90
:100A4000013015F4C03F0130F0BC0138704700BFE1
:100A50000000000000000000000000000000000096
:100A60000000000000000000000000000000000086
:100A70000000000000000000000000000000000076
:100A800090F800F06DE9024520F007016FF0000CCE
:100A900010F0070491F820F040F049804FF0000476
:100AA0006FF00700D1E9002391F840F000F1080051
:100AB00082FA4CF2A4FA8CF283FA4CF3A2FA8CF389
:100AC0004BBBD1E9022382FA4CF200F10800A4FAF0
:100AD0008CF283FA4CF3A2FA8CF3E3B9D1E9042344
:100AE00082FA4CF200F10800A4FA8CF283FA4CF37B
:100AF000A2FA8CF37BB9D1E9062301F1200182FA35
:100B00004CF200F10800A4FA8CF283FA4CF3A2FA3A
:100B10008CF3002BC6D0002A04BF04301A4612BA48
:100B2000B2FA82F2FDE8024500EBD2007047D1E94B
:100B3000002304F00305C4F100004FEAC50514F0DA
:100B4000040F91F840F00CFA05F562EA05021CBFAB
:100B500063EA050362464FF00004A9E770B54FF061
:100B6000FF0C4CF4E06C1CEA11541DBF1CEA135539
:100B700094EA0C0F95EA0C0F00F0DEF82C4481EAA1
:100B8000030621EA4C5123EA4C5350EA013518BFC1
:100B900052EA033541F4801143F4801338D0A0FBAE
:100BA00002CE4FF00005E1FB02E506F00042E0FB5B
:100BB00003E54FF00006E1FB03569CF0000F18BF61
:100BC0004EF0010EA4F1FF04B6F5007F64F5407409
:100BD00004D25FEA4E0E6D4146EB060642EAC6219C
:100BE00041EA55514FEAC52040EA5E504FEACE2E09
:100BF000B4F1FD0C88BFBCF5E06F1ED8BEF1004F0C
:100C000008BF5FEA500E50F1000041EB045170BD87
:100C100006F0004646EA010140EA020081EA0301CB
:100C2000B4EB5C04C2BFD4EB0C0541EA045170BDC7
:100C300041F480114FF0000E013C00F3AB8014F141
:100C4000360FDEBF002001F0004170BDC4F100048A
:100C5000203C35DA0C341BDC04F11404C4F120050B
:100C600000FA05F320FA04F001FA05F240EA020066
:100C700001F0004221F0004110EBD37021FA04F69C
:100C800042EB06015EEA430E08BF20EAD37070BD56
:100C9000C4F10C04C4F1200500FA04F320FA05F0B5
:100CA00001FA04F240EA020001F0004110EBD370B7
:100CB00041F100015EEA430E08BF20EAD37070BD27
:100CC000C4F1200500FA05F24EEA020E20FA04F300
:100CD00001FA05F243EA020321FA04F001F00041AF
:100CE00021FA04F220EA020000EBD3705EEA430E20
:100CF00008BF20EAD37070BD94F0000F0FD101F04F
:100D00000046400041EB010111F4801F08BF013C87
:100D1000F7D041EA060195F0000F18BF704703F0C5
:100D20000046520043EB030313F4801F08BF013D4C
:100D3000F7D043EA0603704794EA0C0F0CEA135508
:100D400018BF95EA0C0F0CD050EA410618BF52EAC2
:100D50004306D1D181EA030101F000414FF00000C8
:100D600070BD50EA410606BF1046194652EA4306D6
:100D700019D094EA0C0F02D150EA013613D195EA4A
:100D80000C0F05D152EA03361CBF104619460AD192
:100D900081EA030101F0004141F0FE4141F470019C
:100DA0004FF0000070BD41F0FE4141F4780170BD8C
:100DB00070B54FF0FF0C4CF4E06C1CEA11541DBFF1
:100DC0001CEA135594EA0C0F95EA0C0F00F0A7F8F3
:100DD000A4EB050481EA030E52EA03354FEA013120
:100DE00000F088804FEA03334FF0805545EA131333
:100DF00043EA12634FEA022245EA111545EA1065FB
:100E00004FEA00260EF000419D4208BF964244F191
:100E1000FD0404F5407402D25B084FEA3202B61AB0
:100E200065EB03055B084FEA32024FF480104FF484
:100E3000002CB6EB020E75EB030E22BFB61A7546F8
:100E400040EA0C005B084FEA3202B6EB020E75EB8B
:100E5000030E22BFB61A754640EA5C005B084FEAF3
:100E60003202B6EB020E75EB030E22BFB61A7546C0
:100E700040EA9C005B084FEA3202B6EB020E75EBCB
:100E8000030E22BFB61A754640EADC0055EA060E8C
:100E900018D04FEA051545EA16754FEA06164FEACF
:100EA000C30343EA52734FEAC2025FEA1C1CC0D17B
:100EB00011F4801F0BD141EA00014FF000004FF008
:100EC000004CB6E711F4801F04BF01430020B4F1C9
:100ED000FD0C88BFBCF5E06F3FF6AFAEB5EB030C81
:100EE00004BFB6EB020C5FEA500C50F1000041EB7E
:100EF000045170BD0EF0004E4EEA113114EB5C044B
:100F0000C2BFD4EB0C0541EA045170BD41F480111D
:100F10004FF0000E013C90E645EA060E8DE60CEA25
:100F2000135594EA0C0F08BF95EA0C0F3FF43BAF42
:100F300094EA0C0F0AD150EA01347FF434AF95EAF9
:100F40000C0F7FF425AF104619462CE795EA0C0FDD
:100F500006D152EA03353FF4FDAE1046194622E7AA
:100F600050EA410618BF52EA43067FF4C5AE50EA84
:100F700041047FF40DAF52EA43057FF4EBAE12E774
:100F80004FF0FF3C06E000BF4FF0010C02E000BF55
:100F90004FF0010C4DF804CD4FEA410C7FEA6C5C38
:100FA0004FEA430C18BF7FEA6C5C1BD001B050EADB
:100FB000410C0CBF52EA430C91EA030F02BF90EAC6
:100FC000020F0020704710F1000F91EA030F58BF85
:100FD000994208BF90422CBFD8176FEAE37040F0E7
:100FE000010070474FEA410C7FEA6C5C02D150EA85
:100FF000013C07D14FEA430C7FEA6C5CD6D152EA40
:10100000033CD3D05DF8040B704700BF8446104604
:1010100062468C461946634600E000BF01B5FFF703
:10102000B7FF002848BF10F1000F01BD4DF808EDD3
:10103000FFF7F4FF0CBF012000205DF808FB00BFA4
:101040004DF808EDFFF7EAFF34BF012000205DF8FE
:1010500008FB00BF4DF808EDFFF7E0FF94BF01204B
:1010600000205DF808FB00BF4DF808EDFFF7CEFF4C
:1010700094BF012000205DF808FB00BF4DF808ED8B
:10108000FFF7C4FF34BF012000205DF808FB00BF5C
:101090004FEA410C7FEA6C5C02D150EA013C0AD174
:1010A0004FEA430C7FEA6C5C02D152EA033C02D166
:1010B0004FF0000070474FF0010070474FEA4102C7
:1010C00012F5001215D211D56FF47873B3EB62529A
:1010D00012D94FEAC12343F0004343EA505311F0C1
:1010E000004F23FA02F018BF404270474FF0000053
:1010F000704750EA013005D111F0004008BF6FF091
:10110000004070474FF00000704700BF08B50E4820
:101110000E4B03600323436000238360C3604FF4DE
:10112000C02202614FF4A0024261037643768376C7
:10113000C3760377437701F039FB10B900F0BEF8AE
:1011400008BD00F0B3FCF9E7E009002000640040AE
:1011500008B50E480E4B03600323436000238360F1
:10116000C3604FF4C02202614FF4A00242610376D3
:1011700043768376C3760377437701F017FB10B984
:1011800000F022F908BD00F091FCF9E7080A002000
:101190000068004010B58AB00023059306930793BA
:1011A0000893099303683F4A934204D03E4A93420E
:1011B00036D00AB010BD3D4A136801331360012BCD
:1011C00021D0002401943A4B1A6B42F001021A63B9
:1011D0001B6B03F001030193019B4FF4C053059374
:1011E00002230693032308930923099305A9314891
:1011F00002F09EF922460521142001F0D9FE1420A8
:1012000001F00EFFD5E700230093294B1A6C42F042
:1012100000721A641B6C03F000730093009BD0E70C
:1012200000230293224B1A6C42F080621A641B6CFA
:1012300003F080630293029B1C4A1368013313601E
:10124000012B21D000240494194B1A6B42F00202A6
:101250001A631B6B03F002030493049B4FF4405387
:10126000059302230693032308930923099305A9F1
:10127000114802F05DF922460521402001F098FE58
:10128000402001F0CDFE94E700230393084B1A6C35
:1012900042F000721A641B6C03F000730393039B0B
:1012A000D0E700BF0064004000680040DC09002077
:1012B00000380240000002400004024000B58BB03C
:1012C0000023059306930122079244F22001009126
:1012D00001934FF6FF710291039104930E2309933A
:1012E00008926946374801F007FB002855D10123D1
:1012F000059300220692079344F240010091019267
:101300004FF6FF710291039104920E220992089305
:1013100069462C4801F0F0FA002841D102230593D8
:10132000002306930122079244F260010091019389
:101330004FF6FF710291039104930E2309930892D3
:101340006946204801F0D8FA68BB032305930023BF
:101350000693012207924FF48141009101934FF6C9
:10136000FF710291039104930E2309930892694639
:10137000144801F0C1FAC8B9124801F059FBC0B9CC
:101380000221104801F0BEFCB0B901210D4801F066
:10139000B9FCA0B90BB05DF804FB00F087FBA6E731
:1013A00000F084FBBAE700F081FBCEE700F07EFBA3
:1013B000E2E700F07BFBE3E700F078FBE5E700F015
:1013C00075FBE7E7E009002000B58BB00E21059121
:1013D0000023069301220792009301930293039343
:1013E0000493099108926946104801F085FA80B982
:1013F0000E4801F01DFB78B902210C4801F082FC77
:1014000068B90121094801F07DFC58B90BB05DF8BD
:1014100004FB00F04BFBEBE700F048FBECE700F0CF
:1014200045FBEEE700F042FBF0E700BF080A0020B2
:1014300010B58AB00446BDF930C0BDF9340004913E
:101440000021069107910821089142FA01F18DF8D7
:1014500008108DF809201A128DF80A208DF80B302B
:101460009DF931308DF80C308DF80DC09DF9353077
:101470008DF80E308DF80F00204601F085FB002816
:10148000FAD001AB02AA04A9204601F0FFFA08B97C
:101490000AB010BD00F00AFBFAE710B5836943B942
:1014A0000C784A7842EA0422428042820133836106
:1014B00010BDB0F802C0A0F814C00C784A7842EA17
:1014C000042242808C7891F803E04EEA042EA0F8C2
:1014D00004E00C7991F805E04EEA042EA0F806E04D
:1014E00089790172A2EB0C0CBCF5805F0BDBB0F9C3
:1014F000101001390182B0F9101002EB4132418A1B
:10150000521AC260D2E71CF5805FF4DCB0F910100B
:1015100001310182EFE7000030B591B03E4B9842B7
:1015200004D03E4B984221D011B030BD07AB09AA80
:10153000002101F042FB0028F6D1099BA3F2012211
:10154000072A06D9344B1A68536943F002035361E2
:10155000EAE7013BD8B2324B1870C0EBC00007A9D4
:10156000304B03EB8000FFF798FFEBE707AB09AACE
:10157000002101F022FB002831D1099BA3F20123B5
:10158000032B08D9099BA3F20123032B27D8DFE8FB
:1015900003F0052D343B00F037FCF3E70798224BAE
:1015A0001860089A214B1A60FEF78EFF04460D461C
:1015B0001F4B1868FEF788FFCDE904011D4B186822
:1015C000FEF782FFCDE902011B4B1868FEF77CFF96
:1015D000CDE9000122462B46184800F089FB0F4B4D
:1015E0001A68536943F0020353619DE7079A124B4F
:1015F0001A60089A124B1A60F1E7079A0D4B1A60AD
:10160000089A104B1A60EAE7079A094B1A60089A81
:101610000D4B1A60E3E700BF080A0020E009002034
:10162000300A0020340A0020A80F0020980F002064
:10163000A40F0020B00F0020AC0F002000BF000856
:101640009C0F0020A00F0020940F002010B582B046
:10165000002400941A4B1A6B42F480021A631A6B2E
:1016600002F480020092009A01941A6B42F4001274
:101670001A631B6B03F400130193019B224605219F
:101680000C2001F095FC0C2001F0CAFC224605213B
:10169000102001F08DFC102001F0C2FC2246052133
:1016A000392001F085FC392001F0BAFC22460521E1
:1016B000462001F07DFC462001F0B2FC02B010BDD6
:1016C0000038024000B5FF2294460AE010F8013BC2
:1016D0005340084AD25C82EA0C02074911F803C061
:1016E000714601F1FF3E0029F0D14CEA02205DF87D
:1016F00004FB00BF18BF000818C0000808B5084B5D
:10170000186803F041FF074B186803F03DFF064BD4
:10171000186804F03DF9642003F021F9FBE700BFED
:10172000740B0020800B00207C0B002008B50520E6
:1017300003F015F9FBE70000F0B52DED048B83B045
:101740009FED658ADFED659A9FED659AB0EE482AB8
:10175000F0EE691AB0EE481AF0EE490AB0EE080A47
:10176000604800F017FADFED608AB0EE482AF0EE2C
:10177000481AB0EE481AF0EE480AB0EE680A5B4824
:1017800000F008FAB0EE482AF0EE691AB0EE481AF6
:10179000F0EE490AB0EE080A554800F0FBF9B0EE49
:1017A000482AF0EE481AB0EE481AF0EE480AB0EEB9
:1017B000680A504800F0EEF9B0EE482AF0EE691AD7
:1017C000B0EE481AF0EE490AB0EE080A4A4800F0B6
:1017D000E1F9B0EE482AF0EE481AB0EE481AF0EE01
:1017E000480AB0EE680A454800F0D4F9B0EE482A3D
:1017F000F0EE691AB0EE481AF0EE490AB0EE080AA7
:101800003F4800F0C7F9B0EE482AF0EE481AB0EEB3
:10181000481AF0EE480AB0EE680A3A4800F0BAF901
:10182000394FB7F9043000EE903A9FED388AB0EEA8
:10183000481AF8EEE00A364B93ED000A294800F00A
:10184000C0F9BDEEC00A10EE103A1CB2B7F9203054
:1018500000EE903AB0EE481AF8EEE00A2D4B93ED08
:10186000000A234800F0ADF9BDEEC00A10EE103AB0
:101870001DB2B7F93C3000EE903AB0EE481AF8EEDF
:10188000E00A254B93ED000A1B4800F09AF9BDEEE3
:10189000C00A10EE103A1EB2B7F9583000EE903A76
:1018A000B0EE481AF8EEE00A1C4B93ED000A14481B
:1018B00000F087F9BDEEC00A10EE103A1BB201939A
:1018C00000962B4622464FF400711548FFF7B0FDF5
:1018D000052003F044F8A3E7000000000060EA469A
:1018E0008FC2F53CD00C002000009643D00B0020A6
:1018F000100D0020100C0020500D0020500C002076
:10190000900C0020900B0020340A00200000FA44C4
:10191000A80F0020AC0F0020B00F0020A40F002063
:10192000080A002008B506E0074B186804F030F8F4
:101930000A2003F014F800F075FA0028F4D0024BE6
:10194000186803F021FEF3E7800B002070B59AB011
:10195000364C18AB94E8030083E8030000211846D6
:1019600003F004F8324B186016AB94E8030083E8E8
:1019700003000021184602F0F9FF2E4B186014AB4B
:1019800094E8030083E803000021184602F0EEFF0C
:10199000294B18600DF13C0C04F1080EBEE80F0055
:1019A000ACE80F00DEF80030CCF8003000210FA8C2
:1019B00002F0BBFF214B18600DF1280C04F11C0E46
:1019C000BEE80F00ACE80F00DEF80030CCF80030C5
:1019D00000210AA802F0A9FF194D28600DF1140C8E
:1019E00004F1300EBEE80F00ACE80F00DEF8003066
:1019F000CCF80030002105A802F097FF114E3060AE
:101A0000EC4644340FCCACE80F002368CCF800302F
:101A10000021684602F089FF0B4B1860306803F024
:101A2000B7FF286803F0B4FF1AB070BDA8BE000865
:101A3000840B0020880B00208C0B0020780B0020EA
:101A4000740B0020800B00207C0B002084B000224F
:101A50000092154B196B41F080011963196B01F06D
:101A60008001009100990192196B41F00101196305
:101A7000196B01F00101019101990292196B41F07A
:101A800002011963196B01F002010291029903929C
:101A90001A6B42F004021A631B6B03F004030393F6
:101AA000039B04B0704700BF0038024072B6FEE7E7
:101AB00000B595B03022002108A804F0B7F8002343
:101AC0000393049305930693079301931F4A116CA4
:101AD00041F080511164126C02F080520192019A1F
:101AE00002931B4A116841F480411160126802F4AC
:101AF00080420292029A0222089201210B91102147
:101B00000C910E920F9308231093A8231193129215
:101B10000423139308A801F0FDFD98B90F23039344
:101B200002230493002305934FF4A05306934FF42C
:101B300080530793052103A802F052F820B915B08D
:101B40005DF804FBFFF7B2FFFFF7B0FF003802407B
:101B50000070004008B500F0FDFDFFF7A9FFFFF79A
:101B600075FFFFF773FDFFF7D1FAFFF7F1FA00F009
:101B7000C7FB00F02BFC00F0DDFB00F001FC04488B
:101B800000F0D2F8FFF7E2FE02F0CAFEFEE700BF67
:101B90003C110020C0ED0E1A80ED0F2A80ED050AE1
:101BA000C0ED060A80ED071A0023036043608360DE
:101BB000C360036103634363036243628362C3627E
:101BC000704780ED000AC0ED010A70EE600AC0EDBA
:101BD000020A90ED0F7AB5EE407AF1EE10FA5CD081
:101BE000FDEEE07A17EE903A002BB8BF5B4207EEAD
:101BF000903AF8EEE77AB4EEE77AF1EE10FA2DD5E6
:101C000000230363D0ED037A70EEE77AC0ED0D7A1E
:101C100090ED057A20EE877A80ED087AD0ED066A9D
:101C200090ED0C6A66EE866AC0ED096A90ED076A6F
:101C300067EE867AC0ED0A7A37EE267A77EE877AF3
:101C4000C0ED0B7AC0ED030AF4EEC17AF1EE10FAA2
:101C500043DD80ED0B1A90ED0B0A7047D0ED0C7A46
:101C600070EEA77AC0ED0C7A90ED0E7AB5EE407A60
:101C7000F1EE10FAC6D0F1EE476AF4EEE67AF1EE34
:101C800010FA02D5C0ED0C6ABCE7F4EEC77AF1EEAB
:101C900010FAB7DD80ED0C7AB4E7D0ED0C7A70EE77
:101CA000A77AC0ED0C7A90ED0E7AB5EE407AF1EE9F
:101CB00010FAA7D0F1EE476AF4EEE67AF1EE10FAE8
:101CC00001D5C0ED0C6AD0ED0C7AB4EEE77AF1EEF6
:101CD00010FA97D580ED0C7A94E7B1EE411AF4EE44
:101CE000C17AF1EE10FAB6D580ED0B1AB3E7000019
:101CF0000FB410B582B004AB53F8042B0193084C19
:101D00004FF40071204604F0BBF882B2214605482A
:101D100002F084FA02B0BDE8104004B0704700BF82
:101D2000900D00203C11002008B5054B1860054BB4
:101D30001868002302221946806803F0C9FF08BD15
:101D4000900F002010000020022801D801207047C9
:101D500008B503F041FF09230360002008BD00001F
:101D600010B5013801280AD814464FF0FF3392B25B
:101D70000748006802F073F940B9204610BD03F02F
:101D80002BFF092303604FF0FF30F7E70520F5E74D
:101D9000900F0020022801D80020704708B503F0FA
:101DA0001BFF092303604FF0FF3008BD08B503F0A7
:101DB00013FF092303604FF0FF3008BD08B548B991
:101DC0004FF0FF3301220848006802F0B4F940B92F
:101DD000012008BD03F000FF092303604FF0FF302E
:101DE000F7E70520F5E700BF900F002008B50228AF
:101DF00004D84FF400534B60002008BD03F0ECFE04
:101E000009230360F8E70000054A13780133DBB2C9
:101E100013700A2B02D913460A221A70704700BFAA
:101E2000B40F0020054B1B7813B1013B034A13701C
:101E3000024B187800B10120704700BFB40F00209A
:101E400000B583B0002200920D4B596C41F48041E3
:101E50005964596C01F48041009100990192196C08
:101E600041F0805119641B6C03F080530193019B76
:101E70000F216FF0010001F09BF803B05DF804FB47
:101E800000380240FEE7FEE7FEE7FEE7FEE77047A8
:101E900008B500F079FC03F035FE012800D108BD3B
:101EA00002F088FEFBE7000008B5024801F052FA94
:101EB00008BD00BF7C10002008B5024801F04AFAB6
:101EC00008BD00BF1C10002008B5024800F038FF14
:101ED00008BD00BFE009002008B5024802F012FB6F
:101EE00008BD00BF3C11002030B583B03E4B1B68DD
:101EF0001A6812F0100F04D13B4802F003FB03B044
:101F000030BD002201921A6801925B680193019B27
:101F1000354D284602F0D0F9344C09222146284696
:101F200002F0DCFC07212046FFF7CCFBE279237AA4
:101F300043EA02239842DFD12D4A92ED007A82EDE6
:101F4000017AE07823791B0443EA0063607943EA6D
:101F50000023A1790B4307EE903AF8EEE77AC2ED41
:101F6000007ADFED246A67EEA67ADFED236A67EE7A
:101F7000A67ADFED226A77EEE67AF1EE677AC2EDB5
:101F8000007A1369BBB137EEC77ADFED1D6AB4EE94
:101F9000E67AF1EE10FA03DD11469268013A8A60A2
:101FA000DFED186AB4EEE67AF1EE10FA03D51049C7
:101FB0008A6801328A600E4901330B618B684FF4E5
:101FC000B47202FB03F307EE103AB8EEC77A77EE6D
:101FD000877A0C31C1ED007A022300220A4800689A
:101FE00003F09AF888E700BF80110020500B002012
:101FF000140B0020000080360000B4430000AB4307
:1020000000003443000034C3880B002030B583B097
:102010003E4B1B681A6812F0100F04D13B4802F0C7
:1020200071FA03B030BD002201921A6801925B6818
:102030000193019B354D284602F03EF9344C0922AC
:102040002146284602F04AFC07212046FFF73AFBCA
:10205000E279237A43EA02239842DFD12D4A92EDB6
:10206000057A82ED067AE07823791B0443EA00635F
:10207000607943EA0023A1790B4307EE903AF8EE2A
:10208000E77AC2ED057ADFED246A67EEA67ADFED26
:10209000236A67EEA67ADFED226A77EEE67AF1EE42
:1020A000677AC2ED057A536ABBB137EEC77ADFEDC6
:1020B0001D6AB4EEE67AF1EE10FA03DD1146D2693C
:1020C000013ACA61DFED186AB4EEE67AF1EE10FA71
:1020D00003D51049CA690132CA610E4901334B6206
:1020E000CB694FF4B47202FB03F307EE103AB8EE7B
:1020F000C77A77EE877A2031C1ED007A0223002279
:102100000A48006803F008F888E700BFC4110020FF
:102110005C0B0020140B0020000080360000B4434C
:1021200014AE6A4300003443000034C3840B002023
:1021300008B5024801F00EF908BD00BFDC10002010
:1021400008B5024800F0FCFD08BD00BF080A0020E9
:1021500008B5024801F0FEF808BD00BFBC0F002022
:1021600030B583B03E4B1B681A6812F0100F04D1D3
:102170003B4802F0C7F903B030BD002201921A6853
:1021800001925B680193019B354D284602F094F85B
:10219000344C09222146284602F0A0FB07212046A4
:1021A000FFF790FAE279237A43EA02239842DFD1DB
:1021B0002D4A92ED0A7A82ED0B7AE07823791B049E
:1021C00043EA0063607943EA0023A1790B4307EEF9
:1021D000903AF8EEE77AC2ED0A7ADFED246A67EE0C
:1021E000A67ADFED236A67EEA67ADFED226A77EE44
:1021F000E67AF1EE677AC2ED0A7A936BBBB137EEFD
:10220000C77ADFED1D6AB4EEE67AF1EE10FA03DD6F
:102210001146126B013A0A63DFED186AB4EEE67AF2
:10222000F1EE10FA03D510490A6B01320A630E4928
:1022300001338B630B6B4FF4B47202FB03F307EEB5
:10224000103AB8EEC77A77EE877A3431C1ED007A6A
:10225000022300220A48006802F05EFF88E700BF00
:1022600008120020680B0020140B002000008036AC
:102270000000B443AEC71B4300003443000034C326
:102280008C0B00200120704708B503F0A5FC162335
:1022900003604FF0FF3008BD08B54FF0FF31FFF786
:1022A000F3FFFEE710B503460C4A0D490D480068E0
:1022B00040B10C4800680344521A934206D8094AB8
:1022C000136010BD0748084C0460F2E703F084FC7B
:1022D0000C2303604FF0FF30F3E700BF0000022043
:1022E00000040000B80F002000770020034AD2F855
:1022F000883043F47003C2F88830704700ED00E086
:1023000008B50A480A4B03604FF4E13343600023E9
:102310008360C36003610C2242618361C36101F089
:102320006FFE00B908BDFFF7C1FBFBE73C110020C1
:102330000010014008B50F480F4B03604FF4E13324
:10234000436000238360C36003610C2242618361A8
:10235000C36101F055FE50B906480268D36843F0E6
:102360001003D3600922054902F0B8FA08BDFFF74F
:102370009DFBF1E78011002000440040500B00203D
:1023800008B50F480F4B03604FF4E133436000235F
:102390008360C36003610C2242618361C36101F009
:1023A0002FFE50B906480268D36843F01003D3608B
:1023B0000922054902F092FA08BDFFF777FBF1E721
:1023C000C4110020004800405C0B002008B50F48F5
:1023D0000F4B03604FF4E133436000238360C3601D
:1023E00003610C2242618361C36101F009FE50B9AF
:1023F00006480268D36843F01003D36009220549F8
:1024000002F06CFA08BDFFF751FBF1E7081200205B
:1024100000140140680B002030B58FB00446002343
:1024200009930A930B930C930D930368914A93427B
:102430000CD0914A93424FD0904A934200F0908042
:102440008F4A934200F0D1800FB030BD0025019536
:102450008C4B5A6C42F010025A645A6C02F0100213
:102460000192019A02951A6B42F001021A631B6BEA
:1024700003F001030293029B4FF4C063099302230C
:102480000A9303230C9307230D9309A97E4801F0B7
:102490004FF87E487E4B03604FF00063436040235B
:1024A0008360C5604FF48063036145618561C561E8
:1024B0000562456200F056FE58B9744B63639C6335
:1024C00000220521252000F073FD252000F0A8FD45
:1024D000BAE7FFF7EBFAF0E700250395694B1A6CB2
:1024E00042F400321A641A6C02F400320392039A26
:1024F00004951A6B42F001021A631B6B03F001038F
:102500000493049B0C23099302230A9303230C9343
:1025100007230D9309A95C4801F00AF85D485E4B5A
:1025200003604FF0006343608560C5604FF48063D3
:10253000036145618561C5610562456200F012FE77
:1025400058B9544BA3639C6300220521262000F058
:102550002FFD262000F064FD76E7FFF7A7FAF0E7ED
:1025600000250595474B1A6C42F480221A641A6CB8
:1025700002F480220592059A06951A6B42F0020237
:102580001A631B6B03F002030693069B4FF4406330
:10259000099302230A9303230C9307230D9309A99C
:1025A0003E4800F0C5FF3E483E4B03604FF00063DD
:1025B00043608560C5604FF4806303614561856158
:1025C000C5610562456200F0CDFD58B9344BA36387
:1025D0009C6300220521272000F0EAFC272000F060
:1025E0001FFD31E7FFF762FAF0E700250795254B5D
:1025F0005A6C42F020025A645A6C02F02002079290
:10260000079A08951A6B42F004021A631B6B03F0D9
:1026100004030893089BC023099302230A9303230E
:102620000C9308230D9309A91F4800F081FF1F4850
:102630001F4B03604FF0206343608560C5604FF41B
:102640008063036145618561C5610562456200F093
:1026500089FD58B9154BA3639C63002205214720CF
:1026600000F0A6FC472000F0DBFCEDE6FFF71EFAC9
:10267000F0E700BF00100140004400400048004067
:10268000001401400038024000000240BC0F00204E
:10269000B86402401C100020886002400004024020
:1026A0007C1000202860024000080240DC1000205E
:1026B00028640240DFF834D00D480E490E4A00234A
:1026C00002E0D458C4500433C4188C42F9D30B4AE6
:1026D0000B4C002301E013600432A242FBD3FFF74E
:1026E00005FE03F07FFAFFF735FA7047000002207D
:1026F00000000020C009002084C50008C009002097
:10270000FC760020FEE7000010B504460E4B18785A
:102710004FF47A73B3FBF0F30C4A1068B0FBF3F09C
:1027200000F08CFC68B90F2C01D901200AE00022CE
:1027300021464FF0FF3000F03BFC054B1C600020B1
:1027400000E0012010BD00BF0400002000000020B8
:102750000800002008B50B4B1A6842F400721A609A
:102760001A6842F480621A601A6842F480721A6031
:10277000032000F00BFC0F20FFF7C6FFFFF760FB04
:10278000002008BD003C0240034A1168034B1B783F
:102790000B441360704700BF4C120020040000205F
:1027A000014B1868704700BF4C120020002800F051
:1027B000A18038B5044690F82030D3B12268136860
:1027C00043F001031360FFF7EBFF054623685A68E7
:1027D00012F0010F10D1FFF7E3FF401B0A28F5D9D3
:1027E000636A43F400336362052384F820300120D8
:1027F00038BDFEF7CFFCE1E71A6822F002021A604A
:10280000FFF7CEFF054623685A6812F0020F0DD07D
:10281000FFF7C6FF401B0A28F5D9636A43F400336B
:102820006362052384F820300120E1E7227E012A3B
:102830003DD01A6822F080021A60637E012B3BD0E3
:102840002268136823F040031360A37E012B39D064
:102850002268136823F020031360E37E012B37D036
:102860002268136843F010031360237F012B35D0D7
:102870002268136823F008031360637F012B33D0B1
:102880002268136823F004031360A368E26813430B
:1028900022691343626913436268013A2168134352
:1028A000CB6100206062012384F82030A0E71A6821
:1028B00042F080021A60C0E72268136843F04003C8
:1028C0001360C2E72268136843F020031360C4E773
:1028D0002268136823F010031360C6E722681368A8
:1028E00043F008031360C8E72268136843F0040349
:1028F0001360CAE70120704790F82030013BDBB23B
:10290000012B05D9436A43F48023436201207047B9
:1029100030B5464BD3F8002242F00102C3F8002242
:10292000D3F8002222F47C52C3F80022D3F800220C
:10293000486A42EA0022C3F800224A6902F01F02F4
:10294000012000FA02F2D3F81C026FEA020C20EA1E
:102950000200C3F81C02CB69C3B9344BD3F80C0294
:102960000CEA0000C3F80C028C884869CD6844EA80
:102970000544483043F830408C68088840EA0440F9
:102980004C6904F1480E03EBCE035860CB69012B70
:102990001ED08B69002B33D12448D0F804320CEAC6
:1029A0000303C0F804320B698BBB2048D0F8143203
:1029B0000CEA0303C0F814320B6A012B2ED01B4A19
:1029C000D2F8003223F00103C2F80032002030BDFB
:1029D000164BD3F80C021043C3F80C028C884869DC
:1029E0000D6844EA0544483043F8304088894C6912
:1029F0008D6840EA0540483403EBC4035860C8E7DB
:102A00000A48D0F804321343C0F80432CBE7074831
:102A1000D0F814321343C0F81432CDE70349D1F88B
:102A20001C321A43C1F81C22C9E700BF00640040F1
:102A300070B5044690F82050EDB2012D06D0436ADF
:102A400043F4002343620125284670BD022380F829
:102A500020300268136823F001031360FFF7A0FE23
:102A6000064623685B6813F0010F0CD0FFF798FE51
:102A7000831B0A2BF5D9636A43F400336362052391
:102A800084F82030E0E700256562DDE730B590F896
:102A900020C00468A4680CF1FF3C5FFA8CFCBCF118
:102AA000010F6BD814F0E05F62D0C4F3016CBCF18D
:102AB000020F05D9436A43F400034362012062E038
:102AC000012404FA0CF41C608B68002B3DD10D68C6
:102AD000CB68046843EA45550CF118031B01E55027
:102AE00003680C690CF1180E03EB0E135C600B7D90
:102AF000012B35D0D17993791B0443EA01635179D5
:102B000043EA012314790168234301EB0C11C1F856
:102B10008C31D17893781B0443EA0163517843EAFE
:102B20000123117802680B4302EB0C12C2F88831C2
:102B300002680CF1180C4FEA0C1C52F80C3043F0F0
:102B4000010342F80C3000201DE04C6843EAC40346
:102B5000CC6823430CF11804240105682B51BFE70E
:102B6000036803EB0E13596841F480715960C1E7A3
:102B7000436A43F400134362012004E0436A43F4D0
:102B800080234362012030BD90F82030013BDBB24E
:102B9000012B01D9002070470368986810F080600D
:102BA00000D001209A6812F0006F00D001309B68BD
:102BB00013F0805FEFD00130704790F820C00CF127
:102BC000FF3C5FFA8CFCBCF1010F00F2958030B441
:102BD00051B90468E46814F0030F10D1436A43F458
:102BE00000134362012077E00468246914F0030FA6
:102BF00005D1436A43F40013436201206CE001F104
:102C00001B04240105682C5904F004049460002C72
:102C100064D101F11B04240105682C59640D146072
:102C2000046801F11B0C4FEA0C1C54F80C4004F032
:102C30000204D46004686444646804F00F041461FE
:102C4000046864446468C4F30724946104686444B9
:102C50006468240C5461026802EB0112D2F8B821B6
:102C60001A70026802EB0112D2F8B821C2F30722EF
:102C70005A70026802EB0112D2F8B821C2F307427F
:102C80009A70026802EB0112D2F8B821120EDA70C3
:102C9000026802EB0112D2F8BC211A71026802EB41
:102CA0000112D2F8BC21C2F307225A71026802EB6A
:102CB0000112D2F8BC21C2F307429A71026802EBFA
:102CC0000112D2F8BC21120EDA7179B90268D36808
:102CD00043F02003D360002030BC704701F11B0497
:102CE000240105682C59E408546099E702681369C7
:102CF00043F020031361EEE7436A43F48023436209
:102D00000120704790F82030013BDBB2012B05D940
:102D1000436A43F480234362012070470268536989
:102D200019435161002070477047704770477047E2
:102D300070477047704770477047704770477047DB
:102D40002DE9F84F054603685C69D3F804809F6855
:102D5000D3F80CB0D3F810A0D3F8189014F00106F3
:102D60003BD017F0010616D001229A6017F0020F2F
:102D700008D117F0040F0CD117F0080606D04FF455
:102D8000805608E0FFF7D0FF002604E0FFF7CFFFF2
:102D900001E04FF4006617F4807F0DD02B684FF4EC
:102DA00080729A6017F4007F40F0868017F4806F7D
:102DB00000F0868046F4005617F4803F0DD02B6853
:102DC0004FF480329A6017F4003F40F0838017F48C
:102DD000802F00F0838046F4004614F0080F07D0DF
:102DE0001BF0100F04D046F400762B681022DA6036
:102DF00014F0040F02D01BF0080F79D114F0020F69
:102E000004D02B68DB6813F0030F78D114F0400F67
:102E100007D01AF0100F04D046F480662B681022F9
:102E20001A6114F0200F02D01AF0080F6BD114F0C1
:102E3000100F04D02B681B6913F0030F6AD114F430
:102E4000003F02D018F0100F68D114F4803F02D078
:102E500018F0080F69D114F4004F7AD018F0040F5D
:102E600074D014F4807F04D019F0010F01D046F023
:102E7000010614F4007F04D019F0020F01D046F0CF
:102E8000020614F4806F04D019F0040F01D046F04C
:102E9000040614F4006F59D019F0700956D0B9F136
:102EA000400F65D058D8B9F1200F5ED0B9F1300F7E
:102EB00042D146F0200644E02846FFF736FF7BE784
:102EC00017F4006F02D046F4804675E72846FFF7F6
:102ED0002FFF71E72846FFF729FF7EE717F4002F41
:102EE00002D046F4803678E72846FFF722FF74E7E1
:102EF0002B680822DA602846FFF71CFF7EE7284689
:102F0000FEF70AFB82E72B6808221A612846FFF7C2
:102F100013FF8CE72846FFF70EFF90E72B6810227F
:102F20005A602846FFF709FF8FE72B6808225A608E
:102F30002846FFF703FF8EE7B9F1100F01D146F0E5
:102F400008062A68936923F0700393612B680422B2
:102F50005A609EB9BDE8F88FB9F1500F0BD0B9F1A6
:102F6000600FEED146F48076EBE746F01006E8E716
:102F700046F04006E5E746F08006E2E76B6A1E434E
:102F80006E622846FFF7DBFEE4E70000074AD368DD
:102F900023F4E0631B041B0C000200F4E060034315
:102FA00043F0BF6343F40033D360704700ED00E0AB
:102FB00000B5194BDB68C3F30223C3F1070CBCF166
:102FC000040F28BF4FF0040C03F1040EBEF1060FEE
:102FD00018D9033B4FF0FF3E0EFA0CFC21EA0C011E
:102FE00099400EFA03F322EA0303194300280BDB8E
:102FF0000901C9B200F1604000F5614080F800139A
:103000005DF804FB0023E5E700F00F000901C9B2F9
:10301000024B1954F4E700BF00ED00E014ED00E0AE
:10302000002807DB00F01F02400901239340024AF9
:1030300042F82030704700BF00E100E00138B0F1F5
:10304000807F0BD24FF0E0235861054AF02182F8CF
:1030500023100020986107221A61704701207047F1
:1030600000ED00E030B405682C6824F480242C6066
:10307000046863608368402B05D003689960036827
:10308000DA6030BC704703689A600368D960F8E77B
:1030900010B40368D9B210390C4AA2FB01421209DC
:1030A0000B4CA25CC2655F2909D923F47F7323F01E
:1030B000030304338365806D5DF8044B704723F48C
:1030C0007F7323F003038365F5E700BFABAAAAAAC9
:1030D00064C10008836A826992B9012B0AD0022B6D
:1030E00002D00BB100207047C36A13F0807F28D153
:1030F00000207047C36AB3F1C07F24D0002070471E
:10310000B2F5005F09D0022B25D9032B25D1C36A64
:1031100013F0807F23D100207047032B03D8DFE812
:1031200003F01404140A00207047C36A13F0807F70
:103130000DD100207047C36AB3F1C07F09D00020D1
:10314000704701207047012070470120704701201F
:103150007047012070470120704700207047012010
:103160007047000070B50446FFF71AFB002C5BD0D7
:103170000546022384F83530002384F83430226871
:10318000136823F00103136023681A6812F0010F1B
:103190000AD0FFF705FB431B052BF5D920236365F8
:1031A000032084F8350070BD1A682048104061681B
:1031B000A2680A43E1680A4321690A4361690A4334
:1031C000A1690A43E1690A43216A0A430243616A29
:1031D00004291ED01A602668756925F00705636A00
:1031E0001D43042B07D1A36A1D43E36A1BB120468C
:1031F000FFF770FF90B975612046FFF749FFE26D58
:103200003F239340836000206065012384F83530BC
:10321000C9E7E16A206B01430A43DBE740236365AA
:10322000012084F83500BEE70120BCE73F8010F0A4
:1032300038B50446856D90F8340001282BD0012064
:1032400084F8340094F83500C0B2012804D000237B
:1032500084F83430022038BD022084F83500002084
:1032600060652046FFF7FEFEE26D3F239340AB60B2
:103270002268136843F016031360236C23B122689D
:10328000136843F0080313602268136843F00103D6
:1032900013600020DFE70220DDE770B50446866D8D
:1032A000FFF77EFA94F83530DBB2022B06D080238C
:1032B0006365002384F83430012070BD0546226820
:1032C000136823F0160313602268536923F0800308
:1032D0005361236CE3B12268136823F00803136081
:1032E0002268136823F00103136023681B6813F03E
:1032F000010F11D0FFF754FA431B052BF5D92023FA
:103300006365032084F83500002384F83430D4E763
:10331000A36C002BDFD1E3E7E26D3F239340B36062
:10332000012384F83530002084F83400C5E790F894
:103330003530DBB2022B03D0802343650120704778
:10334000052380F835300268136823F00103136009
:1033500000207047F0B583B0044600230193724B00
:103360001D68724BA3FB0535AD0A876D3E68C26DC3
:1033700008239340334210D003681A6812F0040FF8
:103380000BD01A6822F004021A60C26D0823934021
:10339000BB60436D43F001034365E26D012393403D
:1033A000334209D02268526912F0800F04D0BB600A
:1033B000636D43F002036365E26D0423934033427F
:1033C00009D02268126812F0020F04D0BB60636D4E
:1033D00043F004036365E26D10239340334224D02D
:1033E0002268126812F0080F1FD0BB6023681A68A9
:1033F00012F4802F0DD01B6813F4002F04D1236C1E
:103400009BB12046984710E0A36C73B120469847C3
:103410000BE01A6812F4807F03D11A6822F00802C8
:103420001A60236C0BB120469847E26D202393402D
:10343000334255D02268126812F0100F50D0BB6092
:1034400094F83530DBB2052B0ED023681A6812F4DD
:10345000802F33D01B6813F4002F2AD1636C002B0C
:103460003ED0204698473BE02268136823F01603BD
:1034700013602268536923F080035361236CA3B166
:103480002268136823F008031360E26D3F23934022
:10349000BB60012384F83530002384F83430236D79
:1034A000002B3FD0204698473CE0A36C002BE7D18F
:1034B000EBE7E36BA3B12046984711E01A6812F4DA
:1034C000807F09D11A6822F010021A60012384F863
:1034D0003530002384F83430E36B0BB12046984735
:1034E000636DFBB1636D13F0010F17D0052384F8F2
:1034F00035302268136823F001031360019B013308
:103500000193AB4204D823681B6813F0010FF5D177
:10351000012384F83530002384F83430E36C0BB198
:103520002046984703B0F0BD00000020B5814E1B37
:1035300000230F2B00F2E48070B582B060E0856854
:103540005E000324B44025EA0405CC68B4402C4353
:103550008460456825EA02054C68C4F300129A406D
:103560002A4342605AE0DC08083450F8246003F033
:10357000070295000F22AA4026EA020E0A69AA4015
:1035800042EA0E0240F824205CE0072200E000221C
:1035900002FA0EF22A4302345A4D45F824205A4AC0
:1035A00094686FEA0C0224EA0C054E6816F4801F3A
:1035B00001D04CEA0405544CA560E46802EA040515
:1035C0004E6816F4001F01D04CEA04054E4CE5602D
:1035D000646802EA04054E6816F4003F01D04CEA24
:1035E0000405494C6560246822404D6815F4803F0D
:1035F00001D04CEA0402444C226001330F2B7DD8E9
:1036000001229A400C6804EA020C32EA0404F4D164
:103610004C6804F00304013C012C90D94A6802F084
:103620000302032A09D0C4685D000322AA4024EAE9
:1036300002048A68AA402243C2604A6802F0030278
:10364000022A90D004684FEA430E032202FA0EF2D7
:1036500024EA02044A6802F0030202FA0EF222434C
:1036600002604A6812F4403FC7D000220192274A04
:10367000546C44F480445464526C02F480420192CD
:10368000019A9C08A51C1F4A52F8255003F003021A
:103690004FEA820E0F2202FA0EF225EA02051C4AB8
:1036A00090423FF474AF02F5806290421AD002F566
:1036B0008062904218D002F58062904216D002F5E6
:1036C0008062904214D002F58062904212D002F5DE
:1036D0008062904210D002F5806290423FF455AF74
:1036E000082255E7012253E7022251E703224FE760
:1036F00004224DE705224BE7062249E702B070BDE0
:10370000704700BF00380140003C014000380240D3
:1037100000000240002800F0E08170B582B004464D
:10372000036813F0010F3BD09F4B9B6803F00C0321
:10373000042B2CD09C4B9B6803F00C03082B21D04E
:103740006368B3F5803F4FD0B3F5A02F52D0964BAE
:103750001A6822F480321A601A6822F480221A60F1
:103760006368002B50D0FFF71BF805468E4B1B6893
:1037700013F4003F14D1FFF713F8401B6428F5D968
:103780000320B1E1884B5B6813F4800FD8D0864BDF
:103790001B6813F4003F03D06368002B00F09F8187
:1037A000236813F0020F54D07F4B9B6813F00C0F6B
:1037B0003ED07D4B9B6803F00C03082B33D0E368AD
:1037C000002B68D0794B01221A60FEF7E9FF05460D
:1037D000754B1B6813F0020F54D1FEF7E1FF401B3D
:1037E0000228F5D903207FE16F4A136843F4803340
:1037F0001360B5E76C4B1A6842F480221A601A68AD
:1038000042F480321A60ABE7FEF7CAFF0546664B0A
:103810001B6813F4003FC3D0FEF7C2FF401B6428AF
:10382000F5D9032060E1604B5B6813F4800FC6D1CB
:103830005D4B1B6813F0020F03D0E368012B40F0CF
:103840005081594A136823F0F803216943EAC10300
:103850001360236813F0080F42D063696BB3534BB6
:103860000122C3F8802EFEF79BFF05464E4B5B6F8F
:1038700013F0020F34D1FEF793FF401B0228F5D955
:10388000032031E1484A136823F0F803216943EA31
:10389000C1031360DDE7454B00221A60FEF780FF8D
:1038A0000546414B1B6813F0020FD2D0FEF778FF9C
:1038B000401B0228F5D9032016E13C4B0022C3F837
:1038C000802EFEF76DFF0546374B5B6F13F0020F3E
:1038D00006D0FEF765FF401B0228F5D9032003E15F
:1038E000236813F0040F77D02F4B1B6C13F0805F0D
:1038F00033D1002301932C4B1A6C42F080521A648E
:103900001B6C03F080530193019B0125284B1B681E
:1039100013F4807F23D0A368012B34D0052B38D03B
:10392000214B1A6F22F001021A671A6F22F004026B
:103930001A67A368002B3DD0FEF732FF06461A4BEC
:103940001B6F13F0020F46D1FEF72AFF801B41F2D6
:1039500088339842F3D90320C6E00025D6E7144AFD
:10396000136843F480731360FEF71AFF0646104B8A
:103970001B6813F4807FCED1FEF712FF801B022854
:10398000F5D90320B0E0084A136F43F00103136731
:10399000CFE7054B1A6F42F004021A671A6F42F024
:1039A00001021A67C5E700BF003802400000474225
:1039B00000700040FEF7F4FE0646524B1B6F13F0FA
:1039C000020F08D0FEF7ECFE801B41F288339842CC
:1039D000F3D9032088E0EDB9A369002B00F08380C0
:1039E000484A926802F00C02082A51D0022B17D0E4
:1039F000454B00221A66FEF7D3FE0446414B1B6876
:103A000013F0007F42D0FEF7CBFE001B0228F5D951
:103A1000032069E03B4A136C23F080531364DBE717
:103A2000394B00221A66FEF7BBFE0546354B1B6874
:103A300013F0007F06D0FEF7B3FE401B0228F5D935
:103A4000032051E0E369226A1343626A43EA821366
:103A5000A26A5208013A43EA0243E26A43EA026375
:103A6000284A5360284B01221A66FEF799FE044645
:103A7000244B1B6813F0007F06D1FEF791FE001B5C
:103A80000228F5D903202FE000202DE000202BE0B4
:103A9000012B2BD01B4B5B6803F48001E269914240
:103AA00026D103F03F02216A8A4223D1616A47F698
:103AB000C0721A40B2EB811F1ED103F44031A26ADA
:103AC0005208013AB1EB024F18D103F07063E26A79
:103AD000B3EB026F14D1002006E0012070470120F3
:103AE00002E0012000E0002002B070BD0120FBE7F1
:103AF0000120F9E70120F7E70120F5E70120F3E7CE
:103B00000120F1E7003802400000474208B5314B80
:103B10009B6803F00C03042B57D0082B57D12D4B77
:103B20005A6802F03F025B6813F4800F2AD0294BD9
:103B30005968C1F3881C4FEA4C11B1EB0C006EEBD5
:103B40000E0E4FEA8E1343EA90638101091A63EB6C
:103B50000E03DB0043EA5173C90011EB0C0C43F177
:103B60000003590200234FEA4C2041EADC51FCF7E4
:103B700003FD184B5B68C3F3014301335B00B0FBEB
:103B8000F3F025E0134B5968C1F3881C4FEA4C1140
:103B9000B1EB0C006EEB0E0E4FEA8E1343EA90630E
:103BA0008101091A63EB0E03DB0043EA5173C9007C
:103BB00011EB0C0C43F10003990200234FEA8C2017
:103BC00041EA9C51FCF7D8FCD3E7034800E00348E6
:103BD00008BD00BF0038024000127A000024F40043
:103BE000002800F09B8070B50D4604464F4B1B68C3
:103BF00003F007038B4208D2CBB24C4A1370136810
:103C000003F007038B4240F08B80236813F0020F10
:103C100017D013F0040F04D0454A936843F4E053DF
:103C20009360236813F0080F04D0414A936843F46B
:103C3000604393603E4A936823F0F003A1680B430E
:103C40009360236813F0010F32D06368012B21D0F9
:103C50009A1E012A25D9364A126812F0020F61D045
:103C600033498A6822F0030213438B60FEF798FD04
:103C700006462F4B9B6803F00C036268B3EB820F80
:103C800016D0FEF78DFD801B41F288339842F0D9A3
:103C9000032042E0264A126812F4003FE0D10120DE
:103CA0003BE0234A126812F0007FD9D1012034E0B2
:103CB0001E4B1B6803F00703AB4207D9EAB21B4B4C
:103CC0001A701B6803F00703AB422DD1236813F071
:103CD000040F06D0164A936823F4E053E1680B43BF
:103CE0009360236813F0080F07D0114A936823F4F8
:103CF0006043216943EAC1039360FFF707FF0C4B60
:103D00009B68C3F303130B4AD35CD8400A4B18607B
:103D10000A4B1868FEF7F8FC002070BD01207047C0
:103D20000120FAE70120F8E70120F6E7003C024015
:103D3000003802404CC100080000002008000020AC
:103D4000014B1868704700BF0000002008B5FFF75E
:103D5000F7FF044B9B68C3F38223034AD35CD8402C
:103D600008BD00BF003802405CC1000808B5FFF77D
:103D7000E7FF044B9B68C3F34233034AD35CD8404C
:103D800008BD00BF003802405CC10008026802F1B3
:103D90000C0353E8003F23F0C0030C3242E800312B
:103DA0000029F3D1202380F83D307047026802F1EA
:103DB0000C0353E8003F23F490730C3242E80031C7
:103DC0000029F3D1026802F1140353E8003F23F005
:103DD0000103143242E800310029F3D1036B012BB7
:103DE00005D0202380F83E3000230363704702682B
:103DF00002F10C0353E8003F23F010030C3242E8B9
:103E000000310029F3D1ECE790F83D30DBB2212BF3
:103E100001D0022070478368B3F5805F17D0036A32
:103E20005A1C02621A7803685A60C38C9BB2013B29
:103E30009BB2C3844BB90268D36823F08003D3607C
:103E40000268D36843F04003D360002070470369E1
:103E5000002BE4D1036A1B880268C3F30803536094
:103E6000036A02330362E0E738B504460268136967
:103E700023F44053C1680B43136183680269134301
:103E800042691343C2691A430168CB6823F416439D
:103E900023F00C031343CB600268536923F440738F
:103EA00081690B4353610368314A934206D002F59E
:103EB0008062934202D0FFF749FF01E0FFF756FF0F
:103EC000E369B3F5004F29D00021031849411B18BD
:103ED00041F10001C90041EA5371DB001818636821
:103EE0004FEA83024FEA937341F10001FCF744FB70
:103EF000204DA5FB00325109642303FB11031B0174
:103F00003233A5FB03235B0903F0F00202EB01123D
:103F100003F00F03216813448B6038BD002302189F
:103F200043EB0301121841F10001C90041EA52714B
:103F3000D200101841F10001626892185B41FCF751
:103F40001BFB0C4DA5FB00325109642303FB11033D
:103F5000DB003233A5FB03235B095A0002F4F8723D
:103F600002EB011203F00703216813448B60D4E7CE
:103F7000001001401F85EB512DE9F84305460F461F
:103F800016469946DDF820802C68246837EA040339
:103F90000CBF4FF0010C4FF0000CB4452DD1B8F11F
:103FA000FF3FF1D0B8F1000F05D0FEF7F9FBA0EB11
:103FB00009004045E8D92A6802F10C0353E8003FA4
:103FC00023F4D0730C3242E800310029F3D12A687F
:103FD00002F1140353E8003F23F00103143242E8D6
:103FE00000310029F3D1202385F83D3085F83E309B
:103FF000002385F83C30032000E00020BDE8F88372
:1040000058B310B5044690F83D300BB3242384F820
:104010003D302268D36823F40053D3602046FFF775
:1040200023FF2268136923F49043136122685369C4
:1040300023F02A0353612268D36843F40053D3600A
:1040400000202064202384F83D3084F83E3010BDE9
:1040500080F83C30FEF7E0F9D8E7012070472DE901
:10406000F04182B01E4690F83D30DBB2202B54D197
:1040700004460D469046002953D0002A53D090F8AC
:104080003C30012B51D0012380F83C3000230364E5
:10409000212380F83D30FEF783FB0746A4F82480F7
:1040A000A4F82680A368B3F5805F05D04FF0000820
:1040B000002384F83C3012E0236913B14FF000086C
:1040C000F6E7A8460025F3E738F8023B2268C3F379
:1040D00008035360E28C92B2013A92B2E284E38C1C
:1040E0009BB273B100963B46002280212046FFF729
:1040F00043FFE0B9002DE7D015F8012B23685A6083
:10410000E8E700963B46002240212046FFF734FFB7
:1041100078B9202384F83D3000E0022002B0BDE8E9
:10412000F0810120FAE70120F8E70220F6E70320FA
:10413000F4E70320F2E72DE9F04182B01E4690F843
:104140003E30DBB2202B5CD104460D469046002960
:104150005BD0002A5BD090F83C30012B59D0012372
:1041600080F83C3000230364222280F83E20036361
:10417000FEF716FB0746A4F82C80A4F82E80A3684F
:10418000B3F5805F05D04FF00008002384F83C3081
:1041900017E0236913B14FF00008F6E7A8460025A1
:1041A000F3E723685B68C3F3080328F8023B03E0E6
:1041B00023685B682B700135E28D92B2013A92B2AE
:1041C000E285E38D9BB2BBB100963B4600222021E5
:1041D0002046FFF7D1FEF0B9002DE2D0A368B3F579
:1041E000805FE5D013B92369002BE1D023685B68B9
:1041F00003F07F032B70DEE7202384F83E3000209D
:1042000000E0022002B0BDE8F0810120FAE70120C1
:10421000F8E70220F6E70320F4E7000038B590F84D
:104220003D30DBB2202B38D10446002937D0002A9C
:1042300037D090F83C30012B35D0012380F83C304A
:1042400001628284C28400250564212380F83D3008
:10425000436B1648D863636B15481864636B154845
:10426000D864636B1D6520681346021D606BFEF702
:10427000DFFF23686FF040021A6084F83C50226828
:1042800002F1140353E8003F43F08003143242E884
:1042900000310029F3D1002000E0022038BD0120C8
:1042A000FCE70120FAE70220F8E700BF3F430008DF
:1042B000A7430008B743000810B5044603685A69CD
:1042C00090F83D30DBB2212B0AD023685A6902F006
:1042D000400294F83E30DBB2222B19D0002010BDF2
:1042E00002F08002002AF0D0226802F1140353E8A1
:1042F000003F23F08003143242E800310029F3D15B
:10430000606B08B1FEF7C9FF2046FFF73FFDDCE711
:10431000002AE3D0226802F1140353E8003F23F09F
:104320004003143242E800310029F3D1A06B08B1F8
:10433000FEF7B3FF2046FFF739FDCFE7704708B51A
:104340000346806B1B681B6813F4807F1AD100231F
:10435000C384026802F1140353E8003F23F0800392
:10436000143242E800310029F3D1026802F10C0353
:1043700053E8003F43F040030C3242E8003100298B
:10438000F3D108BDFFF7DAFFFBE708B50168CA689B
:1043900022F04002CA60202280F83D20FFF7CEFFC5
:1043A000002008BD704708B5806BFFF7FBFF08BD14
:1043B00070477047704710B5846B23685A6994F84A
:1043C0003D30DBB2212B10D023685A6902F0400245
:1043D00094F83E30DBB2222B11D0236C43F0100353
:1043E00023642046FFF7E6FF10BD02F08002002A9A
:1043F000EAD00023E3842046FFF7C8FCE4E7002A64
:10440000EBD00023E3852046FFF7D0FCE5E708B5B5
:10441000806B0023C385C384FFF7CCFF08BD7047C2
:1044200090F83E30DBB2222B67D18368B3F5805F12
:104430004DD0826AB3F5805F04D0002B54D103695C
:10444000002B51D103685B681370836A0133836268
:10445000C38D9BB2013B9BB2C385002B4FD100B5EE
:1044600083B00268D36823F02003D3600268D36866
:1044700023F48073D3600268536923F0010353610E
:10448000202380F83E30036B012B33D100230363DC
:10449000026802F10C0353E8003F23F010030C32D2
:1044A00042E800310029F3D103681A6812F0100FB6
:1044B00006D0002201921A6801925B680193019B69
:1044C000818DFFF7ACFF002003B05DF804FB0269AB
:1044D000002AAED1826A03685B68C3F308031380C5
:1044E000836A02338362B3E703685B6803F07F0388
:1044F0001370AAE7FFF75CFFE5E702207047002092
:104500007047000030B583B0044602681368D06875
:10451000516913F00F0505D113F0200F02D010F0F0
:10452000200F19D12DB111F0010119D110F4907F94
:1045300016D1216B01297DD013F0800F03D010F02C
:10454000800F40F0158113F0400F03D010F0400FA2
:1045500040F0128103B030BD2046FFF761FFF9E75C
:1045600013F0010F06D010F4807F03D0226C42F0CC
:104570000102226413F0040F04D019B1226C42F03E
:104580000202226413F0020F04D019B1226C42F02F
:104590000402226413F0080F07D010F0200F00D19E
:1045A00019B1226C42F008022264226C002AD1D098
:1045B00013F0200F02D010F0200F29D123685B697F
:1045C00003F04003226C12F0080F00D163B32046C1
:1045D000FFF7ECFB23685B6913F0400F20D02268E3
:1045E00002F1140353E8003F23F04003143242E881
:1045F00000310029F3D1A36B73B1614A1A65A06B36
:10460000FEF795FE0028A5D0A06B036D9847A1E7A3
:104610002046FFF705FFD1E72046FFF7CBFE99E7DD
:104620002046FFF7C7FE95E72046FFF7C3FE0023AD
:1046300023648FE713F0100F3FF47EAF10F0100FDC
:104640003FF47AAF002301931368019353680193F9
:10465000019B536913F0400F50D0A26B13685B6845
:104660009BB2002B3FF476AFA18D99427FF672AFDB
:10467000E385D369B3F5807F37D0226802F10C035C
:1046800053E8003F23F480730C3242E800310029E4
:10469000F3D1226802F1140353E8003F23F0010331
:1046A000143242E800310029F3D1226802F11403E8
:1046B00053E8003F23F04003143242E80031002960
:1046C000F3D1202384F83E3000232363226802F1D3
:1046D0000C0353E8003F23F010030C3242E8003192
:1046E0000029F3D1A06BFEF7D8FDA18DE38D9BB21D
:1046F000C91A89B22046FFF792FE2BE7A18DE38D00
:104700009BB2C91A89B2E38D9BB2002B3FF422AF52
:1047100000293FF41FAF226802F10C0353E8003F69
:1047200023F490730C3242E800300028F3D1226861
:1047300002F1140353E8003F23F00103143242E86E
:1047400000300028F3D1202384F83E300023236377
:10475000226802F10C0353E8003F23F010030C32EF
:1047600042E800300028F3D12046FFF758FEF1E67A
:104770002046FFF749FBEDE62046FFF706FEE9E697
:104780000F44000808B5806B036B012B02D0FFF7C4
:1047900010FE08BD818D4908FFF741FEF9E708B515
:1047A0000346806B1B681B6813F4807F2BD10023AA
:1047B000C385026802F10C0353E8003F23F48073C1
:1047C0000C3242E800310029F3D1026802F11403EF
:1047D00053E8003F23F00103143242E8003100297E
:1047E000F3D1026802F1140353E8003F23F04003C1
:1047F000143242E800310029F3D1202380F83E3002
:10480000036B012B05D0036B012B0FD0FFF7D0FDFD
:1048100008BD026802F10C0353E8003F23F01003C7
:104820000C3242E800310029F3D1ECE7818DFFF72B
:10483000F6FDEDE730B583B004461346816282850C
:1048400000250564222280F83E20826B2048D06338
:10485000A26B20481064A26B1F48D064A26B156540
:1048600020680A46011DA06BFEF7E2FC0195236853
:104870001A6801925B680193019B84F83C5023699C
:104880005BB1226802F10C0353E8003F43F48073EC
:104890000C3242E800310029F3D1226802F11403FE
:1048A00053E8003F43F00103143242E8003100298D
:1048B000F3D1226802F1140353E8003F43F04003B0
:1048C000143242E800310029F3D1002003B030BD9A
:1048D0009F47000885470008B743000808B590F8CF
:1048E0003E30DBB2202B0DD171B17AB190F83C3063
:1048F000012B0DD0012380F83C3000230363FFF728
:1049000099FF00E0022008BD0120FCE70120FAE742
:104910000220F8E7842801D0033070470020704758
:1049200008B500F075FE002008BDF0B585B00C4656
:10493000456806680769B0F90800FFF7EBFF03ABAD
:10494000019300902346BAB23146284600F0EAFDB2
:10495000012802D1039805B0F0BD0020FBE708B59F
:1049600000B9012000F0A2FF002008BD08B5002218
:104970004168006800F0AFFB08BD00F10803436028
:104980004FF0FF328260C360036100230360704711
:1049900000230361704743684B609A688A605160E6
:1049A00099600861036801330360704730B40D6893
:1049B000B5F1FF3F11D000F108031C465B681A688F
:1049C000AA42FAD963684B6099608C6061600861A3
:1049D00003680133036030BC70470469F2E7036980
:1049E000416882688A60416851605A68824206D094
:1049F000002202611A68013A1A60186870478268DA
:104A00005A60F5E782B0002301930D4B1B68B3F1A8
:104A1000FF3F08D04FF0500383F31188BFF36F8F2F
:104A2000BFF34F8FFEE74FF0500383F31188BFF3BE
:104A30006F8FBFF34F8F019B002BFCD002B07047EC
:104A40000C00002008480068006880F308884FF0D8
:104A5000000080F3148862B661B6BFF34F8FBFF3D6
:104A60006F8F00DF00BF000008ED00E0DFF80C00F2
:104A7000016841F4700101607047000088ED00E0BA
:104A80004FF0807340F8043C21F0010140F8081C0D
:104A9000054B40F80C3C40F8202C6FF0020340F826
:104AA000243C4438704700BF054A0008000000005D
:104AB000074B19680868B0E8F04F80F30988BFF326
:104AC0006F8F4FF0000080F311887047AFF30080C4
:104AD000887500204FF0500383F31188BFF36F8F68
:104AE000BFF34F8F0B4A136801331360012B00D0C3
:104AF00070474FF0E023D3F8043D13F0FF0FF7D0D9
:104B00004FF0500383F31188BFF36F8FBFF34F8FC4
:104B1000FEE700BF0C000020094B1B6843B94FF0B3
:104B2000500383F31188BFF36F8FBFF34F8FFEE7FE
:104B3000013B034A13600BB983F31188704700BF30
:104B40000C00002000000000000000000000000039
:104B5000EFF30980BFF36F8F154B1A681EF0100F2B
:104B600008BF20ED108A20E9F04F10602DE9090000
:104B70004FF0500080F31188BFF34F8FBFF36F8F5A
:104B800000F0BAFE4FF0000080F3118809BC1968EC
:104B90000868B0E8F04F1EF0100F08BFB0EC108AA4
:104BA00080F30988BFF36F8F704700BFAFF30080B9
:104BB0008875002008B54FF0500383F31188BFF3C8
:104BC0006F8FBFF34F8F00F069FD28B14FF0E023E6
:104BD0004FF08052C3F8042D002383F3118808BDE1
:104BE0004FF0E022002313619361054B1B680549D8
:104BF000A1FB03139B09013B53610723136170471A
:104C000000000020D34D62104FF0E023D3F8002DB8
:104C10003D4B9A421CD04FF0E023D3F8002D3B4B84
:104C20009A421ED030B583B0394B1A78D2B2019275
:104C3000FF221A701B78DBB28DF803309DF8033029
:104C400003F05003334A1370334B07221A601BE002
:104C50004FF0500383F31188BFF36F8FBFF34F8F73
:104C6000FEE74FF0500383F31188BFF36F8FBFF35C
:104C70004F8FFEE7284A1368013B13609DF803300D
:104C80005B00DBB28DF803309DF8033013F0800F2A
:104C9000F0D1214B1B68032B08D04FF0500383F356
:104CA0001188BFF36F8FBFF34F8FFEE71B021A4AC5
:104CB000136003F4E0631360019BDBB2144A1370CA
:104CC0004FF0E024D4F8203D43F47003C4F8203DB5
:104CD000D4F8203D43F07043C4F8203DFFF780FF37
:104CE00000250E4B1D60FFF7C1FED4F8343F43F0A2
:104CF0004043C4F8343FFFF7A5FE00F0FDFDFFF789
:104D000081FE284603B030BD71C20F4170C20F4111
:104D100000E400E050120020541200200C0000209B
:104D2000EFF305830F2B0FD9114A9B5CDBB2114ABD
:104D300012789A4208D94FF0500383F31188BFF3D9
:104D40006F8FBFF34F8FFEE74FF0E023D3F80C3D9A
:104D500003F4E063084A1268934208D94FF0500305
:104D600083F31188BFF36F8FBFF34F8FFEE7704758
:104D7000F0E300E05012002054120020134A12F019
:104D8000070F1FD0D11D21F00701C1F5C643103315
:104D900013440A460E480260002141601344083B58
:104DA00023F007030B48036059601960991A51609A
:104DB0001360094B1960094B1960094B4FF0004211
:104DC0001A60704746F21033E4E700BF5C1200201F
:104DD0008075002058120020747500207075002026
:104DE0006C750020164B1A461B688342FBD3516832
:104DF00002EB010C844509D0416800EB010C6345CE
:104E000009D00360904219D0106070474068014497
:104E100051601046F0E710B40A4C2468A3420BD04E
:104E20005B681944416013681B680360904200D0BE
:104E300010605DF8044B70470460F7E7704700BFEF
:104E4000807500205812002070B5054600F01EFC49
:104E5000364B1B68A3B1364B1B681D424ED135B192
:104E6000083515F0070F02D025F007050835002D8D
:104E700046D0304B1B68AB4251D32F4A146804E034
:104E8000FFF77CFFE7E722461C466368AB4202D28D
:104E90002368002BF7D1254B1B68A34241D016682D
:104EA00008362368136063685B1B102B10D96019E8
:104EB00010F0070F08D04FF0500383F31188BFF3B1
:104EC0006F8FBFF34F8FFEE743606560FFF78AFF88
:104ED000626818490B689B1A0B60184909688B4275
:104EE00001D216490B60124B1B6813436360002309
:104EF0002360134A13680133136002E0002600E0C8
:104F0000002600F057FC16F0070F0CD04FF05003AE
:104F100083F31188BFF36F8FBFF34F8FFEE7002637
:104F2000EFE70026EDE7304670BD00BF58120020C5
:104F30006C7500207075002080750020747500204D
:104F400078750020002834D038B50446A0F1080553
:104F500050F8043C174A1268134208D14FF050032E
:104F600083F31188BFF36F8FBFF34F8FFEE750F8C5
:104F7000081C41B14FF0500383F31188BFF36F8FCA
:104F8000BFF34F8FFEE723EA020340F8043C00F032
:104F90007DFB54F8041C084A13680B441360284630
:104FA000FFF720FF054A13680133136000F002FC8D
:104FB00038BD70476C750020707500207C7500202E
:104FC00070B504461546866B026C5AB903681BB16E
:104FD00000200136A66370BD806800F0A3FD0023A9
:104FE000A360F6E76DB94068FBF748FC226C636884
:104FF00013446360A268934219D323686360284610
:10500000E7E7C068FBF73AFC226C5142E3689B1A61
:10501000E3602268934202D2A3680B44E360022D4E
:1050200001D00020D5E726B1013E0020D1E7284677
:10503000CFE70020CDE738B5E0B10D460446FFF7D5
:1050400049FD2368E26B216C01FB0230A060002067
:10505000A0636360013A02FB0133E360FF2384F83D
:10506000443084F84530FDB9236963B9FFF754FD36
:10507000012038BD4FF0500383F31188BFF36F8FC9
:10508000BFF34F8FFEE704F1100000F0F5FC00289D
:10509000ECD04FF0E0234FF08052C3F8042DBFF363
:1050A0004F8FBFF36F8FE1E704F11000FFF765FC4E
:1050B00004F12400FFF761FCD8E710B5034602981D
:1050C0000C4631B90060C36304640121FFF7B3FFEC
:1050D00010BD0260F7E740B94FF0500383F3118829
:1050E000BFF36F8FBFF34F8FFEE7F0B583B00C4671
:1050F0001546064601FB00F04830FFF7A5FE0746BF
:1051000038B100902B4600F1480221463046FFF7A7
:10511000D4FF384603B0F0BD2DE9F84390B10F46F7
:1051200016461C460546B1B1022C20D1EB6B012B73
:105130001DD04FF0500383F31188BFF36F8FBFF37F
:105140004F8FFEE74FF0500383F31188BFF36F8F4B
:10515000BFF34F8FFEE7036C002BE5D04FF05003F9
:1051600083F31188BFF36F8FBFF34F8FFEE7FFF715
:10517000D7FDEFF311894FF0500383F31188BFF38C
:105180006F8FBFF34F8FAA6BEB6B9A4206D3022C43
:1051900004D0002089F31188BDE8F88395F8458094
:1051A0004FFA88F8AB6B224639462846FFF708FFCE
:1051B000B8F1FF3F06D008F101035BB285F8453036
:1051C0000120E7E76B6A0BB90120E3E705F1240052
:1051D00000F052FC18B126B101203060DAE701205E
:1051E000D8E70120D6E7000028B141690C4A914276
:1051F0000AD0002070474FF0500383F31188BFF3AB
:105200006F8FBFF34F8FFEE7836A064A934202D047
:105210001BB100207047002070470120704700BF7D
:10522000847600206C760020084B1B681B6823B92D
:10523000074B4FF0FF321A607047044B1B68DB6866
:10524000DB685A68024B1A60704700BF8C750020FB
:105250006076002010B50446006BFFF773FE204611
:10526000FFF770FE10BD2DE9F04707469846089DF0
:10527000DDF824900A9C266B02F18042013A06EB8D
:10528000820626F0070600293AD08E464FF0000C21
:10529000BCF10F0F0BD81EF80C2004EB0C0383F8A5
:1052A00034201EF80C3013B10CF1010CF0E7002390
:1052B00084F84330062D00D90625E56265644FF079
:1052C000000AC4F848A0201DFFF762FB04F1180093
:1052D000FFF75EFB2461C5F10705A5616462C4F8B0
:1052E0004CA084F850A0424639463046FFF7C8FB30
:1052F0002060B9F1000F01D0C9F80040BDE8F08787
:10530000002384F83430D5E738B5002407E004EBF7
:10531000840293000E481844FFF72FFB0134062C3B
:10532000F5D90C4D2846FFF728FB0B4C2046FFF71C
:1053300024FB0A48FFF721FB0948FFF71EFB094839
:10534000FFF71BFB084B1D60084B1C6038BD00BFFE
:105350009475002034760020487600206C7600207A
:1053600098760020847600208C75002090750020AF
:1053700010B50446FFF7AEFB214A136801331360F2
:10538000204B1B685BB1204B1B686BB91D4B1B6826
:10539000DA6AE36A9A4207D81A4B1C6004E0194B98
:1053A0001C601368012B28D0184A1368013313605E
:1053B000E06A01238340164A11680B43136000EB37
:1053C0008000211D134B03EB8000FFF7E4FAFFF789
:1053D000A3FB0D4B1B687BB10A4B1B68DA6AE36ABF
:1053E0009A4209D24FF0E0234FF08052C3F8042DC7
:1053F000BFF34F8FBFF36F8F10BDFFF785FFD3E76C
:105400002076002088750020807600202C760020F1
:1054100030760020947500200F4B1B68D3B110B577
:10542000FFF758FB0D4BDB68DC68201DFFF7D7FA50
:105430000B4A1368013B1360074A1368013B136072
:10544000FFF76AFB2046FFF705FF034B1B68002BA5
:10545000E6D110BD704700BF24760020987600206A
:105460002076002008B5FFF7D7FF074B1B68012BFC
:10547000F9D94FF0E0234FF08052C3F8042DBFF369
:105480004F8FBFF36F8FEEE79475002070B5044621
:105490000D461D4B1E681D4B18680430FFF79FFA20
:1054A00050B91A4B1B68DA6A012303FA02F2184951
:1054B0000B6823EA02030B60B4F1FF3F0DD03444C4
:1054C000124B1B685C60A64210D9124B18680F4B38
:1054D00019680431FFF76AFA70BD002DEFD00B4B4D
:1054E000196804310C48FFF756FAF5E70B4B1868BA
:1054F000064B19680431FFF759FA094B1B68A342A0
:10550000EAD9074B1C60E7E7AC76002088750020DD
:105510003076002090750020847600208C75002065
:10552000607600202DE9F04385B007468846144692
:105530001E469000FFF788FCF0B181465420FFF72B
:1055400083FC0546A0B1C0F83090D5B10023039389
:1055500002950D9B01930C9B0093334622464146D6
:105560003846FFF780FE2846FFF702FF012005E0DE
:105570004846FFF7E7FCE8E74FF0FF3005B0BDE82D
:10558000F0834FF0FF30F9E738B568B104461D4BA2
:105590001B68834207D0FFF79DFA2046FFF724FEE1
:1055A00058B9FFF7B9FA38BD4FF0500383F31188AB
:1055B000BFF36F8FBFF34F8FFEE7251D2846FFF720
:1055C0000EFAE06A012383400F4A11680B4313600F
:1055D00000EB800029460D4B03EB8000FFF7DBF961
:1055E000E26A084B1B68DB6A9A42DAD34FF0E02389
:1055F0004FF08052C3F8042DBFF34F8FBFF36F8F6E
:10560000CFE700BF88750020307600209475002019
:1056100000B583B0174B01930023009380221649F5
:105620001648FFF77FFF012805D0B0F1FF3F17D0E4
:1056300003B05DF804FB4FF0500383F31188BFF310
:105640006F8FBFF34F8F0E4B4FF0FF321A600D4B31
:1056500001221A600C4B00221A60FFF7D5FAE7E727
:105660004FF0500383F31188BFF36F8FBFF34F8F59
:10567000FEE700BF5C7600206CC10008655400089E
:105680006076002080760020AC760020024A136805
:1056900001331360704700BF28760020F8B53A4BFD
:1056A0001B68002B69D1394B1D6801351D60C5B9D8
:1056B000374B1B681B6843B14FF0500383F31188CD
:1056C000BFF36F8FBFF34F8FFEE7314A1168314B45
:1056D000186810601960304A136801331360FFF7CF
:1056E000A3FD2E4B1B68AB423DD900272C4B1B68FA
:1056F000DB6A03EB83039A002A4B9B58012B00D9EA
:105700000127294B1B68002B3CD001273AE00127D9
:105710001F4B1B681B6843B31D4B1B68DB68DC68B1
:1057200063689D4226D3261D3046FFF758F9A36AC9
:105730001BB104F11800FFF752F9E36A01229A4005
:105740001A49086802430A6003EB83039A00314652
:1057500014481044FFF71FF9E26A114B1B68DB6A1B
:105760009A42D4D2D4E70027D2E70C4B4FF0FF3255
:105770001A60BBE7094A1360B8E70D4A13680133A2
:10578000136000273846F8BD28760020AC7600204C
:105790008C750020907500206476002060760020D3
:1057A0008875002094750020B076002030760020A7
:1057B0006876002038B5354B1B6843B94FF050036D
:1057C00083F31188BFF36F8FBFF34F8FFEE7FFF7AF
:1057D00081F92E4B1A68013A1A601B68002B4FD1D1
:1057E0002B4B1B680BB900244BE00024294B1B6892
:1057F0001BB3284BDB68DC6804F11800FFF7EFF8F7
:10580000251D2846FFF7EBF8E06A01238340224A72
:1058100011680B43136000EB800029461F4B03EB1C
:105820008000FFF7B8F8E26A1D4B1B68DB6A9A42FA
:10583000DCD31C4B01221A60D8E70CB1FFF7F4FC53
:10584000194B1C6884B9174B1C68D4B14FF0E02386
:105850004FF08052C3F8042DBFF34F8FBFF36F8F0B
:1058600001240EE0013C07D0FFF718FF0028F9D013
:105870000C4B01221A60F5E70B4B00221A60E2E79D
:105880000024FFF749F9204638BD00BF28760020E4
:10589000207600206C760020307600209475002061
:1058A00088750020B07600206876002010B5A8B179
:1058B0000446104B1B6843B14FF0500383F311882B
:1058C000BFF36F8FBFF34F8FFEE7FFF7DFFE0021BF
:1058D0002046FFF7DBFDFFF76DFF48B94FF0E023EF
:1058E0004FF08052C3F8042DBFF34F8FBFF36F8F7B
:1058F00010BD00BF28760020204B1B681BB1204B39
:1059000001221A6070471E4B00221A601D4B1B6853
:10591000B3FA83F3DBB2C3F11F0303EB83018A0005
:1059200019498A5842B94FF0500383F31188BFF3E5
:105930006F8FBFF34F8FFEE7134903EB83008200A5
:105940000A4450684068506003EB830C4FEA8C02B5
:1059500008321144884209D003EB83039A000A4BB2
:1059600013445B68DA68094B1A6070474068624606
:105970009100054A0A445060EEE700BF28760020F7
:10598000B0760020307600209475002088750020C5
:1059900038B50446FFF79EF85CB3251D2846FFF78F
:1059A0001EF868B9E26A02EB82039B002B49CB58D0
:1059B00033B9012393402A490A6822EA03020A60A4
:1059C000A36A1BB104F11800FFF709F8294625481E
:1059D000FEF7E1FF94F85030DBB2012B0CD0FFF75B
:1059E0009BF8214B1B685BB9204B1B68A3420ED070
:1059F00038BD1E4B1C68D0E7002384F85030EEE71A
:105A0000FFF768F8FFF710FCFFF786F8ECE7164B96
:105A10001B68B3B1164B1B6843B14FF0500383F3BF
:105A20001188BFF36F8FBFF34F8FFEE74FF0E02376
:105A30004FF08052C3F8042DBFF34F8FBFF36F8F29
:105A4000D6E7084B1A680B4B1B689A4203D1074BE9
:105A500000221A60CCE7FFF74FFFC9E794750020DA
:105A60003076002084760020807600208875002023
:105A7000287600202076002038B5C368DC6824B37F
:105A800004F118052846FEF7AAFF184B1B682BBB2C
:105A9000251D2846FEF7A3FFE06A01238340144A30
:105AA00011680B43136000EB80002946114B03EB98
:105AB0008000FEF770FFE26A0F4B1B68DB6A9A42B8
:105AC00011D901200D4B186038BD4FF0500383F3FE
:105AD0001188BFF36F8FBFF34F8FFEE72946084849
:105AE000FEF759FFE7E70020EEE700BF2876002029
:105AF000307600209475002088750020B076002054
:105B00006C760020054B1B6833B1054B1B680BB14D
