:020000040800F2
:10000000300600200101000877200008151D0008B7
:100010007520000891020008152700080000000064
:1000200000000000000000000000000001240008A3
:100030009302000800000000392200080324000891
:100040001B0100081B0100081B0100081B01000820
:100050001B0100081B0100081B0100081B01000810
:100060001B0100081B0100081B0100081B01000800
:100070001B0100081B0100081B0100081B010008F0
:100080001B0100081B0100081B0100081B010008E0
:100090001B0100081B0100081B0100081B010008D0
:1000A0001B0100081B0100081B0100081B010008C0
:1000B0001B0100081B0100081B0100081B010008B0
:1000C0001B0100081B0100081B0100081B010008A0
:1000D0001B010008092700081B0100081B0100087C
:1000E0001B0100081B0100081B010008DFF80CD0F1
:1000F00000F052F800480047E528000830060020CC
:100100000648804706480047FEE7FEE7FEE7FEE7B1
:10011000FEE7FEE7FEE7FEE7FEE7FEE77F240008D6
:10012000ED00000840EA01039B0703D009E008C97D
:10013000121F08C0042AFAD203E011F8013B00F8AC
:10014000013B521EF9D27047D2B201E000F8012BF8
:10015000491EFBD270470022F6E710B513460A4647
:1001600004461946FFF7F0FF204610BD30B50B4698
:10017000014600202022012409E021FA02F59D42D7
:1001800005D303FA02F5491B04FA02F52844151EAB
:10019000A2F10102F1DC30BD064C074D06E0E0683B
:1001A00040F0010394E8070098471034AC42F6D3BE
:1001B000FFF7A0FF842A0008A42A000870B50446AF
:1001C00000688168C943C90717D1816821F001011E
:1001D000816000F063FC05460AE000BF00F05EFCB1
:1001E000401B022804D920688068C043C00706D09D
:1001F00020688068C043C007F0D0002070BDA06AAE
:1002000040F01000A062E06A40F00100E0620120CE
:1002100070BD0000F8B500260446009600688168AD
:10022000C943C9072DD0816841F00101816016489A
:1002300016490068B0FBF1F000E0401E0090002875
:10024000FBD100F02BFC054616E000BF00F026FCB9
:10025000401B022810D920688068C043C0070BD01B
:10026000A06A40F01000A062E06A40F00100E06285
:1002700084F824600120F8BD20688068C043C0076E
:10028000E4D10020F8BD00003000002040420F0003
:10029000FEE7704772B6FEE70FB40EB569461098D8
:1002A0000090012001900020029004A800F040F886
:1002B00004A800F017FA0A2104A800F075F904A8B0
:1002C00000F0B4F803B080B25DF814FB2DE9F04300
:1002D00095B000250E4681462C46144F0DF134088A
:1002E0001BE02822114909A8FFF71CFFB86A1390E8
:1002F000F86A1490202241466846CDF82090FFF716
:1003000011FF0DF1240C9CE80F00FFF7C5FF054419
:10031000012000F0B7FA641CE4B2B442E1D3B5FBAB
:10032000F6F015B080B2BDE8F08300003800002080
:10033000F8B50024009490F824202546012A12D014
:10034000012280F824204A681F23072A0DD206685C
:10035000776B521E02EB820293409F430B689340DF
:100360001F43776319E00220F8BD06680D2A0AD200
:10037000376BD21F02EB820293409F430B6893407E
:100380001F43376309E0F76A0D3A02EB820293409C
:100390009F430B6893401F43F7620A680723066870
:1003A0000A2A0AD3F7680A3A02EB420293409F43B3
:1003B0008B6893401F43F76008E0376902EB420205
:1003C00093409F438B6893401F4337610A68102A0C
:1003D00001D0112A20D1124B02689A4217D193689A
:1003E0001B0219D4936843F4000393600968102931
:1003F00012D10C490C4A0968B1FBF2F101EB810101
:10040000490000E0491E00910029FBD104E0816A07
:1004100041F020018162012480F824502046F8BD7B
:10042000002401403000002040420F000068C06CF2
:10043000704700002DE9F0414FF0000704003D46F1
:100440007ED0A06A002628B9E66284F8246020469F
:1004500000F07EF82046FFF7B1FEA16A01F010011E
:10046000014304D0A06A40F01000A06268E0A16AD5
:1004700021F4885141F00201A1626268E169237BA5
:100480000A4347EA43010A43A1684FF48077B9421F
:1004900008D0012906D0002194F814C0BCF1010F46
:1004A00002D00AE03946F7E7F3B1A36A43F020032C
:1004B000A362E36A43F00103E3622368D3F804C054
:1004C0002CF4694C4CEA010CC3F804C02368996809
:1004D000DFF870C001EA0C0111439960A168B942CC
:1004E0000BD0012909D00CE0DFF85CC0A3690CEB4C
:1004F00043330B4343F40061DFE7218A0D05A5F583
:1005000080152168CB6A23F470032B43CB622168EA
:1005100089680E4B1940914208D1E662A16A21F028
:10052000020141F00101A162BDE8F081A06A20F062
:10053000020040F01000A062E06A40F00100E062BA
:100540000120F1E7FDF7E1FF00E0FFFFFE0E1FFFD6
:1005500000B585B0002100910191029103910068DE
:100560000E49884218D10E48816941F400718161B9
:10057000816901F400710491816941F00401816194
:100580008069694600F0040004900F200090032069
:100590000190044800F088F905B000BD0024014036
:1005A00000100240000801402DE9F84300270D46E5
:1005B0000446009700F072FA804620688168C905F9
:1005C00008D5A06A40F02000A06284F824700120C1
:1005D000BDE8F8834168C90503D4C06A10F4700F00
:1005E0002AD0022000F0F8FA3B490968B1FBF0F686
:1005F0002068036939490B424FEA61014FEAA112B1
:100600001FD1C3684FEA611C13EA0C0F19D10369AB
:100610000B4225D1C068104222D1142023E0681C6F
:100620000AD02DB100F03AFAA0EB0800A84203D995
:1006300020680068800725D5206800688007EED50F
:100640002DE003690B4202D1C168114206D0026954
:1006500023490A4206D1C068084203D1542002E06F
:10066000292000E0FC204643009816E0681C11D0C9
:100670002DB100F013FAA0EB0800A8420AD90098A7
:10068000B04207D2A06A40F00400A06284F824704F
:1006900003209DE70098401C0090B042E6D32168FB
:1006A0006FF012000860A06A40F40070A062206839
:1006B0008068C0F3424007280CD1207B50B9A06A63
:1006C00020F48070A062A06AC00403D4A06A40F045
:1006D0000100A06200207BE7300000202449922422
:1006E0004992240070B5044690F8240001280DD0EA
:1006F000012084F824002046FFF78CFD02004FF013
:10070000000005D084F82400104670BD022070BDA2
:10071000A16A40F20123994341F48071A1621F4D07
:1007200023681F49AB4218D10E6816F4702F14D0FD
:10073000A66A46F48016A6620E68760505D5A66AF6
:1007400026F4005646F48056A662A66AF6040AD538
:10075000E66A26F00606E66206E0A66A26F4801639
:10076000A6625E68E9E7E06284F824006FF00200A8
:10077000186020688368C3F34243072B05D1A84261
:1007800008D1096811F4702F04D0816841F48011F8
:100790008160B9E7816841F4A001F9E700280140D0
:1007A0000424014010B590F821100022022905D040
:1007B0000421816380F82020012010BD01680B68AE
:1007C00023F00E030B6001680B6823F001030B603C
:1007D00090F84030C46B012101FA03F3636080F8A4
:1007E000211080F82020104610BD000010B590F8B0
:1007F00021100024022903D00421816301243DE05B
:1008000001680A6822F00E020A6001680A6822F094
:1008100001020A601A4A0168914201D1012121E0D6
:10082000174A1432914201D110211BE0144A283298
:10083000914201D1891515E0114A3C32914201D112
:1008400089140FE00E4A5032914202D14FF48031A8
:1008500008E00B4A6432914202D14FF4801101E06A
:100860004FF08071064A083A5160012180F821104A
:10087000002180F82010416B01B18847204610BD4F
:100880000800024070B5044600F008F90546601CF7
:1008900002D004480078044400F000F9401BA04254
:1008A000FAD370BD240000202DE9F84FDFF8B8918D
:1008B0000024A9F1040B23460F2709F1040AABF128
:1008C000040EC9E00125A5402A40AA427DD1674E09
:1008D000D1F804C0ACEB0608B44532D014DCBCF14E
:1008E000030F3AD009DCBCF1000F2AD0BCF1010F94
:1008F0001CD0BCF1020F31D11DE0BCF1110F17D09B
:10090000BCF1120F2AD119E0B8F5881F19D006DC06
:10091000B8F5803F15D0B8F5801F1FD111E0B8F5AC
:10092000001F0ED0B8F5041F18D10AE0CB6815E0FF
:10093000CB681B1D12E0CB6808330FE0CB680C338B
:100940000CE08B682BB1012B4FF0080303D04561FD
:1009500004E0042302E0056100E00023FF2A01D83F
:10096000064601E000F104064FEA840501D9A5F12D
:100970002005D6F8008007FA05FC28EA0C0803FADF
:1009800005F548EA0508C6F800804D68ED0062D517
:10099000374DAE6946F00106AE61AD6924F003063D
:1009A00005F001050095334D06EB050CDCF8085009
:1009B000A607360F07FA06F825EA0805DFF8B8801B
:1009C000404503D14FF0000817E044E0DFF8AC8069
:1009D000404502D14FF001080FE0DFF8A480404508
:1009E00002D14FF0020808E0DFF89880404502D1BC
:1009F0004FF0030801E04FF0040808FA06F848EA4F
:100A00000508CCF808804D68D9F80060ED024D4625
:100A100001D5164300E096432E604D68DAF8006079
:100A2000AD02554601D5164300E096432E604D6851
:100A3000DBF80060AD035D4601D5164300E0964348
:100A40002E604D68DEF80060ED03754601D5164353
:100A500000E096432E60641C0D682A46E5407FF452
:100A600031AFBDE8F88F000008040140000011100C
:100A7000001002400000014000080140000C01404D
:100A800000100140001401408068084000D001209F
:100A900070470AB1016170470904FBE701488068AB
:100AA0007047000024000020024881680278114449
:100AB0008160704724000020074810B5016841F0AC
:100AC00010010160032000F075F80F2000F006F817
:100AD00000F024F8002010BD0020024070B50D4D3C
:100AE00004464FF47A712878B1FBF0F00A4909689E
:100AF000B1FBF0F000F091FE48B9102C07D20022B3
:100B00002146501E00F036F800206C6070BD0120B8
:100B100070BD000024000020300000200C4808B503
:100B2000816941F001018161816901F00101009158
:100B3000C16941F08051C161C06900F080500090EE
:100B40000448416821F0E06141F00071416008BD56
:100B50000010024000000140002809DB00F01F02E5
:100B6000012191404009800000F1E020C0F800110F
:100B700070470000F0B40E4B1B680C46C3F3022311
:100B8000C3F10705042D00D90425191D072901D239
:100B9000002300E0DB1E012606FA05F1491E214074
:100BA00099409E40761E16403143F0BC01F0C4BD12
:100BB0000CED00E0064900F0070208684FF6FF035D
:100BC000184040EA0220034A1043086070470000C2
:100BD0000CED00E00000FA0510B501460020234CA2
:100BE000012922D0022939D010291DD1616822683B
:100BF000D20119D51E48C1F38342C903805C0AD5CE
:100C000061681B4AC1F34041921E515C194AB2FB14
:100C1000F1F1484301E0184948436168490203D4AF
:100C200040000321B0FBF1F010BD226AC2F30121A4
:100C3000012903D1920701D5C80310BD022905D1AE
:100C4000626A920702D549F6404010BD0329FCD1E3
:100C500021688903F9D54FF2244010BD00F02AF92C
:100C60006168C1F38131491C4900DBE70010024093
:100C70005C2A000800127A0000093D002DE9F843C3
:100C800005460078354CC00754D0E0690026C00006
:100C900008D4E06940F08050E061E069012600F08E
:100CA000805000902E480168C90512D40168804622
:100CB00041F480710160FFF7F1FE074605E000BFD7
:100CC000FFF7ECFEC01B642823D8D8F80000C0054D
:100CD000F6D5206A10F4407021D0A98801F4407143
:100CE00081421CD0206A1F49012220F440700A6012
:100CF00000220A602062C00711D0FFF7CFFE07462E
:100D000041F2883808E000BFFFF7C8FEC11B41452B
:100D100002D90320BDE8F883206A8007F4D5206A51
:100D2000696820F44070084320621EB1E06920F039
:100D30008050E0612878800705D56068A96820F4B4
:100D40004040084360602878C00605D56068E968BF
:100D500020F48000084360600020DBE700100240C0
:100D600000700040400442422DE9F0470F46050064
:100D700061D0434E306800F00700B84209D23068B5
:100D800020F0070038433060306800F00700B842B8
:100D900051D128683B4C810712D5400703D56068C4
:100DA00040F4E06060602878000703D5606840F494
:100DB000605060606068A96820F0F00008436060DF
:100DC0002878C00728D06868012810D02168022838
:100DD00010D0890700292EDA616821F00301014350
:100DE0006160FFF75BFE804641F288390DE02168C3
:100DF0008903EFE78901EDE7FFF750FEA0EB08015B
:100E0000494502D90320BDE8F0876068696800F0B1
:100E10000C00B0EB810FEFD1306800F00700B84252
:100E20000BD9306820F0070038433060306800F09C
:100E30000700B84201D00120E5E72878400705D532
:100E40006068E96820F4E060084360602878000783
:100E500006D56068296920F4605040EAC1006060EE
:100E600000F038F86168084AC1F30311515CC840CA
:100E70000649086006480068FFF730FE0020C2E718
:100E800000200240001002406C2A000830000020C0
:100E9000280000200448054900684968044AC1F355
:100EA0000221515CC8407047300000200010024011
:100EB0007C2A00080448054900684968044AC1F3CF
:100EC000C221515CC8407047300000200010024031
:100ED0007C2A00080E4A51680E4801F00C03042BCE
:100EE00011D0082B0FD10C48C1F38343C903C05C58
:100EF0000AD55168084AC1F34041921E515C054A27
:100F00005043B0FBF1F0704704494843704700007C
:100F10000010024000127A004A2A000800093D0031
:100F20002DE9F84F040070D02078C04DC00749D09B
:100F30006868C0F38100012807D06868C0F38100A9
:100F4000022809D16868C00306D52868800339D50E
:100F500060680028E7D035E06068B0F5803F0BD0CE
:100F600010B1B0F5A02F11D0286820F4803028608F
:100F7000286820F4802002E0286840F4803028604F
:100F8000606890B1FFF78AFD06460AE0286840F4E1
:100F900080202860F0E700BFFFF780FD801B6428F9
:100FA00073D828688003F7D50CE0FFF777FD064675
:100FB00005E000BFFFF772FD801B6428F0D82868A9
:100FC0008003F7D420789A4E80074FF001094FF044
:100FD000000839D5686810F00C0F07D06868C0F3B6
:100FE0008100022809D16868C00306D428688007F8
:100FF00014D52069012808D110E02069B0B1C6F8E5
:101000000090FFF74BFD074605E00AE1FFF746FDBC
:10101000C01B0228C4D828688007F7D528686169F2
:1010200020F0F80040EAC10028600DE0C6F800801A
:10103000FFF734FD074604E0FFF730FDC01B022830
:1010400023D828688007F7D4207800072CD5794862
:10105000A169D9B1C0F80090FFF720FD074604E070
:10106000FFF71CFDC01B02280FD8686A8007F7D560
:1010700071484FF4FA510068B0FBF1F0009000BFE6
:101080000098411E0091FAD20EE080E0C0F8008086
:10109000FFF704FD074604E0FFF700FDC01B022830
:1010A00075D8686A8007F7D42078400760D5E8696A
:1010B0000027C00008D4E86940F08050E861E86982
:1010C000012700F0805000905C480168C90513D4E6
:1010D0000168834641F480710160FFF7DFFC8246BE
:1010E00006E000BFFFF7DAFCA0EB0A0064284ED848
:1010F000DBF80000C005F5D5E06801280AD008B18A
:10110000052813D0286A20F001002862286A20F000
:10111000040002E0286A40F001002862E06841F221
:10112000883B98B1FFF7BAFC82460BE0286A40F092
:1011300004002862EEE700BFFFF7B0FCA0EB0A0155
:1011400059455AD8286A8007F6D50CE0FFF7A6FC67
:10115000824605E0FFF7A2FCA0EB0A0159454CD8F6
:10116000286A8007F6D41FB1E86920F08050E86152
:10117000E06988B36968C1F38101022944D002287B
:10118000C6F8608004D0FFF789FC044638E034E0FC
:10119000FFF784FC074604E0FFF780FCC01B022831
:1011A0002BD828688001F7D4206AB0F5803F05D19C
:1011B0006868A16820F4003008436860D4E9080139
:1011C0000843696821F4741108436860C6F86090A8
:1011D000FFF764FC044606E025E000BFFFF75EFC75
:1011E000001B022809D828688001F7D51BE000BF42
:1011F000FFF754FC001B022802D90320BDE8F88F3A
:1012000028688001F4D40EE00128F7D06868226ACB
:1012100000F48031914204D1616A00F47010884278
:1012200001D00120EAE70020E8E7000000100240BA
:101230000000424280044242300000200070004022
:1012400070B5040009D0606A002540B12561656170
:10125000A56294F8510040B10CE0012070BD6068B7
:10126000B0F5827FF4D0E561F2E784F85050204673
:1012700000F040F8022084F851002068016821F055
:1012800040010160A088218900F4827001F40441CA
:101290000843A18901F400610843217C01F00201A7
:1012A0000843217D01F001010843218B01F4007105
:1012B0000843217F01F03801084394F8201001F021
:1012C00080010843218D01F4005108432168086022
:1012D000A069042101EA1040216848602068C169C2
:1012E00021F40061C1616565012084F8510000208E
:1012F00070BD000030B585B00024009401940294C4
:10130000039400681549884225D11548C16941F404
:101310008041C161C16901F480410491816941F05A
:101320000801816180690F4D00F0080004904FF4BE
:101330002040009002200190032003906946284637
:10134000FFF7B2FA4FF48040CDE900046946284621
:101350000294FFF7A9FA05B030BD00000038004044
:1013600000100240000C01402DE9F84F044690F8AF
:101370005100984616460F460025012801D0022547
:1013800098E060684FF0040BB0F5827F01D1A0684F
:10139000F8B194F85000012826D04FF0010984F8E4
:1013A0005090FFF77BFB8246002F7FD0002E7DD030
:1013B00084F851B000206065A763A687E6872063A4
:1013C000A086E08620646064A068B0F5004F0DD070
:1013D00016E084F851B013460A462046CDF8008046
:1013E00000F024F9BDE8F88F0220FBE720680168CF
:1013F00021F0400101602068016821F48041016012
:1014000020680168490603D4016841F04001016089
:10141000E068D8B13BE020688168C90709D0007B4B
:10142000A16B0870A06B401CA063E08F401EE0879A
:101430000CE0FFF733FBA0EB0A01414503D3B8F101
:10144000FF3F03D006E0B8F1000F03D0E08F002883
:10145000E1D11FE003252BE020688168C90709D08E
:10146000C068A16B0880A06B801CA063E08F401E49
:10147000E0870CE0FFF712FBA0EB0A01414503D324
:10148000B8F1FF3F03D0E5E7B8F1000FE2D0E08FFD
:101490000028E1D152464146204600F0DFFE08B167
:1014A00020206065606D00E000E008B1012501E0EA
:1014B00084F85190002084F85000284692E72DE9E6
:1014C000F84F044690F850000026984615468A4684
:1014D00001280CD0012784F85070FFF7DFFA81460D
:1014E00094F85100B346012804D002269AE0022065
:1014F000BDE8F88FBAF1000F6FD0002D6DD003203A
:1015000084F85100C4F854B0C4F830A0A586E5862C
:10151000C4F838B0A4F83CB0A4F83EB0C4F844B065
:10152000C4F840B0A068B0F5004F09D12068016848
:1015300021F0400101602068016841F480410160B0
:1015400020680168490603D4016841F04001016048
:10155000E068B0F5006F606803D058B3012D29D062
:1015600049E008B1012D1FD1206B21680088C860B7
:1015700006E020688168890709D5216B0988C16068
:10158000206B801C2063E08E401EE0860CE0FFF79D
:1015900085FAA0EB0901414503D3B8F1FF3F03D021
:1015A00006E0B8F1000F03D0E08E0028E1D125E07D
:1015B000032635E0206B21680078087306E0206878
:1015C000816889070AD5216B09780173206B401C5B
:1015D0002063E08E401EE0860DE01FE0FFF75EFA1C
:1015E000A0EB0901414503D3B8F1FF3F03D0DFE78A
:1015F000B8F1000FDCD0E08E0028E0D14A46414629
:10160000204600F059FE08B120206065A06818B996
:101610002068C16880680090606D08B1012601E013
:1016200084F8517084F850B0304661E72DE9FF4FDF
:1016300081B0044690F8500000260E9F1D46934648
:101640004FF0010901280FD04FF0010A84F850A093
:10165000FFF724FA804694F85100616801280DD004
:10166000B1F5827F08D103E0022005B0BDE8F08F1C
:10167000A16809B9042801D00226C9E0029800280F
:1016800065D0BBF1000FFBD0002DF9D094F85100CC
:10169000042802D0052084F8510000206065C4F8B9
:1016A00038B0E587A58702992163E586A586206481
:1016B000606420680168490603D4016841F0400174
:1016C0000160E068B0F5006F606803D0F0B3012DF1
:1016D00047D081E008B1012D3CD1206B2168008802
:1016E000C860206B801C2063E08E401EE08631E0E5
:1016F0002068816889070FD5E18E69B1B9F1010FC2
:101700000AD1216B0988C160206B801C2063E08EA8
:10171000401EE0864FF0000920688168C9070CD0A0
:10172000E18F51B1C068A16B0880A06B801CA063E1
:10173000E08F401EE0874FF00109FFF7AFF9A0EB03
:101740000800B84206D3781C04D001E009E05BE051
:1017500003265BE0E08E0028CAD1E08F0028C7D1C5
:1017600040E0206B216800780873206B401C2063E8
:10177000E08E401EE0862FE02068816889070FD543
:10178000E18E69B1B9F1010F0AD1216B09780173BA
:10179000206B401C2063E08E401EE0864FF0000965
:1017A00020688168C9070CD0E18F51B1C068A16B76
:1017B0000870A06B401CA063E08F401EE0874FF0D4
:1017C0000109FFF76BF9A0EB0800B84202D3781CBF
:1017D00002D0BAE7002FB8D0E08E0028CCD1E08F3D
:1017E0000028C9D142463946204600F065FD18B1AF
:1017F0000126202060650BE0A06818B92068C16848
:1018000080680090606D08B1012601E084F851A065
:10181000002084F85000304627E710B5401EB0F194
:10182000807F01D3012010BD4FF0E02460610F21C3
:10183000601700F081FF0020A061072020610020D8
:1018400010BD704770470000F8B50168044608688D
:10185000CA684B6910F00F0F4FF000055AD003F023
:10186000010602F49077374365D0C10705D0D10552
:1018700003D5616C41F001016164410705D5D907C9
:1018800003D0616C41F002016164810705D5D9077D
:1018900003D0616C41F004016164010707D502F0D7
:1018A0002001314303D0616C41F008016164616C37
:1018B00000293BD0800604D5900602D5204600F0D2
:1018C0000EFE20684069616CC0F3801001F00801D1
:1018D000014320462BD000F0DBFD20684069400624
:1018E00021D52068143050E8001F21F0400140E865
:1018F0000012002AF5D1E06BA8B16D494163E06B9D
:10190000FEF774FF002811D0E06B416B01B0BDE819
:10191000F040084783060ED593060CD52046BDE857
:10192000F84000F0DCBD2046FFF78CFFF8BDFFF764
:1019300089FF6564F8BD266B2023012E7CD1C60685
:101940007AD5D60678D508684868009048694FF07F
:101950000206400640D5E16B086840680004000CB0
:10196000E8D0A28D8242E5D9E085886920282DD073
:1019700020680C3050E8001F21F4807140E800120C
:10198000002AF5D12168143151E8000F20F0010040
:1019900041E80002002AF5D12068143050E8001F09
:1019A00021F0400140E80012002AF5D184F84230CD
:1019B000256320680C3050E8001F21F0100140E83A
:1019C0000012002AF5D1E06BFEF7ECFE6663A08DF5
:1019D000E18D401A81B22AE0A08DE18D401A81B2DA
:1019E000E08D0028A6D00029A4D022680C3252E84D
:1019F000000F20F4907042E80007002FF5D1206816
:101A0000143050E8002F22F0010240E80027002F98
:101A1000F5D184F84230256320680C3050E8002F5F
:101A200022F0100240E80023002BF5D16663204627
:101A3000FFF707FFF8BDFFE705062BD5150629D5EB
:101A400094F841002128F5D1A068B0F5805F01D15C
:101A50002069B0B1206A411C216221680078486089
:101A6000E08C401E0004000CE084E3D12068C168D3
:101A700021F08001C1602068C16841F04001C1606F
:101A8000D8E7206A0088C0F308004860206A801CFC
:101A90002062E5E74006CDD55006CBD5CA68204682
:101AA00022F04002CA6084F8413000F032F9C1E708
:101AB0008124000870B5040004D094F8410000258A
:101AC00010B106E0012070BD84F84050204600F0BF
:101AD00023F8242084F841002068C16821F40051D3
:101AE000C160204600F05CFD2068016921F490414E
:101AF00001612068416921F02A0141612068C168C3
:101B000041F40051C1606564202084F8410084F8EC
:101B100042006563002070BD30B585B0002400949C
:101B200001940294039400681B49884231D11B48F8
:101B3000816941F480418161816901F480410491AE
:101B4000816941F0040181618069154D00F0040054
:101B500004904FF400700090022001900320039045
:101B600069462846FEF7A0FE2815CDE9000469461F
:101B700028460294FEF798FE002211462520FEF723
:101B8000F9FF2520FEF7E8FF01220649064800F08C
:101B90000DF805B030BD00000038014000100240D3
:101BA0000008014022000020E401002090F84230AB
:101BB000202B01D00220704721B11AB1002303630A
:101BC00000F04ABD012070472DE9F041194C002674
:101BD0004FF480776078FF2823D20121164D2170C1
:101BE000A1782954401C60700122A11C05F5807069
:101BF000FFF7DCFF6078284410F8010CFF2817D1AC
:101C00006878012802D002280BD104E00BA000F074
:101C100083FD0EA003E010A000F07EFD13A000F0F5
:101C20007BFD66703946BDE8F0410348FEF793BA84
:101C3000BDE8F08120000020E400002074312E7403
:101C400078743D224F4B22FFFFFF00006E302E764E
:101C5000616C3D31FFFFFF0074312E7478743D22BA
:101C60006572726F7222FFFFFF0000006E302E76E9
:101C7000616C3D32FFFFFF002DE9F843044690F808
:101C800041001F4616460D46202802D00220BDE81E
:101C9000F8837DB176B100206064212084F8410092
:101CA000FEF7FCFEA6848046E684A068B0F5805F5F
:101CB00002D003E00120EAE7206910B12E4600259A
:101CC0000EE000260CE08021204600F0E0FCA0B9E8
:101CD000AEB116F8010B21684860E08C401EE0842C
:101CE000E08C43464FF0000200970028EBD14FF004
:101CF0004001204600F0CBFC30B10320C7E735F8A7
:101D0000020BC0F30800E6E7202084F84100002021
:101D1000BDE77047FEE700002DE9F05F574E584FD2
:101D2000584D594C4FF001094FF4006A4FF4804B65
:101D30004FF4004810B186F8009001E0307838B3D5
:101D400041462846FEF7A0FE48B351462046FEF71E
:101D50009BFE20B359463846FEF796FEF8B1414641
:101D60003846FEF791FED0B140212846FEF78CFEA2
:101D7000A8B180212846FEF787FE80B101212046C8
:101D8000FEF782FE58B102212046FEF77DFE30B1FB
:101D900041462846FEF778FE012840D06BE00A2035
:101DA000FEF770FD00203070464641462846FEF79B
:101DB0006BFE18B351462046FEF766FE08B359463F
:101DC0003846FEF761FEF0B131463846FEF75CFE5C
:101DD000D8B140212846FEF757FEC0B180212846E1
:101DE000FEF752FEA8B101212046FEF74DFE90B14C
:101DF00002212046FEF748FE78B13CE00120BDE814
:101E0000F09F0220FBE70320F9E70420F7E7052015
:101E1000F5E70620F3E70720F1E70820EFE7514652
:101E20002046FEF731FE012825D159463846FEF7F7
:101E30002BFE01281FD141463846FEF725FE01281A
:101E400019D140212846FEF71FFE012813D1802119
:101E50002846FEF719FE01280DD101212046FEF784
:101E600013FE012807D102212046FEF70DFE0128AE
:101E700001D186F800900020C1E700000A00002090
:101E80000010014000080140000C01403EB5002454
:101E900010480094019402940D4984600160047319
:101EA0000475012505614FF460214460C161FEF7AE
:101EB000C1FA08B1FEF7EEF9CDE9004569460548DB
:101EC0000294FEF735FA002801D0FEF7E3F93EBD93
:101ED00000240140380000202DE9F04786B000249E
:101EE00040480094019402940394816941F01001E8
:101EF0008161816901F010010491816941F0200143
:101F00008161816901F020010491816941F004013E
:101F10008161816901F004010491816941F0080146
:101F200081618069DFF8C0A000F008000490012200
:101F300010215046FEF7ADFDDFF8B09000220421DD
:101F40004846FEF7A6FD0122170339464846FEF72C
:101F5000A0FD4FF40068002241465046FEF799FD6F
:101F60004FF4404001258DE8310069462048FEF7D6
:101F70009BFC10200226CDE90005CDE9024669460A
:101F80005046FEF791FC48F2C0108DE831006946DA
:101F90005046FEF789FC40F603008DE831006946A3
:101FA0004846FEF781FC0420CDE90005CDE9024654
:101FB00069464846FEF778FC032600970396CDE96C
:101FC000015469464846FEF76FFCCDF80080039641
:101FD000CDE9015469465046FEF766FC06B0BDE8FF
:101FE000F08700000010024000080140000C014092
:101FF00000100140104810B50E4901604FF4827185
:10200000416000218160C1604FF400720161C0E94C
:1020100005121022C0E90721416281620A21C162D2
:10202000FFF70EF9002803D0BDE81040FEF732B9E3
:1020300010BD000000380040680000200C4810B5BA
:102040000A4901604FF4E1314160002181600C22B6
:10205000C160C0E904128161C161FFF72BFD002856
:1020600003D0BDE81040FEF715B910BD003801409F
:10207000E4010020FEE7FEE72DE9F0410E4E174691
:10208000884604464FF48055002229463046FEF724
:1020900000FD204600F0D2F804461F233A46414690
:1020A0000648FFF761F9012229463046FEF7F1FCA8
:1020B0002046BDE8F0810000000C014068000020CF
:1020C0002DE9F0410E4E1746884604464FF48055E0
:1020D000002229463046FEF7DCFC204600F0AEF830
:1020E000044610233A4641460648FFF7E8F9012224
:1020F00029463046FEF7CDFC2046BDE8F0810000C1
:10210000000C0140680000201FB50FA10522D1E995
:102110000001CDE9020102A93020FFF7D1FF05221D
:1021200069461020FFF7A8FF002069460A5CA52A2F
:1021300003D1401CC0B20528F8D3052802D00120E5
:1021400004B010BD0020FBE7A5A5A5A5A5000000D3
:1021500070B51D4D4FF40064002221462846FEF75D
:1021600098FC052219493020FFF7AAFF17490522DC
:10217000491D2A20FFF7A4FF0121212000F022F9A8
:102180000121222000F01EF91A21242000F01AF962
:102190000021252000F016F90F21262000F012F969
:1021A0000E21202000F00EF9FF21E12000F00AF9B5
:1021B000FF21E22000F006F921462846BDE87040E4
:1021C0000122FEF766BC000000080140000000206C
:1021D00070B5184C05464FF4006600223146204683
:1021E000FEF757FC20222946A020FFF769FF0122B5
:1021F00031462046FEF74DFCA51529462046FEF740
:1022000043FC0028F9D1072000F066F80446014697
:10221000272000F0D7F8E00605D5FF21E12000F0E7
:10222000D1F8102070BDA00601D5202070BDFF2080
:1022300070BD0000000801407047000001B582B089
:1022400010200090012301AA02A90348FFF7EEF92C
:102250009DF804000EBD000068000020F8B504469B
:1022600040684FF48273984217D1A0684FF480659C
:10227000B0F5004F01D0A8420FD12068066826F0C3
:10228000400606606068984207D1A068A84204D161
:1022900000920B460022012103E000920B4600222F
:1022A0008021204600F032F8002804D0606D40F014
:1022B000200060650320F8BD38B50B460092044647
:1022C0000022802100F022F8002804D0606D40F048
:1022D00020006065032038BD70B50B4E04464FF4F6
:1022E0008055002229463046FEF7D3FB2046FFF7F3
:1022F000A5FFFF20FFF7A2FF044601222946304632
:10230000FEF7C7FB204670BD000C01402DE9F843E5
:102310001E46914688460446089DFEF7BFFB401BBB
:10232000351AFEF7BBFB074625480068C0F3CB30E3
:10233000684338E0701C37D0FEF7B0FBC01BA842E2
:1023400003D215B1009860B32CE02068416821F0F9
:10235000E00141606068B0F5827F0BD1A068B0F504
:10236000004F02D0B0F5806F04D12068016821F0E1
:1023700040010160A06AB0F5005F09D120680168E2
:1023800021F4005101602068016841F400510160AE
:10239000012084F85100002084F850000320BDE89B
:1023A000F8830025401E00902068816838EA01000B
:1023B00004D000214945BDD10020F0E70121F9E713
:1023C000300000202DE9F0410C4E0F4604464FF43A
:1023D0008055002229463046FEF75BFB2046FFF77A
:1023E0002DFF04463846FFF729FF012229463046D3
:1023F000FEF74FFB2046BDE8F0810000000C0140D5
:102400007047FEF751BB30B593B028216846FDF701
:10241000A2FE14210AA8FDF79EFE002501200F95BB
:1024200010951195010412958DE8230004904FF446
:10243000E010CDE90810022407946846FEF770FD0D
:1024400008B172B6FEE70AA90F2081E831004FF407
:102450008060CDE90D0502210AA8FEF785FC08B1D0
:1024600072B6FEE74FF4004011900F940FA8FEF7EC
:1024700005FC002801D072B6FEE713B030BD7047EE
:1024800010B5406A0021C185C184FFF7DBF910BD9A
:1024900001680C3151E8002F22F4907241E80023CA
:1024A000002BF5D10168143151E8002F22F0010210
:1024B00041E80023002BF5D1016B012909D1016806
:1024C0000C3151E8002F22F0100241E80023002BCC
:1024D000F5D1202180F8421000210163704708B532
:1024E00090F84210222901D0022008BD82684FF4E2
:1024F00080539A4201D1016921B1816A9A421BD06D
:102500004AB10AE00268816A5268C2F308020A808E
:10251000816A891C08E0026972B10268526802F09F
:102520007F020A70816A491C8162C18D491E0904BB
:10253000090CC18503D01BE002685268F1E701680D
:10254000CA6822F02002CA600168CA6822F4807258
:10255000CA6001684A6922F001024A61202180F8BC
:10256000421000214163026B012A03D0FFF72CFBCC
:10257000002008BD016301680C3151E8002F22F0F2
:10258000100241E80023002BF5D101680A68D20649
:1025900002D50A6849680091818DFFF752F9E7E793
:1025A00070B5044600680169E26821F440511143A6
:1025B00001612169A0680843616908432168CA680C
:1025C00041F20C639A430243CA6020684169A269E0
:1025D00021F44071114341611E492068884202D1B3
:1025E000FEF768FC01E0FEF755FC00EBC00101EBD3
:1025F0000012606864218000B2FBF0F3B3FBF1F3DA
:102600006FF018067343B2FBF0F5B2FBF0F605EB82
:102610008305322303EB0515B5FBF1F5B6FBF1F6A7
:1026200005F0F00505EB0615B2FBF0F6B2FBF0F095
:10263000B0FBF1F06FF01802504306EB800003EBA3
:102640000010B0FBF1F0216800F00F002844886012
:1026500070BD00000038014081628285C285002182
:102660004164222180F84210016921B10168CA68E1
:1026700042F48072CA6001684A6942F001024A610C
:102680000068C16841F02001C160002070472DE959
:10269000F041984617460E460446069D27E0681C02
:1026A00025D02DB1FEF7FAF9A0EB0800A8421ED9FB
:1026B00020680C3050E8001F21F4D07140E800126F
:1026C000002AF5D12068143050E8001F21F00101E4
:1026D00040E80012002AF5D1202084F8410084F857
:1026E0004200002084F840000320BDE8F08120680B
:1026F000006836EA000004D00020B842CFD00020A5
:10270000F3E70120F9E700000148FFF79DB800005A
:10271000E4010020FEE700000FB4054B10B503A94B
:10272000044A029800F028F810BC5DF814FB000081
:10273000CD280008340000200907090E002804DB1A
:1027400000F1E02080F80014704700F00F0000F165
:10275000E02080F8141D704702E008C8121F08C16D
:10276000002AFAD170477047002001E001C1121F12
:10277000002AFBD1704700002DE9FF4F89B09B462E
:102780000446002506E025280BD05A460B999047B1
:10279000641C6D1C20780028F5D10DB02846BDE8DA
:1027A000F08F0027B8460122474900E0074314F89C
:1027B000013F203B02FA03F00842F7D120782E288F
:1027C00019D114F8010F47F004072A280ED06FF032
:1027D0002F022078A0F1300109290CD808EB8801DC
:1027E00002EB410100EB0108641CF2E70A98641C4B
:1027F00050F8048B0A9020780028CED0642808D0A6
:10280000692806D075281ED05A460B9990476D1C32
:1028100058E00A994FF00A0901C90A91002802DA22
:1028200040422D2102E0390504D52B218DF82010DE
:10283000012103E0F90704D02021F7E78A4608AE1A
:102840000DE00021FAE70A994FF00A0901C90A913F
:10285000F7E74946FDF78AFC303106F8011D0028EC
:10286000F7D1ADEB060000F12009780701D44FF055
:102870000108C84502DDA8EB090000E00020804601
:10288000002706E008A85A46C05D0B9990476D1CCA
:102890007F1C5745F6DB04E030205A460B999047E1
:1028A0006D1CB8F10001A8F10108F5DC05E016F88F
:1028B000010B5A460B9990476D1CB9F10001A9F123
:1028C0000109F4DC641C65E70928010013B5FF2346
:1028D000012269460248FFF7CFF900981CBD0000AD
:1028E000E4010020FEF7E8F8FFF78DFD4C4D642071
:1028F00028727F206872FFF7EFFAFFF77BFBFFF784
:102900009DFB012247494848FFF750F9FFF7BEFAFF
:10291000FFF7FAFB0028FBD1DFF810B100221021ED
:102920005846FEF7B6F8FFF713FC414C4FF001098B
:102930004FF0FF376FF0010AFF264FF0000800202C
:10294000FFF7EAF92070072819D0082817D00128C6
:1029500012D0052813D0062811D003280FD0042840
:102960000DD025210020FDF7B1FC07EB10106060B1
:10297000FB2806DD666008E085F80490F1E7287121
:10298000EFE7042801DAC4F8048025210120FDF7CF
:102990009DFC09EB1010A060FC2801DDA66003E09F
:1029A000022801DAC4F8088002210320FDF78EFC1A
:1029B00007EB1010E060FB2801DDE66003E0002873
:1029C00001DAC4F80C8002210846FDF77FFC0AEB0F
:1029D00010102061FA2801DD266103E0052801DAE4
:1029E000C4F8108013A06168FFF796FE2079287064
:1029F000207A6870207BA870207CE8700848FFF778
:102A0000E7FB202804D1002210215846FEF741F8A8
:102A10000A20FDF737FFC5F8008085F804808EE7AF
:102A2000C000002022000020E40100200008014036
:102A30000C00002070616765302E68302E76616C66
:102A40003D2564FFFFFF00000102020304050607A5
:102A500008090A0B0C0D0E0F1010010202030405E9
:102A6000060708090A0B0C0D0E0F101000000000DD
:102A7000000000000102030406070809000000002E
:102A800001020304A42A000800000020380000000E
:102A900058270008DC2A000838000020F80500004C
:102AA00068270008FFFFFFFF01FFFFFFFF01010094
:102AB0000000000000000000000000000000000016
:102AC00000000000000000000100000010000000F5
:0C2AD000000000000024F40000000000E2
:04000005080000ED02
:00000001FF
