:020000040800F2
:1000000000000220B52B0008392400083B2400081A
:100010003D2400083F24000841240008000000009F
:100020000000000000000000000000002155000852
:100030004324000800000000C155000825560008B0
:10004000052C0008052C0008052C0008052C0008CC
:10005000052C0008052C0008052C0008052C0008BC
:10006000052C0008052C000845240008052C000874
:1000700051240008052C000861240008052C000804
:1000800071240008052C0008052C0008052C000828
:1000900081240008052C0008052C0008052C000808
:1000A000052C0008052C0008052C0008052C00086C
:1000B000052C0008052C0008052C0008052C00085C
:1000C000052C0008052C0008052C0008052C00084C
:1000D000052C000891240008A12400080925000827
:1000E000052C0008052C0008052C0008052C00082C
:1000F000052C0008052C0008052C0008052C00081C
:10010000052C0008052C0008052C0008052C00080B
:10011000052C0008052C0008052C00087125000896
:10012000052C000881250008052C0008052C000876
:10013000052C0008052C0008052C0008052C0008DB
:1001400091250008052C0008052C0008052C000846
:10015000052C0008A1250008B1250008C1250008CC
:10016000052C0008052C0008052C0008052C0008AB
:10017000052C0008052C0008052C000800000000D4
:08018000052C0008052C000805
:1001C00010B5054C237833B9044B13B10448AFF391
:1001D00000800123237010BDC8090020000000002A
:1001E000F4CD000808B5034B1BB103490348AFF336
:1001F000008008BD00000000CC090020F4CD0008FC
:1002000081F0004102E000BF83F0004330B54FEAC7
:1002100041044FEA430594EA050F08BF90EA020F34
:100220001FBF54EA000C55EA020C7FEA645C7FEAC7
:10023000655C00F0E2804FEA5454D4EB5555B8BFEA
:100240006D420CDD2C4480EA020281EA030382EA5B
:10025000000083EA010180EA020281EA0303362DED
:1002600088BF30BD11F0004F4FEA01314FF4801CC0
:100270004CEA113102D0404261EB410113F0004FD2
:100280004FEA03334CEA133302D0524263EB430389
:1002900094EA050F00F0A780A4F10104D5F1200E27
:1002A0000DDB02FA0EFC22FA05F2801841F1000182
:1002B00003FA0EF2801843FA05F359410EE0A5F156
:1002C00020050EF1200E012A03FA0EFC28BF4CF087
:1002D000020C43FA05F3C01851EBE37101F000453D
:1002E00007D54FF0000EDCF1000C7EEB00006EEB4A
:1002F0000101B1F5801F1BD3B1F5001F0CD34908D4
:100300005FEA30004FEA3C0C04F101044FEA44522A
:1003100012F5800F80F09A80BCF1004F08BF5FEAB1
:10032000500C50F1000041EB045141EA050130BD91
:100330005FEA4C0C404141EB0101013C28BFB1F5A3
:10034000801FE9D291F0000F04BF01460020B1FAEE
:1003500081F308BF2033A3F10B03B3F120020CDAC1
:100360000C3208DD02F1140CC2F10C0201FA0CF09F
:1003700021FA02F10CE002F11402D8BFC2F1200C04
:1003800001FA02F120FA0CFCDCBF41EA0C019040BA
:10039000E41AA2BF01EB0451294330BD6FEA040403
:1003A0001F3C1CDA0C340EDC04F11404C4F12002EE
:1003B00020FA04F001FA02F340EA030021FA04F300
:1003C00045EA030130BDC4F10C04C4F1200220FA57
:1003D00002F001FA04F340EA0300294630BD21FA95
:1003E00004F0294630BD94F0000F83F4801306BF5B
:1003F00081F480110134013D4EE77FEA645C18BF4F
:100400007FEA655C29D094EA050F08BF90EA020FE5
:1004100005D054EA000C04BF1946104630BD91EADD
:10042000030F1EBF0021002030BD5FEA545C05D1E0
:100430004000494128BF41F0004130BD14F580041F
:100440003CBF01F5801130BD01F0004545F0FE4193
:1004500041F470014FF0000030BD7FEA645C1ABFC8
:10046000194610467FEA655C1CBF0B46024650EAFF
:10047000013406BF52EA033591EA030F41F400212B
:1004800030BD00BF90F0000F04BF0021704730B5B1
:100490004FF4806404F132044FF000054FF0000186
:1004A00050E700BF90F0000F04BF0021704730B547
:1004B0004FF4806404F1320410F0004548BF40421C
:1004C0004FF000013EE700BF42004FEAE2014FEA71
:1004D00031014FEA02701FBF12F07F4393F07F4F4C
:1004E00081F06051704732F07F4208BF704793F04F
:1004F0007F4F04BF41F40021704730B54FF4607462
:1005000001F0004521F000411CE700BF50EA010264
:1005100008BF704730B54FF000050AE050EA01020D
:1005200008BF704730B511F0004502D5404261EB7D
:1005300041014FF4806404F132045FEA915C3FF4BE
:10054000D8AE4FF003025FEADC0C18BF03325FEA5B
:10055000DC0C18BF033202EBDC02C2F1200300FA0C
:1005600003FC20FA02F001FA03FE40EA0E0021FA31
:1005700002F11444BDE600BF53B94AB9002908BFCF
:1005800000281CBF4FF0FF314FF0FF3000F074B96E
:10059000ADF1080C6DE904CE00F006F8DDF804E0DA
:1005A000DDE9022304B070472DE9F047089D0446B9
:1005B0008E46002B4DD18A42944669D9B2FA82F216
:1005C00052B101FA02F3C2F1200120FA01F10CFA52
:1005D00002FC41EA030E94404FEA1C48210CBEFB8A
:1005E000F8F61FFA8CF708FB16E341EA034306FB13
:1005F00007F199420AD91CEB030306F1FF3080F0A2
:100600001F81994240F21C81023E63445B1AA4B2EE
:10061000B3FBF8F008FB103344EA034400FB07F790
:10062000A7420AD91CEB040400F1FF3380F00A81D1
:10063000A74240F207816444023840EA0640E41BC6
:1006400000261DB1D4400023C5E900433146BDE872
:10065000F0878B4209D9002D00F0EF800026C5E914
:10066000000130463146BDE8F087B3FA83F6002E2C
:100670004AD18B4202D3824200F2F980841A61EBA4
:10068000030301209E46002DE0D0C5E9004EDDE7C2
:1006900002B9FFDEB2FA82F2002A40F09280A1EBAA
:1006A0000C014FEA1C471FFA8CFE0126200CB1FBFF
:1006B000F7F307FB131140EA01410EFB03F08842F8
:1006C00008D91CEB010103F1FF3802D2884200F285
:1006D000CB804346091AA4B2B1FBF7F007FB101117
:1006E00044EA01440EFB00FEA64508D91CEB0404B5
:1006F00000F1FF3102D2A64500F2BB800846A4EB10
:100700000E0440EA03409CE7C6F12007B34022FAFA
:1007100007FC4CEA030C20FA07F401FA06F31C4329
:10072000F9404FEA1C4900FA06F3B1FBF9F8200C36
:100730001FFA8CFE09FB181140EA014108FB0EF07C
:10074000884202FA06F20BD91CEB010108F1FF3ACC
:1007500080F08880884240F28580A8F102086144D8
:10076000091AA4B2B1FBF9F009FB101144EA0141E6
:1007700000FB0EFE8E4508D91CEB010100F1FF3491
:100780006CD28E456AD90238614440EA0840A0FB29
:100790000294A1EB0E01A142C846A64656D353D0FF
:1007A0005DB1B3EB080261EB0E0101FA07F722FA23
:1007B00006F3F1401F43C5E9007100263146BDE84C
:1007C000F087C2F12003D8400CFA02FC21FA03F3AF
:1007D000914001434FEA1C471FFA8CFEB3FBF7F030
:1007E00007FB10360B0C43EA064300FB0EF69E4255
:1007F00004FA02F408D91CEB030300F1FF382FD2EE
:100800009E422DD9023863449B1B89B2B3FBF7F695
:1008100007FB163341EA034106FB0EF38B4208D96E
:100820001CEB010106F1FF3816D28B4214D9023EAF
:100830006144C91A46EA004638E72E46284605E7CD
:100840000646E3E61846F8E64B45A9D2B9EB02089E
:1008500064EB0C0E0138A3E74646EAE7204694E72E
:100860004046D1E7D0467BE7023B614432E7304661
:1008700009E76444023842E7704700BF844641EA12
:10088000000313F003036DD1403A41D351F8043B08
:1008900040F8043B51F8043B40F8043B51F8043B5A
:1008A00040F8043B51F8043B40F8043B51F8043B4A
:1008B00040F8043B51F8043B40F8043B51F8043B3A
:1008C00040F8043B51F8043B40F8043B51F8043B2A
:1008D00040F8043B51F8043B40F8043B51F8043B1A
:1008E00040F8043B51F8043B40F8043B51F8043B0A
:1008F00040F8043B51F8043B40F8043B51F8043BFA
:1009000040F8043B51F8043B40F8043B403ABDD268
:10091000303211D351F8043B40F8043B51F8043B0A
:1009200040F8043B51F8043B40F8043B51F8043BC9
:1009300040F8043B103AEDD20C3205D351F8043B99
:1009400040F8043B043AF9D2043208D0D2071CBF65
:1009500011F8013B00F8013B01D30B88038060468E
:10096000704700BF082A13D38B078DD010F0030304
:100970008AD0C3F10403D21ADB071CBF11F8013B74
:1009800000F8013B80D331F8023B20F8023B7BE7C3
:10099000043AD9D3013A11F8013B00F8013BF9D2EE
:1009A0000B7803704B7843708B7883706046704788
:1009B00001F0FF01102A2BDB10F0070F08D010F810
:1009C000013B013A8B422DD010F0070F42B3F6D114
:1009D000F0B441EA012141EA014122F007047FF02D
:1009E00000070023F0E80256083C85EA010586EA84
:1009F000010685FA47F5A3FA87F586FA47F6A5FAC0
:100A000087F68EB9EED1F0BC01F0FF0102F00702CB
:100A100032B110F8013B013A83EA010313B1F8D176
:100A20000020704701387047002D06BF3546033857
:100A3000073815F0010F07D1013015F4807F02BF90
:100A4000013015F4C03F0130F0BC0138704700BFE1
:100A50000000000000000000000000000000000096
:100A60000000000000000000000000000000000086
:100A70000000000000000000000000000000000076
:100A800090F800F06DE9024520F007016FF0000CCE
:100A900010F0070491F820F040F049804FF0000476
:100AA0006FF00700D1E9002391F840F000F1080051
:100AB00082FA4CF2A4FA8CF283FA4CF3A2FA8CF389
:100AC0004BBBD1E9022382FA4CF200F10800A4FAF0
:100AD0008CF283FA4CF3A2FA8CF3E3B9D1E9042344
:100AE00082FA4CF200F10800A4FA8CF283FA4CF37B
:100AF000A2FA8CF37BB9D1E9062301F1200182FA35
:100B00004CF200F10800A4FA8CF283FA4CF3A2FA3A
:100B10008CF3002BC6D0002A04BF04301A4612BA48
:100B2000B2FA82F2FDE8024500EBD2007047D1E94B
:100B3000002304F00305C4F100004FEAC50514F0DA
:100B4000040F91F840F00CFA05F562EA05021CBFAB
:100B500063EA050362464FF00004A9E770B54FF061
:100B6000FF0C4CF4E06C1CEA11541DBF1CEA135539
:100B700094EA0C0F95EA0C0F00F0DEF82C4481EAA1
:100B8000030621EA4C5123EA4C5350EA013518BFC1
:100B900052EA033541F4801143F4801338D0A0FBAE
:100BA00002CE4FF00005E1FB02E506F00042E0FB5B
:100BB00003E54FF00006E1FB03569CF0000F18BF61
:100BC0004EF0010EA4F1FF04B6F5007F64F5407409
:100BD00004D25FEA4E0E6D4146EB060642EAC6219C
:100BE00041EA55514FEAC52040EA5E504FEACE2E09
:100BF000B4F1FD0C88BFBCF5E06F1ED8BEF1004F0C
:100C000008BF5FEA500E50F1000041EB045170BD87
:100C100006F0004646EA010140EA020081EA0301CB
:100C2000B4EB5C04C2BFD4EB0C0541EA045170BDC7
:100C300041F480114FF0000E013C00F3AB8014F141
:100C4000360FDEBF002001F0004170BDC4F100048A
:100C5000203C35DA0C341BDC04F11404C4F120050B
:100C600000FA05F320FA04F001FA05F240EA020066
:100C700001F0004221F0004110EBD37021FA04F69C
:100C800042EB06015EEA430E08BF20EAD37070BD56
:100C9000C4F10C04C4F1200500FA04F320FA05F0B5
:100CA00001FA04F240EA020001F0004110EBD370B7
:100CB00041F100015EEA430E08BF20EAD37070BD27
:100CC000C4F1200500FA05F24EEA020E20FA04F300
:100CD00001FA05F243EA020321FA04F001F00041AF
:100CE00021FA04F220EA020000EBD3705EEA430E20
:100CF00008BF20EAD37070BD94F0000F0FD101F04F
:100D00000046400041EB010111F4801F08BF013C87
:100D1000F7D041EA060195F0000F18BF704703F0C5
:100D20000046520043EB030313F4801F08BF013D4C
:100D3000F7D043EA0603704794EA0C0F0CEA135508
:100D400018BF95EA0C0F0CD050EA410618BF52EAC2
:100D50004306D1D181EA030101F000414FF00000C8
:100D600070BD50EA410606BF1046194652EA4306D6
:100D700019D094EA0C0F02D150EA013613D195EA4A
:100D80000C0F05D152EA03361CBF104619460AD192
:100D900081EA030101F0004141F0FE4141F470019C
:100DA0004FF0000070BD41F0FE4141F4780170BD8C
:100DB00070B54FF0FF0C4CF4E06C1CEA11541DBFF1
:100DC0001CEA135594EA0C0F95EA0C0F00F0A7F8F3
:100DD000A4EB050481EA030E52EA03354FEA013120
:100DE00000F088804FEA03334FF0805545EA131333
:100DF00043EA12634FEA022245EA111545EA1065FB
:100E00004FEA00260EF000419D4208BF964244F191
:100E1000FD0404F5407402D25B084FEA3202B61AB0
:100E200065EB03055B084FEA32024FF480104FF484
:100E3000002CB6EB020E75EB030E22BFB61A7546F8
:100E400040EA0C005B084FEA3202B6EB020E75EB8B
:100E5000030E22BFB61A754640EA5C005B084FEAF3
:100E60003202B6EB020E75EB030E22BFB61A7546C0
:100E700040EA9C005B084FEA3202B6EB020E75EBCB
:100E8000030E22BFB61A754640EADC0055EA060E8C
:100E900018D04FEA051545EA16754FEA06164FEACF
:100EA000C30343EA52734FEAC2025FEA1C1CC0D17B
:100EB00011F4801F0BD141EA00014FF000004FF008
:100EC000004CB6E711F4801F04BF01430020B4F1C9
:100ED000FD0C88BFBCF5E06F3FF6AFAEB5EB030C81
:100EE00004BFB6EB020C5FEA500C50F1000041EB7E
:100EF000045170BD0EF0004E4EEA113114EB5C044B
:100F0000C2BFD4EB0C0541EA045170BD41F480111D
:100F10004FF0000E013C90E645EA060E8DE60CEA25
:100F2000135594EA0C0F08BF95EA0C0F3FF43BAF42
:100F300094EA0C0F0AD150EA01347FF434AF95EAF9
:100F40000C0F7FF425AF104619462CE795EA0C0FDD
:100F500006D152EA03353FF4FDAE1046194622E7AA
:100F600050EA410618BF52EA43067FF4C5AE50EA84
:100F700041047FF40DAF52EA43057FF4EBAE12E774
:100F80004FF0FF3C06E000BF4FF0010C02E000BF55
:100F90004FF0010C4DF804CD4FEA410C7FEA6C5C38
:100FA0004FEA430C18BF7FEA6C5C1BD001B050EADB
:100FB000410C0CBF52EA430C91EA030F02BF90EAC6
:100FC000020F0020704710F1000F91EA030F58BF85
:100FD000994208BF90422CBFD8176FEAE37040F0E7
:100FE000010070474FEA410C7FEA6C5C02D150EA85
:100FF000013C07D14FEA430C7FEA6C5CD6D152EA40
:10100000033CD3D05DF8040B704700BF8446104604
:1010100062468C461946634600E000BF01B5FFF703
:10102000B7FF002848BF10F1000F01BD4DF808EDD3
:10103000FFF7F4FF0CBF012000205DF808FB00BFA4
:101040004DF808EDFFF7EAFF34BF012000205DF8FE
:1010500008FB00BF4DF808EDFFF7E0FF94BF01204B
:1010600000205DF808FB00BF4DF808EDFFF7CEFF4C
:1010700094BF012000205DF808FB00BF4DF808ED8B
:10108000FFF7C4FF34BF012000205DF808FB00BF5C
:101090004FEA410C7FEA6C5C02D150EA013C0AD174
:1010A0004FEA430C7FEA6C5C02D152EA033C02D166
:1010B0004FF0000070474FF0010070474FEA4102C7
:1010C00012F5001215D211D56FF47873B3EB62529A
:1010D00012D94FEAC12343F0004343EA505311F0C1
:1010E000004F23FA02F018BF404270474FF0000053
:1010F000704750EA013005D111F0004008BF6FF091
:10110000004070474FF00000704700BF00B585B049
:101110008DF80E1040F6FF73009301230DF10F02BE
:101120000DF10E01054803F0B0F910B1FF238DF861
:101130000F309DF80F0005B05DF804FBCC100020C7
:10114000F8B504460D460B4E00221021304602F041
:1011500027FD094F21463846FFF7D8FF04462946A8
:101160003846FFF7D3FF01221021304602F018FD68
:101170002046F8BD00000240CC10002070B50446A7
:101180000B4D00221021284602F00AFD094E21468F
:101190003046FFF7BBFFFF213046FFF7B7FF04469D
:1011A00001221021284602F0FBFC204670BD00BF42
:1011B00000000240CC100020F8B504460E4615464B
:1011C000002210210C4802F0EBFC21460B48FFF7EF
:1011D0009DFF0746002406E0FF210848FFF796FF21
:1011E00030550134E4B2AC42F6D30122102102485A
:1011F00002F0D6FC3846F8BD00000240CC100020BA
:10120000F8B505460C461646002210210C4802F09F
:10121000C7FC29460B48FFF779FF0746002506E083
:1012200014F8011B0748FFF771FF0135EDB2B54215
:10123000F6D301221021024802F0B2FC3846F8BD74
:1012400000000240CC10002000B583B0124B93E8A0
:10125000030000908DF80410052269463020FFF746
:10126000CFFF052269461020FFF7A6FF0023042BBD
:1012700009D803F108026A4412F8082CA52A02D101
:101280000133DBB2F3E7052B03D1002003B05DF897
:1012900004FB0120FAE700BF04CF000838B505467B
:1012A0000720FFF76BFF044601462720FFF748FFA2
:1012B00014F0400F01D1012038BD052229466120DC
:1012C000FFF77AFFFF21E220FFF73AFF0020F3E764
:1012D00010B51E4C00220121204602F061FC0522BF
:1012E0001B492A20FFF78CFF01212120FFF728FF4F
:1012F00001212220FFF724FF28212520FFF720FFCE
:1013000005213120FFF71CFF0F212620FFF718FFD2
:101310000F212020FFF714FF01221146204602F082
:101320003FFC0720FFF72AFF01462720FFF708FFB1
:10133000002307E0191D074A4FF47A7022F81100C4
:101340000133DBB2072BF5D910BD00BF000402400A
:1013500000000020E409002008B50C48FFF79EFFBC
:1013600090B90A4B19780A4A11705978094A1170D4
:101370009978094A1170D978084A1170084A10788A
:10138000084908701B79137008BD00BF000A0020CF
:10139000FE090020FF090020050A0020060A00209F
:1013A000FC090020FD09002010B5364CFE232370F7
:1013B000EE236370A0700023E370334900EB8002DA
:1013C00001EB0212B2F832C084F804C04FF0FF0CF7
:1013D00084F805C02373D2ED0D7AFEEECC7A17EEB9
:1013E000903A1B126373D2ED0E7A9FED287A67EE66
:1013F000877ABCEEE77A17EE103AA373FDEEE77A30
:1014000017EE903A1B12E373D36B23744FEA232C2D
:1014100084F811C04FEA234C84F812C01B16E37401
:10142000D2ED107A9FED1A7A67EE877ABCEEE77AF2
:1014300017EE103A2375FDEEE77A17EE903A1B127D
:101440006375D2ED117A9FED137A67EE877ABCEE61
:10145000E77A17EE103AA375FDEEE77A17EE903AA9
:101460001B12E3750721204600F00AFA0A4B1860A8
:10147000030E84F82130030C84F82030030AE3774C
:10148000A07710BDB00A0020100A00200000004321
:101490000000004500008044080A002010B5124CEE
:1014A00000EB800204EB02124FF00A0CA2F832C0EB
:1014B0004FF0000CC2F834C0C2F838C0C2ED110AB7
:1014C00082ED100A094A52F820200A4400EB8003FA
:1014D00004EB0313DA63FFF767FF22220449054890
:1014E00003F0AEFB10BD00BF100A0020F80A002078
:1014F000B00A0020D414002010B5104CFE23237035
:10150000EE236370A0700023E3702371FF236371E7
:101510000721204600F0B4F9094B1860030E84F847
:101520002130030C84F82030030AE377A0772222CD
:101530002146044803F084FB10BD00BFD40A0020FC
:10154000080A0020D4140020034608468B4204DC1D
:10155000934201DB18467047104670477047000001
:1015600008B50F480F4B03600323436000238360DB
:10157000C3604FF4C02202614FF4A00242610376BF
:1015800043768376C3760377437701F069FB18B916
:10159000034800F0BFF808BD00F06CFDF8E700BF9D
:1015A000140B00200064004008B50F480F4B036087
:1015B0000323436000238360C3604FF4C0220261B1
:1015C0004FF4A0024261037643768376C3760377B5
:1015D000437701F045FB18B9034800F09BF808BDBC
:1015E00000F048FDF8E700BF3C0B00200068004019
:1015F00010B58AB0002305930693079308930993C7
:1016000003683E4A934204D03D4A934236D00AB022
:1016100010BD3C4A136801331360012B21D0002414
:101620000194394B1A6B42F001021A631B6B03F0F1
:1016300001030193019B4FF4C053059302230693CA
:10164000032308930923099305A9304802F0B6F94A
:1016500022460521142001F005FF142001F03CFF73
:10166000D5E700230093284B1A6C42F000721A64ED
:101670001B6C03F000730093009BD0E700230293E0
:10168000214B1A6C42F080621A641B6C03F0806379
:101690000293029B1B4A136801331360012B20D075
:1016A00000240494184B1A6B42F002021A631B6B5D
:1016B00003F002030493049B602305930223069323
:1016C000032308930923099305A9114802F076F929
:1016D00022460521402001F0C5FE402001F0FCFE1D
:1016E00095E700230393084B1A6C42F000721A64CA
:1016F0001B6C03F000730393039BD1E7006400406D
:1017000000680040100B002000380240000002403A
:101710000004024010B58AB004461C4B984223D006
:101720001B4B984223D0002306930122079200937B
:1017300001930293039304930E230993089269463D
:10174000204601F033FBA8B9204601F0CBFBA0B93D
:101750000221204601F030FD90B90121204601F020
:101760002BFD80B90AB010BD00230593DBE70E23E3
:101770000593D8E700F07EFCE6E700F07BFCE7E7A6
:1017800000F078FCE9E700F075FCEBE7140B0020B3
:101790003C0B002008B50D4B40F201121A600022EC
:1017A0009A60DA6004221A61094B1870094801F046
:1017B00045FC0028FAD0084B054A0449054801F0C9
:1017C000BFFB00B908BD00F055FCFBE7B40B0020DF
:1017D000940B0020140B0020D00B002008B50D4BFB
:1017E0004FF480721A6000229A60DA6001221A6156
:1017F000094B1870094801F021FC0028FAD0084B69
:10180000054A0449054801F09BFB00B908BD00F0FA
:1018100031FCFBE79C0B00208C0B0020140B0020FC
:10182000CC0B002008B5114B984203D0104B9842C6
:101830000ED008BD0F4B104A002101F018FC0F4BD1
:1018400018700A4B1A68536943F002035361F0E7BA
:10185000084B094A002101F00AFC084B1870044BA0
:101860001A68536943F002035361E2E73C0B00201E
:10187000140B0020680B0020700B0020640B00206C
:1018800030B505468E464FF0FF304FF0000C17E0A4
:10189000104C84EA400006E0520801331F2B0DD89B
:1018A0000028F5DB40000A42F6D080F0986080F412
:1018B0008E3080F4DB7080F00100EDE70CF1010C5C
:1018C000F44505D255F82C104FF000420023E5E70F
:1018D00030BD00BFB71DC10410B582B00024009414
:1018E000224B1A6B42F480021A631A6B02F48002D4
:1018F0000092009A01941A6B42F400121A631B6B57
:1019000003F400130193019B224605210C2001F0F2
:10191000A9FD0C2001F0E0FD224605210E2001F07A
:10192000A1FD0E2001F0D8FD22460521102001F076
:1019300099FD102001F0D0FD22460521392001F04B
:1019400091FD392001F0C8FD22460521452001F016
:1019500089FD452001F0C0FD22460521462001F009
:1019600081FD462001F0B8FD02B010BD00380240F4
:1019700008B50A2003F01EFDFBE7000008B501E0F2
:10198000FFF7A6FCFFF760FC0028F9D10B4800F038
:1019900069FC0020FFF7B0FD322003F00BFD0220B0
:1019A000FFF7AAFD322003F005FD322003F002FD0F
:1019B0004FF40041024802F0F9F8F6E76CCF000856
:1019C0000014024008B519E0114B1888A0F57A7090
:1019D00000EB8000C0000F4C2060002249F6580147
:1019E000FFF7B2FD01462060F0EE000A9FED0A0A03
:1019F0000220FFF753FD0A2003F0DCFC002204491B
:101A0000064B186804F04AFB0128DDD0F3E700BF5D
:101A1000FA0B0020FC0B00200AD7233C0C0C002002
:101A200008B500F0BBFAC82003F0C4FC00F0C0FA0F
:101A3000002005F005F8F4E708B52FE0234B1868FF
:101A400004F0FEFD2AE0224B1B7843B1012B25D187
:101A50000020FFF79FFE1E4B00221A701EE01C2084
:101A6000FFF798FE1A4B01221A7017E019496423F8
:101A70000B8000231A461848006804F035F90DE081
:101A800014494FF69C730B8000231A4612480068D5
:101A900004F02AF902E00A2003F08CFC00220F492E
:101AA0000F4B186804F04BFA0128F4D10B4B1B784C
:101AB000032BF3D801A252F823F000BF3D1A00080F
:101AC000471A00086D1A0008811A0008E80B002068
:101AD000F80B0020780E0020F00B0020000C0020F6
:101AE000040C002008B500F06DFA4FF4FA7003F012
:101AF00061FC2120FFF772FE4FF47A7003F05AFC6C
:101B00003120FFF76BFE4FF47A7003F053FC4FF473
:101B1000FA7003F04FFC2220FFF760FE4FF4FA70DA
:101B200003F048FC00F058FA4FF4967003F042FCC2
:101B30002120FFF753FE4FF47A7003F03BFC322074
:101B4000FFF74CFE4FF47A7003F034FC2320FFF7CC
:101B500045FE002004F074FFC5E7000008B500232F
:101B6000C82219469FED281ADFED280A9FED280AA2
:101B7000284800F0F1FA35E0274A284BB3F9003045
:101B800011680B44136035E0234C254D2B882068E9
:101B9000C01A244E3060244A41F28831FFF7D4FC49
:101BA000306046F660532A8821681A4800F0EBFA44
:101BB0001E4E3368184430601D4A46F66051FFF7E8
:101BC000C3FC01463060F0EE080A9FED1A0A0020BF
:101BD000FFF764FC2A882168174800F043FB0120C6
:101BE00003F0E8FB00220D49144B186804F0A7F934
:101BF0000128C1D000220A49114B186804F09FF94E
:101C00000128C1D0EBE700BF9A99193E6F12033A41
:101C1000CDCC4C3D880E0020080000207A0E00201C
:101C20001C0C0020180C002078ECFFFFF40B0020A7
:101C3000A092FFFF8FC2753C7CCF0008F00B002004
:101C4000200C0020034B0360034B0B6080231360C8
:101C5000704700BF240E0020240C00202DE9F04323
:101C6000CFB06A4C4AAD94E80F0085E80F00002120
:101C7000284603F0A6FB664B186046AE04F110053B
:101C800095E80F0086E80F000021304603F099FB2D
:101C9000604B186042AE95E80F0086E80F00002107
:101CA000304603F08EFB5C4B18603EAE95E80F00AB
:101CB00086E80F000021304603F083FB574B186085
:101CC0003AAE95E80F0086E80F000021304603F099
:101CD00078FB534B186036AE95E80F0086E80F008E
:101CE0000021304603F06DFB4E4B186032AD04F11D
:101CF00020030FCB85E80F000021284603F061FB8D
:101D0000494B18602BAD04F130060FCE0FC596E895
:101D1000070085E8070000212BA803F016FB434BC2
:101D2000186024AD04F14C060FCE0FC596E80700ED
:101D300085E80700002124A803F007FB3C4E306033
:101D40001DAD04F168070FCF0FC597E8070085E8C0
:101D5000070000211DA803F0F8FA364F386016ADD1
:101D600004F1840CBCE80F000FC59CE8070085E86F
:101D70000700002116A803F0E8FA2F4B18600FADFA
:101D800004F1A00CBCE80F000FC59CE8070085E833
:101D9000070000210FA803F0D8FADFF8A480C8F8E4
:101DA000000008AD04F1BC0CBCE80F000FC59CE8B6
:101DB000070085E80700002108A803F0C6FADFF84D
:101DC0008490C9F8000001ADD8340FCC0FC594E859
:101DD000070085E80700002101A803F0B6FA174CB8
:101DE0002060386804F02CFED8F8000004F028FECB
:101DF000306804F025FED9F8000004F021FE2068C8
:101E000004F01EFE4FB0BDE8F08300BF10CE000806
:101E1000040C0020200C0020100C0020140C0020CA
:101E2000080C00200C0C0020F00B0020DC0B002024
:101E3000E40B0020E80B0020D80B0020E00B002072
:101E4000EC0B0020D40B00202DE9F04F8DB00024C6
:101E50000794089409940A940B940194494B1A6BC3
:101E600042F080021A631A6B02F080020192019A1A
:101E700002941A6B42F001021A631A6B02F001021B
:101E80000292029A03941A6B42F004021A631A6BCC
:101E900002F004020392039A04941A6B42F00202C5
:101EA0001A631A6B02F002020492049A05941A6BE8
:101EB00042F020021A631A6B02F020020592059A82
:101EC00006941A6B42F040021A631B6B03F0400346
:101ED0000693069BDFF8B8B022461021584601F061
:101EE0005FFEDFF8B09001221146484601F058FE2F
:101EF000DFF8A48022464FF44041404601F050FEF6
:101F0000214F22460321384601F04AFE4FF0100AC5
:101F1000CDF81CA001250895099403260A9607A967
:101F2000584601F04BFDCDF81CA04FF40413089364
:101F3000099507A9154801F041FD079508950994F1
:101F40000A9607A9484601F039FD4FF4404307932C
:101F5000089509940A9407A9404601F02FFD0796B9
:101F6000089509940A9407A9384601F027FD2246EE
:101F700005210A2001F076FA0A2001F0ADFA0DB031
:101F8000BDE8F08F0038024000180240000802400F
:101F900000000240000402400014024008B5012283
:101FA0000221024801F0FCFD08BD00BF00180240FC
:101FB00008B500220221024801F0F2FD08BD00BF71
:101FC0000018024008B501221146024801F0E8FD60
:101FD00008BD00BF0018024008B5002201210248D8
:101FE00001F0DEFD08BD00BF001802400378502B51
:101FF00000D070474378472BFBD18378C27843EAFF
:102000000223027943EA0243427943EA026307EE7C
:10201000903AF8EEE77AC1ED007A8379C27943EA23
:102020000223027A43EA0243427A43EA026307EE5A
:10203000903AF8EEE77AC1ED017A837AC27A43EA00
:102040000223027B43EA0243427B43EA026307EE38
:10205000903AF8EEE77AC1ED027ACAE708B502686D
:10206000034B9A4200D008BD00F0E8FDFBE700BF3B
:102070000014004072B6FEE700B595B03022002192
:1020800008A804F097FE0023039304930593069396
:1020900007930193204A116C41F080511164126C36
:1020A00002F080520192019A02931C4B1A6842F48A
:1020B00080421A601B6803F480430293029B012351
:1020C00008934FF48033099302220E924FF4800359
:1020D0000F9304231093A82111911292139308A82F
:1020E00001F07CFD98B90F2303930223049300238E
:1020F00005934FF4A05306934FF4805307930521A3
:1021000003A801F0D1FF20B915B05DF804FBFFF77B
:10211000B1FFFFF7AFFF00BF003802400070004082
:1021200008B500F071FDFFF7A7FFFFF78DFEFFF781
:10213000D3FBFFF715FAFFF737FA00F0AFF800F01E
:102140001DFB00F081FB00F033FB00F057FBFFF7B5
:1021500085FD03F0F5F8FEE78163C263036480ED5B
:10216000050AC0ED060A80ED071A002303604360EC
:102170008360C360036103634363002202624262BF
:102180008262C362704730B401604260891A816024
:10219000C26B002A4DD081EAE174A4EBE174A24243
:1021A00038DA00220263C2688A1A4263046C14B1EE
:1021B000A2424DDD4463D0ED057A07EE101AB8EE69
:1021C000C77A27EE277A80ED087AD0ED067AD0ED2F
:1021D0000C6AF8EEE66A66EEA76AC0ED096A90ED51
:1021E000076AD0ED0D7AF8EEE77A67EE867AC0EDF1
:1021F0000A7A37EE267A77EE877AFDEEE77A17EEDF
:10220000902AC0ED0B7AC1609A4226DDC362C06A93
:1022100030BC7047026B0A440263846B002CC2D04E
:102220006542AA4201DA0563BDE7A242BBDD046351
:10223000B9E7026B0A440263846B002CB3D0654299
:10224000AA4200DA0563026B9442ACDA0463AAE79F
:102250006442A242AFDA4463ADE75B429A42D6DA07
:10226000C362D4E70FB410B582B004AB53F8042BAB
:102270000193084C4FF40071204604F0EDFD82B24A
:102280002146054802F0DCFC02B0BDE8104004B075
:10229000704700BFCC0E00200814002008B50E487F
:1022A0000E4B03604FF48273436000238360C3606E
:1022B000036143614FF4007282611022C2610362C4
:1022C000436283620A23C36202F080F800B908BD4A
:1022D000FFF7D0FEFBE700BFCC100020003001402C
:1022E00000B589B0002303930493059306930793E5
:1022F0000268154B9A4202D009B05DF804FB002138
:10230000019103F584335A6C42F480525A645A6C3A
:1023100002F480520192019A02911A6B42F001027A
:102320001A631B6B03F001030293029BE0230393E8
:1023300002230493032306930523079303A9034869
:1023400001F03CFBD8E700BF003001400000024034
:1023500000B583B0002200920D4B596C41F48041CE
:102360005964596C01F48041009100990192196CF3
:1023700041F0805119641B6C03F080530193019B61
:102380000F216FF0010001F06DF803B05DF804FB60
:102390000038024030B589B0044600230193214B38
:1023A0001A6C42F020021A641B6C03F020030193A4
:1023B000019B02A903A801F04DFF069BCBB901F0D8
:1023C00029FF03461848A0FB03239B0C013B174839
:1023D000174A026040F2E732C260436000230361A3
:1023E0008360836102F0D8FA054630B1284609B00F
:1023F00030BD01F00FFF4300E4E70C4802F062F942
:1024000005460028F2D1372001F066F80F2C01D9DB
:102410000125EBE700222146372001F023F8054B88
:102420001C60E3E70038024083DE1B4324110020D8
:102430000014004014000020FEE7FEE7FEE7FEE780
:10244000FEE7704708B5102001F0BAFB08BD000098
:1024500008B5024801F0C4F908BD00BF8812002089
:1024600008B5024801F0BCF908BD00BFE812002021
:1024700008B5024801F0B4F908BD00BF28120020D9
:1024800008B5024800F0B6FE08BD00BF140B0020DE
:1024900008B5024802F046FD08BD00BF0814002040
:1024A00070B582B0144B1B681A6812F0100F04D17B
:1024B000114802F037FD02B070BD002601961A687F
:1024C00001925B680193019B0B4D284602F006FCCC
:1024D0000A4C2278637843EA022309490B800223DD
:1024E00032460848006803F0C3FC02222146284611
:1024F00002F004FFDCE700BF4C1400202815002088
:102500002A150020200C002070B582B0144B1B68E7
:102510001A6812F0100F04D1114802F003FD02B046
:1025200070BD002201921A6801925B680193019BC1
:102530000B4C204602F0D2FB0A4E0B4D314628468A
:10254000FFF754FDB068FDF7BFFF02460B46074892
:10255000FFF788FE0F222946204602F0CFFEDBE778
:10256000901400207C0E00201815002090CF000849
:1025700008B5024802F0EEF808BD00BF24110020A3
:1025800008B5024801F02CF908BD00BF481300202F
:1025900008B5024800F02EFE08BD00BF3C0B00202D
:1025A00008B5024801F01CF908BD00BFA8130020BF
:1025B00008B5024801F014F908BD00BFC811002099
:1025C00010B582B0314B1B681A6812F0100F04D19D
:1025D0002E4802F0A7FC02B010BD002201921A683A
:1025E00001925B680193019B284802F077FB284C1D
:1025F00012212046FFF744F9264B186094F84A2030
:1026000094F84B301B02904208BF43F0010394F84A
:102610004C2043EA024394F84D2053EA026318D059
:10262000A2781D490A7023791C490B70BBB91C4B59
:1026300000211970A37FE07F43EA002394F8200073
:1026400043EA004394F8211043EA0163154941F835
:1026500022304E220E490D4802F050FEB8E70A2BF8
:10266000F7D10B498B7FC87F43EA002391F8200004
:1026700043EA004391F821000A4951F82210C1EBC6
:1026800000610B43084941F82230E2E7D4140020EE
:1026900078110020701100206D1100206E110020B3
:1026A0006C110020F80A0020040B00200120704764
:1026B00008B504F055FB162303604FF0FF3008BD4A
:1026C00008B54FF0FF31FFF7F3FFFEE770B50C469A
:1026D0001646002506E0AFF30080214601F8010B05
:1026E00001350C46B542F6DB304670BD70B50C4680
:1026F0001646002504E014F8010BAFF30080013505
:10270000B542F8DB304670BD4FF0FF3070474FF4F4
:1027100000534B6000207047012070470020704735
:1027200010B503460C4A0D490D48006840B10C48ED
:1027300000680344521A934206D8094A136010BD38
:102740000748084C0460F2E704F00AFB0C2303601E
:102750004FF0FF30F3E700BF00000220000400004C
:1027600074110020D0520020034AD2F8883043F47C
:102770007003C2F88830704700ED00E008B50A48E1
:102780000A4B03604FF4E133436000238360C3606E
:1027900003610C2242618361C36102F021FA00B936
:1027A00008BDFFF767FCFBE708140020001001409C
:1027B00008B50F480F4B03604FF4E133436000232B
:1027C0008360C36003610C2242618361C36102F0D4
:1027D00007FA50B906480268D36843F01003D36083
:1027E0000222054902F08AFD08BDFFF743FCF1E72C
:1027F0004C140020004400402815002008B50F4864
:102800000F4B03604FF4E133436000238360C360E8
:1028100003610C2242618361C36102F0E1F950B9A6
:1028200006480268D36843F01003D3600F220549BD
:1028300002F064FD08BDFFF71DFCF1E790140020D5
:10284000004800401815002008B50F480F4B0360E2
:102850000F4B436000238360C36003610C2242611D
:102860008361C36102F0BCF950B907480268D368BC
:1028700043F01003D3604E22064902F03FFD08BD2D
:10288000FFF7F8FBF1E700BFD4140020001401406B
:10289000003E49007811002030B58FB00446002377
:1028A00009930A930B930C930D9303687C4A93420C
:1028B0000CD07C4A93424FD07B4A934200F09080E8
:1028C0007A4A934200F00A810FB030BD002501958D
:1028D000774B5A6C42F010025A645A6C02F01002A4
:1028E0000192019A02951A6B42F001021A631B6B66
:1028F00003F001030293029B4FF4C0630993022388
:102900000A9303230C9307230D9309A9694801F047
:1029100055F86948694B03604FF0006343604023FA
:102920008360C5604FF48063036145618561C56163
:102930000562456200F05CFE58B95F4B63639C63BF
:1029400000220521252000F08DFD252000F0C4FD8A
:10295000BAE7FFF78FFBF0E700250395544B1A6C9D
:1029600042F400321A641A6C02F400320392039AA1
:1029700004951A6B42F001021A631B6B03F001030A
:102980000493049B0C23099302230A9303230C93BF
:1029900007230D9309A9474801F010F84848494B0F
:1029A00003604FF0006343608560C5604FF480634F
:1029B000036145618561C5610562456200F018FEED
:1029C00058B93F4BA3639C6300220521262000F0E9
:1029D00049FD262000F080FD76E7FFF74BFBF0E78E
:1029E00000250595324B1A6C42F480221A641A6C49
:1029F00002F480220592059A06951A6B42F00202B3
:102A00001A631B6B03F002030693069B4FF44063AB
:102A1000099302230A9303230C9307230D9309A917
:102A2000294800F0CBFF2948294B03604FF0006391
:102A300043608560C5604FF48063036145618561D3
:102A4000C5610562456200F0D3FD18BB1F4BA3634F
:102A50009C632048204B03604FF000634360402399
:102A600083600023C3604FF480620261436183612D
:102A7000C3610362436200F0BBFD70B9154B636331
:102A80009C6300220521272000F0ECFC272000F0A9
:102A900023FD19E7FFF7EEFAD8E7FFF7EBFAEDE7CA
:102AA0000010014000440040004800400014014074
:102AB0000038024000000240C8110020B864024003
:102AC0002812002088600240000402408812002082
:102AD00028600240E8120020586002400025079557
:102AE0002E4B5A6C42F020025A645A6C02F02002BB
:102AF0000792079A08951A6B42F004021A631B6B3F
:102B000003F004030893089BC023099302230A934C
:102B100003230C9308230D9309A9214800F04EFFCD
:102B20002048214B03604FF0206343608560C560FF
:102B30004FF48063036145618561C561056245624B
:102B400000F056FD18BB174BA3639C631748184B46
:102B500003604FF020634360402383600023C36021
:102B60004FF48062026143618361C3610362436227
:102B700000F03EFD70B90D4B63639C63002205219C
:102B8000472000F06FFC472000F0A6FC9CE6FFF712
:102B900071FAD8E7FFF76EFAEDE700BF00380240A0
:102BA000000802404813002028640240A8130020B7
:102BB000A0640240DFF834D00D480E490E4A0023CD
:102BC00002E0D458C4500433C4188C42F9D30B4AE1
:102BD0000B4C002301E013600432A242FBD3FFF749
:102BE000C3FD04F0C3F8FFF79BFA70470000022012
:102BF00000000020C8090020D4D30008C809002024
:102C0000CC520020FEE7000008B50B4B1A6842F4D6
:102C100000721A601A6842F480621A601A6842F4FC
:102C200080721A60032000F00BFC0F20FFF7B2FB4C
:102C3000FFF78EFB002008BD003C0240034A1168EC
:102C4000034B1B780B441360704700BF2C1500200A
:102C500010000020014B1868704700BF2C150020A1
:102C6000002800F0A18038B5044690F82030D3B198
:102C70002268136843F001031360FFF7EBFF05467A
:102C800023685A6812F0010F10D1FFF7E3FF401BD1
:102C90000A28F5D9636A43F400336362052384F894
:102CA0002030012038BDFEF7A3FCE1E71A6822F0CE
:102CB00002021A60FFF7CEFF054623685A6812F039
:102CC000020F0DD0FFF7C6FF401B0A28F5D9636A33
:102CD00043F400336362052384F820300120E1E7E8
:102CE000227E012A3DD01A6822F080021A60637E9B
:102CF000012B3BD02268136823F040031360A37EAE
:102D0000012B39D02268136823F020031360E37E7F
:102D1000012B37D02268136843F010031360237F20
:102D2000012B35D02268136823F008031360637FFA
:102D3000012B33D02268136823F004031360A368C7
:102D4000E268134322691343626913436268013ADC
:102D500021681343CB6100206062012384F8203096
:102D6000A0E71A6842F080021A60C0E72268136880
:102D700043F040031360C2E72268136843F0200366
:102D80001360C4E72268136823F010031360C6E7DA
:102D90002268136843F008031360C8E722681368C9
:102DA00043F004031360CAE70120704790F8203015
:102DB000013BDBB2012B05D9436A43F48023436214
:102DC0000120704730B5464BD3F8002242F0010293
:102DD000C3F80022D3F8002222F47C52C3F8002268
:102DE000D3F80022486A42EA0022C3F800224A6966
:102DF00002F01F02012000FA02F2D3F81C026FEA6F
:102E0000020C20EA0200C3F81C02CB69C3B9344BA0
:102E1000D3F80C020CEA0000C3F80C028C88486955
:102E2000CD6844EA0544483043F830408C6808884F
:102E300040EA04404C6904F1480E03EBCE035860AD
:102E4000CB69012B1ED08B69002B33D12448D0F8DD
:102E500004320CEA0303C0F804320B698BBB204830
:102E6000D0F814320CEA0303C0F814320B6A012BB9
:102E70002ED01B4AD2F8003223F00103C2F80032F0
:102E8000002030BD164BD3F80C021043C3F80C02DF
:102E90008C8848690D6844EA0544483043F830405E
:102EA00088894C698D6840EA0540483403EBC403C7
:102EB0005860C8E70A48D0F804321343C0F8043217
:102EC000CBE70748D0F814321343C0F81432CDE7EB
:102ED0000349D1F81C321A43C1F81C22C9E700BFCC
:102EE0000064004070B5044690F82050EDB2012D0A
:102EF00006D0436A43F4002343620125284670BD8F
:102F0000022380F820300268136823F00103136065
:102F1000FFF7A0FE064623685B6813F0010F0CD094
:102F2000FFF798FE831B0A2BF5D9636A43F400333D
:102F30006362052384F82030E0E700256562DDE761
:102F400030B590F820C00468A4680CF1FF3C5FFA2B
:102F50008CFCBCF1010F6BD814F0E05F62D0C4F3BD
:102F6000016CBCF1020F05D9436A43F400034362CC
:102F7000012062E0012404FA0CF41C608B68002B31
:102F80003DD10D68CB68046843EA45550CF1180340
:102F90001B01E55003680C690CF1180E03EB0E13CE
:102FA0005C600B7D012B35D0D17993791B0443EA0A
:102FB0000163517943EA012314790168234301EB4A
:102FC0000C11C1F88C31D17893781B0443EA01636A
:102FD000517843EA0123117802680B4302EB0C128B
:102FE000C2F8883102680CF1180C4FEA0C1C52F838
:102FF0000C3043F0010342F80C3000201DE04C6817
:1030000043EAC403CC6823430CF118042401056887
:103010002B51BFE7036803EB0E13596841F480712D
:103020005960C1E7436A43F400134362012004E09E
:10303000436A43F480234362012030BD90F820307E
:10304000013BDBB2012B01D900207047036898686F
:1030500010F0806000D001209A6812F0006F00D05C
:1030600001309B6813F0805FEFD00130704790F81B
:1030700020C00CF1FF3C5FFA8CFCBCF1010F00F2A8
:10308000958030B451B90468E46814F0030F10D18E
:10309000436A43F400134362012077E00468246923
:1030A00014F0030F05D1436A43F400134362012077
:1030B0006CE001F11B04240105682C5904F00404A0
:1030C0009460002C64D101F11B04240105682C5983
:1030D000640D1460046801F11B0C4FEA0C1C54F8D9
:1030E0000C4004F00204D46004686444646804F092
:1030F0000F041461046864446468C4F30724946191
:10310000046864446468240C5461026802EB011290
:10311000D2F8B8211A70026802EB0112D2F8B82175
:10312000C2F307225A70026802EB0112D2F8B821EA
:10313000C2F307429A70026802EB0112D2F8B8217A
:10314000120EDA70026802EB0112D2F8BC211A7179
:10315000026802EB0112D2F8BC21C2F307225A71B5
:10316000026802EB0112D2F8BC21C2F307429A7145
:10317000026802EB0112D2F8BC21120EDA7179B9A1
:103180000268D36843F02003D360002030BC70474E
:1031900001F11B04240105682C59E408546099E7E7
:1031A0000268136943F020031361EEE7436A43F4B6
:1031B000802343620120704790F82030013BDBB24E
:1031C000012B05D9436A43F48023436201207047F1
:1031D0000268536919435161002070477047704776
:1031E0007047704770477047704770477047704727
:1031F000704770472DE9F84F054603685C69D3F8BE
:1032000004809F68D3F80CB0D3F810A0D3F81890BE
:1032100014F001063BD017F0010616D001229A6087
:1032200017F0020F08D117F0040F0CD117F00806A1
:1032300006D04FF4805608E0FFF7D0FF002604E0E8
:10324000FFF7CFFF01E04FF4006617F4807F0DD049
:103250002B684FF480729A6017F4007F40F08680EC
:1032600017F4806F00F0868046F4005617F4803F14
:103270000DD02B684FF480329A6017F4003F40F075
:10328000838017F4802F00F0838046F4004614F00A
:10329000080F07D01BF0100F04D046F400762B68FF
:1032A0001022DA6014F0040F02D01BF0080F79D15D
:1032B00014F0020F04D02B68DB6813F0030F78D1F1
:1032C00014F0400F07D01AF0100F04D046F48066B7
:1032D0002B6810221A6114F0200F02D01AF0080F88
:1032E0006BD114F0100F04D02B681B6913F0030F7F
:1032F0006AD114F4003F02D018F0100F68D114F412
:10330000803F02D018F0080F69D114F4004F7AD032
:1033100018F0040F74D014F4807F04D019F0010F5A
:1033200001D046F0010614F4007F04D019F0020F1A
:1033300001D046F0020614F4806F04D019F0040F97
:1033400001D046F0040614F4006F59D019F070094A
:1033500056D0B9F1400F65D058D8B9F1200F5ED0E2
:10336000B9F1300F42D146F0200644E02846FFF77D
:1033700036FF7BE717F4006F02D046F4804675E70E
:103380002846FFF72FFF71E72846FFF729FF7EE762
:1033900017F4002F02D046F4803678E72846FFF76E
:1033A00022FF74E72B680822DA602846FFF71CFF2B
:1033B0007EE72846FEF736FA82E72B6808221A6174
:1033C0002846FFF713FF8CE72846FFF70EFF90E72C
:1033D0002B6810225A602846FFF709FF8FE72B68F9
:1033E00008225A602846FFF703FF8EE7B9F1100F55
:1033F00001D146F008062A68936923F070039361AF
:103400002B6804225A609EB9BDE8F88FB9F1500FBD
:103410000BD0B9F1600FEED146F48076EBE746F0C1
:103420001006E8E746F04006E5E746F08006E2E7EA
:103430006B6A1E436E622846FFF7DBFEE4E700007E
:10344000074AD36823F4E0631B041B0C000200F45A
:10345000E060034343F0BF6343F40033D36070473D
:1034600000ED00E000B51A4BDB68C3F30223C3F1A3
:10347000070CBCF1040F28BF4FF0040C03F1040E3D
:10348000BEF1060F1AD9033B4FF0010E0EFA0CFCE9
:103490000CF1FF3C01EA0C0199400EFA03F3013BE9
:1034A0001340194300280BDB0901C9B200F1604049
:1034B00000F5614080F800135DF804FB0023E3E7AA
:1034C00000F00F000901C9B2024B1954F4E700BF24
:1034D00000ED00E014ED00E000F01F020123934036
:1034E0004009024A42F82030704700BF00E100E086
:1034F00030B405682C6824F480242C600468636070
:103500008368402B05D0036899600368DA6030BC9B
:10351000704703689A600368D960F8E710B40368DD
:10352000D9B210390C4AA2FB014212090B4CA25C21
:10353000C2655F2909D923F47F7323F003030433A1
:103540008365806D5DF8044B704723F47F7323F02F
:1035500003038365F5E700BFABAAAAAAB0CF0008B2
:10356000836A826992B9012B0AD0022B02D00BB177
:1035700000207047C36A13F0807F28D10020704775
:10358000C36AB3F1C07F24D000207047B2F5005F5A
:1035900009D0022B25D9032B25D1C36A13F0807FD4
:1035A00023D100207047032B03D8DFE803F0140475
:1035B000140A00207047C36A13F0807F0DD10020E9
:1035C0007047C36AB3F1C07F09D000207047012063
:1035D000704701207047012070470120704701208B
:1035E000704701207047002070470120704700009D
:1035F00070B50446FFF72EFB002C5BD00546022376
:1036000084F83530002384F834302268136823F0BE
:103610000103136023681A6812F0010F0AD0FFF744
:1036200019FB431B052BF5D920236365032084F880
:10363000350070BD1A68204810406168A2680A43CE
:10364000E1680A4321690A4361690A43A1690A439F
:10365000E1690A43216A0A430243616A04291ED0D0
:103660001A602668756925F00705636A1D43042BF7
:1036700007D1A36A1D43E36A1BB12046FFF770FF21
:1036800090B975612046FFF749FFE26D3F239340F3
:10369000836000206065012384F83530C9E7E16A62
:1036A000206B01430A43DBE740236365012084F874
:1036B0003500BEE70120BCE73F8010F038B5044676
:1036C000856D90F8340001282BD0012084F8340057
:1036D00094F83500C0B2012804D0002384F83430B7
:1036E000022038BD022084F83500002060652046A5
:1036F000FFF7FEFEE26D3F239340AB602268136844
:1037000043F016031360236C23B12268136843F05F
:10371000080313602268136843F00103136000205C
:10372000DFE70220DDE770B50446866DFFF792FA09
:1037300094F83530DBB2022B06D08023636500237A
:1037400084F83430012070BD05462268136823F0E8
:10375000160313602268536923F080035361236CBE
:10376000E3B12268136823F008031360226813682A
:1037700023F00103136023681B6813F0010F11D0BD
:10378000FFF768FA431B052BF5D920236365032057
:1037900084F83500002384F83430D4E7A36C002B80
:1037A000DFD1E3E7E26D3F239340B360012384F868
:1037B0003530002084F83400C5E790F83530DBB2AE
:1037C000022B03D08023436501207047052380F836
:1037D00035300268136823F001031360002070473E
:1037E000F0B583B0044600230193724B1D68724B01
:1037F000A3FB0535AD0A876D3E68C26D0823934073
:10380000334210D003681A6812F0040F0BD01A6804
:1038100022F004021A60C26D08239340BB60436D1E
:1038200043F001034365E26D01239340334209D025
:103830002268526912F0800F04D0BB60636D43F0C0
:1038400002036365E26D04239340334209D022688A
:10385000126812F0020F04D0BB60636D43F00403E2
:103860006365E26D10239340334224D022681268CE
:1038700012F0080F1FD0BB6023681A6812F4802F63
:103880000DD01B6813F4002F04D1236C9BB120468C
:10389000984710E0A36C73B1204698470BE01A6874
:1038A00012F4807F03D11A6822F008021A60236C98
:1038B0000BB120469847E26D20239340334255D008
:1038C0002268126812F0100F50D0BB6094F83530A7
:1038D000DBB2052B0ED023681A6812F4802F33D088
:1038E0001B6813F4002F2AD1636C002B3ED02046B6
:1038F00098473BE02268136823F0160313602268A0
:10390000536923F080035361236CA3B122681368C9
:1039100023F008031360E26D3F239340BB60012353
:1039200084F83530002384F83430236D002B3FD0E9
:10393000204698473CE0A36C002BE7D1EBE7E36B14
:10394000A3B12046984711E01A6812F4807F09D18C
:103950001A6822F010021A60012384F8353000231F
:1039600084F83430E36B0BB120469847636DFBB1AC
:10397000636D13F0010F17D0052384F835302268EA
:10398000136823F001031360019B01330193AB42E1
:1039900004D823681B6813F0010FF5D1012384F8C4
:1039A0003530002384F83430E36C0BB1204698475F
:1039B00003B0F0BD0C000020B5814E1B00230F2B7F
:1039C00000F2E48070B582B060E085685E00032498
:1039D000B44025EA0405CC68B4402C4384604568B3
:1039E00025EA02054C68C4F300129A402A4342605B
:1039F0005AE0DC08083450F8246003F00702950010
:103A00000F22AA4026EA020E0A69AA4042EA0E02E2
:103A100040F824205CE0072200E0002202FA0EF2C7
:103A20002A4302345A4D45F824205A4A94686FEAD2
:103A30000C0224EA0C054E6816F4801F01D04CEAF3
:103A40000405544CA560E46802EA04054E6816F4C7
:103A5000001F01D04CEA04054E4CE560646802EAA0
:103A600004054E6816F4003F01D04CEA0405494CA9
:103A70006560246822404D6815F4803F01D04CEA0F
:103A80000402444C226001330F2B7DD801229A405E
:103A90000C6804EA020C32EA0404F4D14C6804F025
:103AA0000304013C012C90D94A6802F00302032A66
:103AB00009D0C4685D000322AA4024EA02048A688F
:103AC000AA402243C2604A6802F00302022A90D050
:103AD00004684FEA430E032202FA0EF224EA0204BB
:103AE0004A6802F0030202FA0EF2224302604A68B8
:103AF00012F4403FC7D000220192274A546C44F48C
:103B000080445464526C02F480420192019A9C08F1
:103B1000A51C1F4A52F8255003F003024FEA820EFB
:103B20000F2202FA0EF225EA02051C4A90423FF4E7
:103B300074AF02F5806290421AD002F58062904222
:103B400018D002F58062904216D002F58062904251
:103B500014D002F58062904212D002F58062904249
:103B600010D002F5806290423FF455AF082255E72D
:103B7000012253E7022251E703224FE704224DE7D7
:103B800005224BE7062249E702B070BD704700BF2F
:103B900000380140003C0140003802400000024073
:103BA0000AB181617047090481617047436901EA84
:103BB000030221EA030141EA0241816170470000EA
:103BC00008B5054B5B69034200D108BD024B586143
:103BD000FDF7C2FBF9E700BF003C0140002800F000
:103BE000E08170B582B00446036813F0010F3BD04A
:103BF0009F4B9B6803F00C03042B2CD09C4B9B68C1
:103C000003F00C03082B21D06368B3F5803F4FD03D
:103C1000B3F5A02F52D0964B1A6822F480321A6066
:103C20001A6822F480221A606368002B50D0FFF7D4
:103C300011F805468E4B1B6813F4003F14D1FFF7B3
:103C400009F8401B6428F5D90320B1E1884B5B6873
:103C500013F4800FD8D0864B1B6813F4003F03D0B9
:103C60006368002B00F09F81236813F0020F54D08B
:103C70007F4B9B6813F00C0F3ED07D4B9B6803F08D
:103C80000C03082B33D0E368002B68D0794B01225A
:103C90001A60FEF7DFFF0546754B1B6813F0020F35
:103CA00054D1FEF7D7FF401B0228F5D903207FE14E
:103CB0006F4A136843F480331360B5E76C4B1A689E
:103CC00042F480221A601A6842F480321A60ABE72C
:103CD000FEF7C0FF0546664B1B6813F4003FC3D0D8
:103CE000FEF7B8FF401B6428F5D9032060E1604B64
:103CF0005B6813F4800FC6D15D4B1B6813F0020F95
:103D000003D0E368012B40F05081594A136823F037
:103D1000F803216943EAC1031360236813F0080F15
:103D200042D063696BB3534B0122C3F8802EFEF778
:103D300091FF05464E4B5B6F13F0020F34D1FEF737
:103D400089FF401B0228F5D9032031E1484A136856
:103D500023F0F803216943EAC1031360DDE7454B13
:103D600000221A60FEF776FF0546414B1B6813F0F0
:103D7000020FD2D0FEF76EFF401B0228F5D90320B8
:103D800016E13C4B0022C3F8802EFEF763FF054688
:103D9000374B5B6F13F0020F06D0FEF75BFF401B43
:103DA0000228F5D9032003E1236813F0040F77D02C
:103DB0002F4B1B6C13F0805F33D1002301932C4BEE
:103DC0001A6C42F080521A641B6C03F0805301930A
:103DD000019B0125284B1B6813F4807F23D0A36827
:103DE000012B34D0052B38D0214B1A6F22F0010261
:103DF0001A671A6F22F004021A67A368002B3DD0DD
:103E0000FEF728FF06461A4B1B6F13F0020F46D130
:103E1000FEF720FF801B41F288339842F3D903203C
:103E2000C6E00025D6E7144A136843F48073136094
:103E3000FEF710FF0646104B1B6813F4807FCED1AF
:103E4000FEF708FF801B0228F5D90320B0E0084ADE
:103E5000136F43F001031367CFE7054B1A6F42F06E
:103E600004021A671A6F42F001021A67C5E700BF21
:103E7000003802400000474200700040FEF7EAFEB2
:103E80000646524B1B6F13F0020F08D0FEF7E2FEFE
:103E9000801B41F288339842F3D9032088E0EDB9C2
:103EA000A369002B00F08380484A926802F00C025C
:103EB000082A51D0022B17D0454B00221A66FEF774
:103EC000C9FE0446414B1B6813F0007F42D0FEF749
:103ED000C1FE001B0228F5D9032069E03B4A136CA0
:103EE00023F080531364DBE7394B00221A66FEF798
:103EF000B1FE0546354B1B6813F0007F06D0FEF778
:103F0000A9FE401B0228F5D9032051E0E369226A8B
:103F10001343626A43EA8213A26A5208013A43EAEF
:103F20000243E26A43EA0263284A5360284B0122B3
:103F30001A66FEF78FFE0446244B1B6813F0007FC1
:103F400006D1FEF787FE001B0228F5D903202FE0DB
:103F500000202DE000202BE0012B2BD01B4B5B68B9
:103F600003F48001E269914226D103F03F02216A05
:103F70008A4223D1616A47F6C0721A40B2EB811FB0
:103F80001ED103F44031A26A5208013AB1EB024F4C
:103F900018D103F07063E26AB3EB026F14D1002012
:103FA00006E001207047012002E0012000E000202F
:103FB00002B070BD0120FBE70120F9E70120F7E71F
:103FC0000120F5E70120F3E70120F1E70038024086
:103FD0000000474208B5314B9B6803F00C03042BEB
:103FE00057D0082B57D12D4B5A6802F03F025B681F
:103FF00013F4800F2AD0294B5968C1F3881C4FEA6B
:104000004C11B1EB0C006EEB0E0E4FEA8E1343EA2F
:1040100090638101091A63EB0E03DB0043EA5173DD
:10402000C90011EB0C0C43F10003590200234FEAC5
:104030004C2041EADC51FCF79FFA184B5B68C3F354
:10404000014301335B00B0FBF3F025E0134B5968EB
:10405000C1F3881C4FEA4C11B1EB0C006EEB0E0E55
:104060004FEA8E1343EA90638101091A63EB0E0352
:10407000DB0043EA5173C90011EB0C0C43F1000360
:10408000990200234FEA8C2041EA9C51FCF774FA14
:10409000D3E7034800E0034808BD00BF00380240F2
:1040A00000127A000024F400002800F09B8070B514
:1040B0000D4604464F4B1B6803F007038B4208D2A2
:1040C000CBB24C4A1370136803F007038B4240F0E5
:1040D0008B80236813F0020F17D013F0040F04D065
:1040E000454A936843F4E0539360236813F0080F44
:1040F00004D0414A936843F4604393603E4A936816
:1041000023F0F003A1680B439360236813F0010FC1
:1041100032D06368012B21D09A1E012A25D9364A54
:10412000126812F0020F61D033498A6822F003024C
:1041300013438B60FEF78EFD06462F4B9B6803F002
:104140000C036268B3EB820F16D0FEF783FD801B71
:1041500041F288339842F0D9032042E0264A12689F
:1041600012F4003FE0D101203BE0234A126812F034
:10417000007FD9D1012034E01E4B1B6803F00703F8
:10418000AB4207D9EAB21B4B1A701B6803F0070356
:10419000AB422DD1236813F0040F06D0164A936862
:1041A00023F4E053E1680B439360236813F0080F96
:1041B00007D0114A936823F46043216943EAC1039D
:1041C0009360FFF707FF0C4B9B68C3F303130B4A85
:1041D000D35CD8400A4B18600A4B1868FEF7DAF82F
:1041E000002070BD012070470120FAE70120F8E7A8
:1041F0000120F6E7003C02400038024098CF00085A
:104200000C00002014000020014B1868704700BF0C
:104210000C00002008B5FFF7F7FF044B9B68C3F3C1
:104220008223034AD35CD84008BD00BF0038024057
:10423000A8CF000808B5FFF7E7FF044B9B68C3F35E
:104240004233034AD35CD84008BD00BF0038024067
:10425000A8CF00080F2303600B4B9A6802F00302FB
:1042600042609A6802F0F00282609A6802F4E052BA
:10427000C2609B68DB0803F4E0530361034B1B68D7
:1042800003F007030B60704700380240003C024017
:104290002DE9F04782B00546884617461E46FEF7D0
:1042A000D9FC0A9B1B1A03EB0609FEF7D3FC8246D6
:1042B0002B4B1B68C3F3CB3309FB03F301932B6830
:1042C0009C6838EA04030CBF4FF0010C4FF0000C5F
:1042D000BC4540D0B6F1FF3FF1D0FEF7BBFCA0EBF0
:1042E0000A0048450AD2B9F1000F07D0019A02B17D
:1042F0004A46019B013B01939146E0E72A685368D7
:1043000023F0E00353606B68B3F5827F0BD0AB6A98
:10431000B3F5005F14D0012385F85130002385F8F0
:104320005030032018E0AB68B3F5004F02D0B3F56E
:10433000806FECD12A68136823F040031360E6E72E
:104340002A68136823F4005313602A68136843F43F
:1043500000531360DFE7002002B0BDE8F08700BF24
:104360000C00002010B584B00446164B1868164B9C
:10437000A3FB0030400D4FF47A7303FB00F0039071
:104380006368B3F5827F0BD0039BBBB1039B013BFA
:10439000039323689B6813F0800FF5D100200EE093
:1043A00000920B46002280212046FFF771FF30B1BA
:1043B000636D43F020036365032000E0002004B038
:1043C00010BD00BF0C000020819F5E1600285AD04F
:1043D00010B50446436A33B94368B3F5827F05D00C
:1043E0000023C36102E00023036143610023A36251
:1043F00094F85130002B40D0022384F851302268C9
:10440000136823F040031360636803F48273A268A7
:1044100002F404421343E26802F400621343226987
:1044200002F002021343626902F001021343A2691F
:1044300002F400721343E26902F038021343226A65
:1044400002F080021343A26A02F40052216813436F
:104450000B60638B03F00403626A02F010022168B0
:1044600013434B602268D36923F40063D3610020B7
:104470006065012384F8513010BD84F85030204627
:10448000FDF72EFFB8E7012070472DE9F04383B018
:104490001F460A9D90F85030012B00F01081044611
:1044A00088469146012380F85030FEF7D3FB06463C
:1044B00094F85130DBB26268012B0AD0B2F5827FEA
:1044C00040F0E380A268002A40F0E980042B40F02D
:1044D000E880B8F1000F00F0E680B9F1000F00F0BD
:1044E000E480002F00F0E38094F85130DBB2042B1D
:1044F00002D0052384F8513000236365C4F8389056
:10450000E787A787C4F83080E786A78623646364BB
:1045100023681A6812F0400F03D11A6842F0400273
:104520001A60E368B3F5006F11D063680BB1012F17
:104530000BD1226B236812781A73236B0133236328
:10454000E38E9BB2013B9BB2E38601276BE063687D
:104550000BB1012F0BD1226B23681288DA60236B19
:1045600002332363E38E9BB2013B9BB2E3860127B8
:104570001CE023689A6812F0010F0ED0E28F92B20D
:104580005AB1DA68A36B1A80A36B0233A363E38F7B
:104590009BB2013B9BB2E3870127FEF75BFB801BCD
:1045A000A84203D3B5F1FF3F40F08380E38E9BB276
:1045B0001BB9E38F9BB2002B53D023689A6812F08B
:1045C000020FD6D0E28E92B2002AD2D0002FD0D0E5
:1045D000226B1288DA60236B02332363E38E9BB273
:1045E000013B9BB2E3860027C3E723689A6812F079
:1045F000010F0ED0E28F92B25AB1DA68A36B1A7033
:10460000A36B0133A363E38F9BB2013B9BB2E387B0
:104610000127FEF71FFB831BAB4202D3B5F1FF3F1F
:1046200049D1002D49D0E38E9BB213B9E38F9BB2E1
:10463000BBB123689A6812F0020FD6D0E28E92B214
:10464000002AD2D0002FD0D0226B12781A73236B9D
:1046500001332363E38E9BB2013B9BB2E3860027C9
:10466000C3E7324629462046FFF77CFE48B9A368D7
:1046700063B901932368DA6801929B680193019BF7
:1046800004E020236365012000E00220012384F878
:104690005130002384F8503003B0BDE8F08302208D
:1046A000F4E70220F2E70120F0E70120EEE7012025
:1046B000ECE70320EAE70320E8E70320E6E702202F
:1046C000EAE7704790F83D30DBB2012B37D1022387
:1046D00080F83D300268D36843F00103D36003687B
:1046E000194A934220D0B3F1804F1DD0A2F57C42ED
:1046F000934219D002F58062934215D002F5806290
:10470000934211D002F5784293420DD002F57052D7
:10471000934209D0A2F59432934205D01A6842F030
:1047200001021A60002070479A6802F00702062A08
:1047300007D01A6842F001021A6000207047012079
:1047400070470020704700BF00000140704770476D
:104750007047704710B5044603681A6912F0020FDB
:1047600011D0DA6812F0020F0DD06FF002021A6158
:104770000123037703689B6913F0030F70D0FFF7E1
:10478000E6FF0023237723681A6912F0040F12D082
:10479000DA6812F0040F0ED06FF004021A610223DF
:1047A000237723689B6913F4407F5FD02046FFF78F
:1047B000CEFF0023237723681A6912F0080F12D066
:1047C000DA6812F0080F0ED06FF008021A610423A5
:1047D00023772368DB6913F0030F4ED02046FFF7E1
:1047E000B6FF0023237723681A6912F0100F12D046
:1047F000DA6812F0100F0ED06FF010021A61082361
:1048000023772368DB6913F4407F3DD02046FFF710
:104810009EFF0023237723681A6912F0010F03D04B
:10482000DA6812F0010F36D123681A6912F0800F8E
:1048300003D0DA6812F0800F34D123681A6912F0BD
:10484000400F03D0DA6812F0400F32D123681A69A2
:1048500012F0200F03D0DA6812F0200F30D110BD13
:10486000FFF774FF2046FFF773FF8AE72046FFF744
:104870006DFF2046FFF76CFF9BE72046FFF766FFC2
:104880002046FFF765FFACE72046FFF75FFF2046B5
:10489000FFF75EFFBDE76FF001021A612046FDF7EA
:1048A000DDFBC1E76FF080021A61204600F0A1F83D
:1048B000C3E76FF040021A612046FFF74AFFC5E7E1
:1048C0006FF020021A61204600F092F8C7E700005E
:1048D0000368304A904212D0B0F1804F0FD0A2F559
:1048E0007C4290420BD002F58062904207D002F5E4
:1048F0008062904203D002F57842904203D123F0C7
:1049000070034A681343234A90422AD0B0F1804F83
:1049100027D0A2F57C42904223D002F580629042DB
:104920001FD002F5806290421BD002F5784290427F
:1049300017D002F57052904213D002F58062904277
:104940000FD002F5806290420BD0A2F598329042CF
:1049500007D002F58062904203D002F58062904257
:1049600003D123F44073CA68134323F080034A69D8
:10497000134303608B68C3620B688362054B9842E4
:1049800003D003F58063984201D10B6903630123CF
:10499000436170470000014040B310B5044690F8F1
:1049A0003D30F3B1022384F83D30214651F8040B29
:1049B000FFF78EFF012384F8463084F83E3084F8F8
:1049C0003F3084F8403084F8413084F8423084F835
:1049D000433084F8443084F8453084F83D3000207A
:1049E00010BD80F83C30FFF76CFEDBE7012070471C
:1049F00070477047026802F10C0353E8003F23F050
:104A0000C0030C3242E800310029F3D1202380F8A2
:104A10003D307047026802F10C0353E8003F23F475
:104A200090730C3242E800310029F3D1026802F1A0
:104A3000140353E8003F23F00103143242E800312D
:104A40000029F3D1036B012B05D0202380F83E30E1
:104A5000002303637047026802F10C0353E8003F30
:104A600023F010030C3242E800310029F3D1ECE7C7
:104A700090F83D30DBB2212B01D0022070478368D3
:104A8000B3F5805F17D0036A5A1C02621A78036874
:104A90005A60C38C9BB2013B9BB2C3844BB9026882
:104AA000D36823F08003D3600268D36843F04003E7
:104AB000D360002070470369002BE4D1036A1B8890
:104AC0000268C3F308035360036A02330362E0E73A
:104AD00038B504460268136923F44053C1680B4398
:104AE000136183680269134342691343C2691A431D
:104AF0000168CB6823F4164323F00C031343CB6007
:104B00000268536923F4407381690B43536103685E
:104B1000314A934206D002F58062934202D0FFF7F9
:104B200079FB01E0FFF786FBE369B3F5004F29D07D
:104B30000021031849411B1841F10001C90041EA55
:104B40005371DB00181863684FEA83024FEA9373CE
:104B500041F10001FBF710FD204DA5FB003251098A
:104B6000642303FB11031B013233A5FB03235B0901
:104B700003F0F00202EB011203F00F03216813446B
:104B80008B6038BD0023021843EB0301121841F17A
:104B90000001C90041EA5271D200101841F1000130
:104BA000626892185B41FBF7E7FC0C4DA5FB0032F5
:104BB0005109642303FB1103DB003233A5FB0323FC
:104BC0005B095A0002F4F87202EB011203F00703CA
:104BD000216813448B60D4E7001001401F85EB511E
:104BE00058B310B5044690F83D300BB3242384F835
:104BF0003D302268D36823F40053D3602046FFF78A
:104C000067FF2268136923F4904313612268536994
:104C100023F02A0353612268D36843F40053D3601E
:104C200000202064202384F83D3084F83E3010BDFD
:104C300080F83C30FDF730FED8E7012070470000D7
:104C400038B590F83D30DBB2202B38D1044600292E
:104C500037D0002A37D090F83C30012B35D00123D3
:104C600080F83C3001628284C284002505642123DF
:104C700080F83D30436B1648D863636B1548186461
:104C8000636B1548D864636B1D6520681346021D6D
:104C9000606BFEF713FD23686FF040021A6084F822
:104CA0003C50226802F1140353E8003F43F08003B4
:104CB000143242E800310029F3D1002000E0022044
:104CC00038BD0120FCE70120FAE70220F8E700BF29
:104CD000634D0008CB4D0008D94D000810B50446BF
:104CE00003685A6990F83D30DBB2212B0AD0236863
:104CF0005A6902F0400294F83E30DBB2222B19D000
:104D0000002010BD02F08002002AF0D0226802F1DB
:104D1000140353E8003F23F08003143242E80031CB
:104D20000029F3D1606B08B1FEF7FDFC2046FFF7C8
:104D300061FEDCE7002AE3D0226802F1140353E8A5
:104D4000003F23F04003143242E800310029F3D140
:104D5000A06B08B1FEF7E7FC2046FFF75BFECFE74C
:104D6000704708B50346806B1B681B6813F4807F8F
:104D70001AD10023C384026802F1140353E8003FF0
:104D800023F08003143242E800310029F3D1026895
:104D900002F10C0353E8003F43F040030C3242E8B9
:104DA00000310029F3D108BDFFF7DAFFFBE708B5B2
:104DB0000168CA6822F04002CA60202280F83D20C3
:104DC000FFF7CEFF002008BD704708B5806BFFF7E6
:104DD000FBFF08BD7047704710B5846B23685A69A4
:104DE00094F83D30DBB2212B10D023685A6902F0D1
:104DF000400294F83E30DBB2222B11D0236C43F0FA
:104E0000100323642046FFF7E6FF10BD02F0800286
:104E1000002AEAD00023E3842046FFF7EBFDE4E715
:104E2000002AEBD00023E3852046FFF7F3FDE5E7FA
:104E300008B5806B0023C385C384FFF7CCFF08BD92
:104E4000704790F83E30DBB2222B67D18368B3F510
:104E5000805F4DD0826AB3F5805F04D0002B54D1BF
:104E60000369002B51D103685B681370836A0133B7
:104E70008362C38D9BB2013B9BB2C385002B4FD194
:104E800000B583B00268D36823F02003D3600268C2
:104E9000D36823F48073D3600268536923F001035D
:104EA0005361202380F83E30036B012B33D1002364
:104EB0000363026802F10C0353E8003F23F0100380
:104EC0000C3242E800310029F3D103681A6812F06D
:104ED000100F06D0002201921A6801925B680193BC
:104EE000019B818DFFF7ACFF002003B05DF804FB50
:104EF0000269002AAED1826A03685B68C3F30803C3
:104F00001380836A02338362B3E703685B6803F04C
:104F10007F031370AAE7FCF721FBE5E70220704747
:104F20000020704730B583B0044602681368D0682B
:104F3000516913F00F0505D113F0200F02D010F0C6
:104F4000200F19D12DB111F0010119D110F4907F6A
:104F500016D1216B01297DD013F0800F03D010F002
:104F6000800F40F0158113F0400F03D010F0400F78
:104F700040F0128103B030BD2046FFF762FFF9E731
:104F800013F0010F06D010F4807F03D0226C42F0A2
:104F90000102226413F0040F04D019B1226C42F014
:104FA0000202226413F0020F04D019B1226C42F005
:104FB0000402226413F0080F07D010F0200F00D174
:104FC00019B1226C42F008022264226C002AD1D06E
:104FD00013F0200F02D010F0200F29D123685B6955
:104FE00003F04003226C12F0080F00D163B3204697
:104FF000FFF710FD23685B6913F0400F20D0226893
:1050000002F1140353E8003F23F04003143242E856
:1050100000310029F3D1A36B73B1614A1A65A06B0B
:10502000FEF7CBFB0028A5D0A06B036D9847A1E746
:105030002046FFF706FFD1E72046FFF7CCFE99E7B1
:105040002046FFF7C8FE95E72046FFF7C4FE002381
:1050500023648FE713F0100F3FF47EAF10F0100FB2
:105060003FF47AAF002301931368019353680193CF
:10507000019B536913F0400F50D0A26B13685B681B
:105080009BB2002B3FF476AFA18D99427FF672AFB1
:10509000E385D369B3F5807F37D0226802F10C0332
:1050A00053E8003F23F480730C3242E800310029BA
:1050B000F3D1226802F1140353E8003F23F0010307
:1050C000143242E800310029F3D1226802F11403BE
:1050D00053E8003F23F04003143242E80031002936
:1050E000F3D1202384F83E3000232363226802F1A9
:1050F0000C0353E8003F23F010030C3242E8003168
:105100000029F3D1A06BFEF70EFBA18DE38D9BB2BE
:10511000C91A89B22046FFF793FE2BE7A18DE38DD4
:105120009BB2C91A89B2E38D9BB2002B3FF422AF28
:1051300000293FF41FAF226802F10C0353E8003F3F
:1051400023F490730C3242E800300028F3D1226837
:1051500002F1140353E8003F23F00103143242E844
:1051600000300028F3D1202384F83E30002323634D
:10517000226802F10C0353E8003F23F010030C32C5
:1051800042E800300028F3D12046FFF759FEF1E64F
:105190002046FFF76DFCEDE62046FFF708FEE9E646
:1051A000314E000808B5806B036B012B02D0FFF76E
:1051B00011FE08BD818D4908FFF742FEF9E708B5E9
:1051C0000346806B1B681B6813F4807F2BD1002380
:1051D000C385026802F10C0353E8003F23F4807397
:1051E0000C3242E800310029F3D1026802F11403C5
:1051F00053E8003F23F00103143242E80031002954
:10520000F3D1026802F1140353E8003F23F0400396
:10521000143242E800310029F3D1202380F83E30D7
:10522000036B012B05D0036B012B0FD0FCF796F914
:1052300008BD026802F10C0353E8003F23F010039D
:105240000C3242E800310029F3D1ECE7818DFFF701
:10525000F7FDEDE730B583B00446134681628285E1
:1052600000250564222280F83E20826B2048D0630E
:10527000A26B20481064A26B1F48D064A26B156516
:1052800020680A46011DA06BFEF718FA01952368F5
:105290001A6801925B680193019B84F83C50236972
:1052A0005BB1226802F10C0353E8003F43F48073C2
:1052B0000C3242E800310029F3D1226802F11403D4
:1052C00053E8003F43F00103143242E80031002963
:1052D000F3D1226802F1140353E8003F43F0400386
:1052E000143242E800310029F3D1002003B030BD70
:1052F000BF510008A5510008D94D000808B590F825
:105300003E30DBB2202B0DD171B17AB190F83C3038
:10531000012B0DD0012380F83C3000230363FFF7FD
:1053200099FF00E0022008BD0120FCE70120FAE718
:105330000220F8E7842801D003307047002070472E
:1053400008B501F0C1F9002008BD2DE9F04387B090
:1053500004460F464569BDB18669AEB1D0F80480F8
:10536000D0F80090B0F90800FFF7E4FF029601952D
:1053700000903B4622694946404601F0F1F805900D
:10538000059807B0BDE8F08365682668D4F81080FA
:10539000B4F90800FFF7CEFF05AB019300903B4640
:1053A0001FFA88F23146284601F015F90128E7D0A6
:1053B0000020E6E708B500B9012001F0CFFA00208F
:1053C00008BD00B583B0826842B1C36833B1002123
:1053D00000914168006800F019FC04E00022416877
:1053E000006800F05DFC03B05DF804FB00F1080309
:1053F00043604FF0FF328260C360036100230360AB
:10540000704700230361704743684B609A688A6065
:10541000516099600861036801330360704730B4DC
:105420000D68B5F1FF3F11D000F108031C465B6821
:105430001A68AA42FAD963684B6099608C6061600F
:10544000086103680133036030BC70470469F2E708
:105450000369416882688A60416851605A68824283
:1054600006D0002202611A68013A1A601868704773
:1054700082685A60F5E7000082B0002301930D4B6B
:105480001B68B3F1FF3F08D04FF0500383F311883E
:10549000BFF36F8FBFF34F8FFEE74FF0500383F3DF
:1054A0001188BFF36F8FBFF34F8F019B002BFCD090
:1054B00002B070471800002008480068006880F3B8
:1054C00008884FF0000080F3148862B661B6BFF31D
:1054D0004F8FBFF36F8F00DF00BF000008ED00E0CB
:1054E000DFF80C00016841F47001016070470000B2
:1054F00088ED00E04FF0807340F8043C21F001019A
:1055000040F8081C054B40F80C3C40F8202C6FF08C
:10551000020340F8243C4438704700BF7954000827
:10552000074B19680868B0E8F04F80F30988BFF3AB
:105530006F8F4FF0000080F311887047AFF3008049
:10554000585100204FF0500383F31188BFF36F8F41
:10555000BFF34F8F0B4A136801331360012B00D048
:1055600070474FF0E023D3F8043D13F0FF0FF7D05E
:105570004FF0500383F31188BFF36F8FBFF34F8F4A
:10558000FEE700BF18000020094B1B6843B94FF02D
:10559000500383F31188BFF36F8FBFF34F8FFEE784
:1055A000013B034A13600BB983F31188704700BFB6
:1055B00018000020000000000000000000000000B3
:1055C000EFF30980BFF36F8F154B1A681EF0100FB1
:1055D00008BF20ED108A20E9F04F10602DE9090086
:1055E0004FF0500080F31188BFF34F8FBFF36F8FE0
:1055F00001F0DAF94FF0000080F3118809BC196856
:105600000868B0E8F04F1EF0100F08BFB0EC108A29
:1056100080F30988BFF36F8F704700BFAFF300803E
:105620005851002008B54FF0500383F31188BFF3A1
:105630006F8FBFF34F8F01F089F828B14FF0E0234F
:105640004FF08052C3F8042D002383F3118808BD66
:105650004FF0E022002313619361054B1B6805495D
:10566000A1FB03139B09013B53610723136170479F
:105670000C000020D34D62104FF0E023D3F8002D32
:105680003D4B9A421CD04FF0E023D3F8002D3B4B0A
:105690009A421ED030B583B0394B1A78D2B20192FB
:1056A000FF221A701B78DBB28DF803309DF80330AF
:1056B00003F05003334A1370334B07221A601BE088
:1056C0004FF0500383F31188BFF36F8FBFF34F8FF9
:1056D000FEE74FF0500383F31188BFF36F8FBFF3E2
:1056E0004F8FFEE7284A1368013B13609DF8033093
:1056F0005B00DBB28DF803309DF8033013F0800FB0
:10570000F0D1214B1B68032B08D04FF0500383F3DB
:105710001188BFF36F8FBFF34F8FFEE71B021A4A4A
:10572000136003F4E0631360019BDBB2144A13704F
:105730004FF0E024D4F8203D43F47003C4F8203D3A
:10574000D4F8203D43F07043C4F8203DFFF780FFBC
:1057500000250E4B1D60FFF7C3FED4F8343F43F025
:105760004043C4F8343FFFF7A7FE01F01DF9FFF7EF
:1057700083FE284603B030BD71C20F4170C20F4195
:1057800000E400E03015002034150020180000204F
:10579000EFF305830F2B0FD9114A9B5CDBB2114A43
:1057A00012789A4208D94FF0500383F31188BFF35F
:1057B0006F8FBFF34F8FFEE74FF0E023D3F80C3D20
:1057C00003F4E063084A1268934208D94FF050038B
:1057D00083F31188BFF36F8FBFF34F8FFEE77047DE
:1057E000F0E300E03015002034150020124A12F0DA
:1057F000070F1ED0D11D21F00701C1F570531344CE
:105800000A460E480260002141601344083B23F021
:1058100007030B48036059601960991A51601360BF
:10582000084B1960084B1960084B4FF000421A6092
:1058300070474FF47053E4E73C15002050510020AE
:105840003815002044510020405100203C510020D8
:10585000164B1A461B688342FBD3516802EB010CBE
:10586000844509D0416800EB010C634509D0036011
:10587000904219D010607047406801445160104652
:10588000F0E710B40A4C2468A3420BD05B681944BB
:10589000416013681B680360904200D010605DF89F
:1058A000044B70470460F7E7704700BF5051002079
:1058B0003815002070B5054600F040FF364B1B68D8
:1058C000A3B1364B1B681D424ED135B1083515F0DA
:1058D000070F02D025F007050835002D46D0304BC4
:1058E0001B68AB4251D32F4A146804E0FFF77EFFD8
:1058F000E7E722461C466368AB4202D22368002BCE
:10590000F7D1254B1B68A34241D01668083623689F
:10591000136063685B1B102B10D9601910F0070F20
:1059200008D04FF0500383F31188BFF36F8FBFF39C
:105930004F8FFEE743606560FFF78AFF6268184992
:105940000B689B1A0B60184909688B4201D21649F3
:105950000B60124B1B681343636000232360134AE0
:1059600013680133136002E0002600E0002600F017
:1059700079FF16F0070F0CD04FF0500383F3118816
:10598000BFF36F8FBFF34F8FFEE70026EFE70026D0
:10599000EDE7304670BD00BF381500203C510020B7
:1059A0004051002050510020445100204851002017
:1059B000002834D038B50446A0F1080550F8043C5E
:1059C000174A1268134208D14FF0500383F311882D
:1059D000BFF36F8FBFF34F8FFEE750F8081C41B144
:1059E0004FF0500383F31188BFF36F8FBFF34F8FD6
:1059F000FEE723EA020340F8043C00F09FFE54F85F
:105A0000041C084A13680B4413602846FFF720FF64
:105A1000054A13680133136000F024FF38BD704756
:105A20003C510020405100204C51002010B504464C
:105A3000FFF788FDA26BE36B9A4204D00024FFF7C6
:105A4000A3FD204610BD0124F9E710B50446FFF779
:105A500079FDA36B23B90124FFF796FD204610BD05
:105A60000024F9E770B504461546866B026C5AB9F6
:105A700003681BB100200136A66370BD806801F089
:105A800015F90023A360F6E76DB94068FAF7F6FE52
:105A9000226C636813446360A268934219D323683D
:105AA00063602846E7E7C068FAF7E8FE226C5142D7
:105AB000E3689B1AE3602268934202D2A3680B4416
:105AC000E360022D01D00020D5E726B1013E002081
:105AD000D1E72846CFE70020CDE70346026C6AB144
:105AE00010B50846D9681144D9609C68A14201D319
:105AF0001968D960D968FAF7C1FE10BD704738B58A
:105B00000546FFF71FFD95F8454064B201E0013CF2
