:020000040800F2
:1000000098070020090F0008D1030008D303000857
:10001000D7030008DB030008DF030008000000002E
:10002000000000000000000000000000E3030008E2
:10003000E5030008000000001F0F0008210F000862
:10004000230F0008230F0008230F0008230F0008C8
:10005000230F0008230F0008230F0008230F0008B8
:10006000230F0008230F0008230F0008230F0008A8
:10007000230F0008230F0008230F0008230F000898
:10008000230F0008230F0008230F0008230F000888
:10009000230F0008230F0008230F0008230F000878
:1000A000230F0008230F0008230F0008230F000868
:1000B000230F000851060008230F0008230F000833
:1000C000230F0008230F0008230F0008230F000848
:1000D000230F0008AD350008230F0008230F000888
:1000E000230F0008230F0008230F0008230F000828
:1000F000230F0008230F0008230F0008230F000818
:10010000230F0008230F0008230F0008230F000807
:10011000230F0008230F0008230F0008230F0008F7
:10012000230F0008230F0008230F0008230F0008E7
:10013000230F0008230F0008230F0008230F0008D7
:10014000230F0008230F0008230F0008230F0008C7
:10015000230F0008230F0008F7350008230F0008BD
:10016000230F0008230F0008230F0008230F0008A7
:10017000230F0008230F0008230F0008230F000897
:10018000230F0008230F000800F002F800F092F897
:100190000AA090E8000C82448344AAF10107DA45E2
:1001A00001D100F087F8AFF2090EBAE80F0013F0A2
:1001B000010F18BFFB1A43F001031847B85800009D
:1001C000D8580000103A24BF78C878C1FAD852072E
:1001D00024BF30C830C144BF04680C6070470000C1
:1001E0000023002400250026103A28BF78C1FBD840
:1001F000520728BF30C148BF0B6070476E2903F01B
:10020000DB82702903F02584662904F0AF87652915
:1002100004F0AC87672904F0A987612904F0A88756
:1002200003681B0A28BF41F08001692903F0888216
:10023000642903F08582752903F082826F2903F017
:10024000B383782903F0F183E92903F04D83E4298E
:1002500003F04A83F52903F04783EF2903F0B083C5
:10026000F82903F0F0830368DB0928BF41F080011F
:10027000632904F0F180732904F0F680E32904F087
:100280000181F32904F00681002070471FB504F0B6
:1002900068FF04F051F904000020002104F0D4FEAE
:1002A000401C60600020002104F0B8FEE0601FBD2B
:1002B00010B510BD04F012F91146FFF7E7FF00F08A
:1002C0001FF804F0EBF903B4FFF7F2FF03BC04F0EE
:1002D0002FFA0000012080F3138800BF00BFBFF396
:1002E0004F8F3148006800F4E06030490843001D3A
:1002F0002D490860BFF34F8F00BF00BF00BFFDE76F
:100300002DED068B84B04FF4A06000F01DFEA820F8
:1003100002F092FF4FF4E13003F0F7F800F0CAFC6E
:1003200041E023480078012805D1224800F031FD42
:1003300000201F4908702048007801282DD11D4851
:1003400000F091FD1B4890ED040A10EE101A0846CB
:1003500004F096FE41EC180B164890ED030A10EEDF
:10036000101A084604F08CFE41EC190B114890ED70
:10037000020A10EE101A084604F082FE41EC1A0B35
:100380008DED028B8DED009B53EC1A2B0BA10E48CB
:1003900002F0D4FF0020084908700C4800780128BA
:1003A00001D1FFF797FFBCE70CED00E00000FA0574
:1003B00015000020140100201400002025662C25C3
:1003C000662C25660A00000000480040410000201D
:1003D000704700BFFEE700BFFEE700BFFEE700BFBB
:1003E000FEE77047704700000CB5002001900090B8
:1003F0007648006840F480307449086000BF734854
:10040000006800F4003000900198401C01900098B2
:1004100018B90198B0F5A04FF1D16C48006800F40C
:10042000003010B10120009001E000200090009801
:10043000012846D165484030006840F0805063494B
:10044000403108606248006840F4404060490860FC
:100450005E48083000685D49083108600846006859
:1004600040F4004008600846006840F4A05008606E
:100470005848091F0860081F006840F08070091F75
:10048000086000BF5148006800F000700028F9D0F3
:1004900040F20570504908604C480830006820F070
:1004A00003004A49083108600846006840F002002D
:1004B000086000BF45480830006800F00C000828BC
:1004C000F8D10CBD10B54548006840F470004349B0
:1004D00008603E48006840F001003C490860002088
:1004E0003A4908310860394800683D4908403749B1
:1004F00008603C48091D0860081F006820F480203F
:10050000091F0860002031490C310860FFF76CFFBB
:100510004FF0006031498039086010BD70B500208F
:100520000022022300240221284D08352D6805F001
:100530000C0020B1042806D0082834D107E02A4D49
:100540002A4E356033E02A4D284E35602FE01F4D8E
:100550002D1D2D68C5F380541C4D2D1D2D6805F0F3
:100560003F0154B1224DB5FBF1F5184E361D3668EA
:10057000C6F3881605FB06F209E01B4DB5FBF1F545
:10058000124E361D3668C6F3881605FB06F20F4D6F
:100590002D1D2D68C5F301456D1C6B00B2FBF3F5F5
:1005A000124E356003E0104D104E356000BF00BFA5
:1005B000064D08352D68C5F303150E4E705D0B4DC5
:1005C0002D68C540094E356070BD000000380240FE
:1005D0000070004008544007003C024088ED00E0F5
:1005E000FFFFF6FE103000240024F400000000207D
:1005F00000127A00040000201FB50121022001F042
:1006000080F8632002905320ADF804000020ADF87C
:100610000C00ADF8060001A9404801F054FC01228D
:1006200011463E4802F0F0F81D208DF80000012030
:100630008DF8010000208DF8020001208DF80300E4
:10064000684600F086FC0121344801F0C5FC1FBD5E
:1006500010B50121314802F0EEF800285CD0304896
:10066000007880B32F4800F0EDF82F4800682D493E
:10067000096808442C4908602C480088401C2B4914
:1006800008800846008843F69821884240D12648D1
:1006900090ED000AB8EEC00ADFED250A80EE201AC0
:1006A000244880ED001A90ED000ABDEEC00A10EE5D
:1006B000102A1421204800F0F1F800201B4908807E
:1006C0001749087024E0FFE71C4800F005FB1748B5
:1006D0000088401C4FF47A7190FBF1F201FB12008C
:1006E0001249088008460088322190FBF1F201FB94
:1006F000120010B90120124908700C48008814211A
:1007000090FBF1F201FB120010B901200D490870B5
:100710000121024802F0A0F810BD000000040040D2
:10072000160000201C0000202000002018000020DF
:1007300000606A46280000204400002014010020C8
:10074000140000201500002070B505460C4610214D
:10075000504800F06DFD284600F05CF9204600F09E
:1007600059F910214B4800F061FD70BD1CB5012105
:10077000084600F07DFF1020009001208DF8040055
:1007800000208DF8060003208DF8050069464148D9
:1007900000F0D0FC10213F4800F048FD00F003F9C4
:1007A000012002F0ABFD092000F034F90A2002F02C
:1007B000A5FD00211F20FFF7C7FF01210220FFF741
:1007C000C3FF01210320FFF7BFFF05210B20FFF727
:1007D000BBFF062000F01EF9012002F08FFD1CBDBA
:1007E00070B5044610212B4800F022FD44F0800033
:1007F00000F010F9FF2000F00DF905461021254802
:1008000000F014FD284670BD2DE9F04105460E4666
:10081000174610211F4800F00BFD002445F0800012
:1008200000F0F8F800BF05E0FF2000F0F3F83855BD
:10083000601CC4B2B442F7DB1021164800F0F6FC8D
:10084000BDE8F08138B504466A4603210A20FFF767
:10085000DBFF9DF801009DF8001040EA012000B286
:100860000D4908809DF80200B1F9001040EA01200E
:10087000206038BD38B504466A4602210A20FFF7D9
:10088000C3FF9DF801009DF8001040EA012000B26E
:10089000208038BD000002402400002010B50B4627
:1008A000037000244470047854434460002105E040
:1008B00000F1080444F821204C1CE1B204788C4279
:1008C000F6DC10BD10B5447800F1080252F824207F
:1008D00043689A1A426042680A44426043785A1C4C
:1008E000427000F1080242F82310427803789A42DD
:1008F00001DB0022427090ED010AF8EEC00A027896
:1009000000EE102AB8EE401A80EE810A10BD0000F9
:1009100030B585B005460C460020ADF800004FF418
:100920008270ADF802000020ADF8040034B1012C53
:100930000AD0022C0FD0032C1BD113E00020ADF8FD
:100940000600ADF808001AE00020ADF8060001200E
:10095000ADF8080013E00220ADF806000020ADF865
:1009600008000CE00220ADF806000120ADF80800F8
:1009700005E00020ADF80600ADF8080000BF00BF9C
:100980004FF40070ADF80A001820ADF80C000020FC
:10099000ADF80E000720ADF810006946284602F0B9
:1009A00057FA05B030BD1CB50121080300F0BAFEAE
:1009B0000121084600F05CFE05221146484800F07F
:1009C00044FC05220621464800F03FFC0522072191
:1009D000434800F03AFCE020009002208DF804002B
:1009E00000208DF8060003208DF8050001208DF809
:1009F000070069463A4800F09DFBE021384800F0C6
:100A000015FC00213748FFF783FF0121354802F02C
:100A100019FB1CBD10B5044600BF0221314802F08D
:100A2000DBFB0028F9D021462E4802F08CFB00BFEA
:100A300001212C4802F0D0FB0028F9D0294802F00F
:100A40007FFBC0B210BD1CB50121880300F059FE28
:100A50000121022000F00CFE05220D21224800F0A9
:100A6000F4FB05220E21204800F0EFFB05220F21A8
:100A70001D4800F0EAFB4FF46040009002208DF822
:100A8000040000208DF8060003208DF805000120E9
:100A90008DF807006946144800F04CFB002113480C
:100AA000FFF736FF0121114802F0CCFA1CBD10B54A
:100AB000044600BF02210D4802F08EFB0028F9D049
:100AC00021460A4802F03FFB00BF0121074802F01F
:100AD00083FB0028F9D0054802F032FBC0B210BDFC
:100AE0000000024000300140000402400038004095
:100AF00000B589B00121084600F003FE0121084637
:100B000000F0B6FD0121022000F0B2FD0121082015
:100B100000F0AEFD01220021634800F096FB0122A7
:100B20001146614800F091FB0120019002208DF8F0
:100B3000080001208DF80B0003208DF8090001A9A1
:100B4000594800F0F7FA022001908DF808000120C2
:100B50008DF80B0003208DF8090001A9524800F020
:100B6000E9FA06A801F0E3F90020ADF818004FF605
:100B7000FF7007900020ADF82000ADF81A0006A91C
:100B80004FF0804001F09FF9022300220321580713
:100B900001F00DFF03A801F0A4FD0A20ADF8140038
:100BA00003A9400701F066FD0121880701F040FE1E
:100BB0004FF40041C80301F0CFF90121880701F08B
:100BC0000BFA09B000BD00B589B00121042000F086
:100BD00098FD0121022000F04BFD0222062133483E
:100BE00000F033FB02220721304800F02EFBC0202A
:100BF000019002208DF8080001208DF80B000320E1
:100C00008DF8090001A9294800F094FA06A801F01E
:100C10008EF90020ADF818004FF6FF700790002005
:100C2000ADF82000ADF81A0006A9214801F04BF9F3
:100C300002231A4603211E4801F0B9FE03A801F061
:100C400050FD0A20ADF8140003A9194801F012FD67
:100C50000121174801F0ECFD4FF40041144801F068
:100C60007BF90121124801F0B7F909B000BD10B5B8
:100C700000244FF0804001F073F9A0F500444FF4D8
:100C80000041C80301F068F9204610BD10B50024EA
:100C9000074801F065F9A0F500444FF4004104480D
:100CA00001F05AF9204610BD000002400004024045
:100CB0000008004010B5FFF71BFFFFF784FFFFF7A8
:100CC00055FD834802F05EFBFFF796FC00BF8148AC
:100CD00000780028FBD110BD10B52DED028B82B03D
:100CE000044601A8FFF7AEFD7B480199FFF7EAFD36
:100CF000B0EE408A794890ED000A38EE400AB1EE35
:100D0000400AB0EE408A9FED760AB4EEC08AF1EE5A
:100D100010FA06DD9FED730AB4EEC08AF1EE10FA08
:100D200007D394ED040ADFED700A08EE200A84ED83
:100D3000040A02B0BDEC028B10BDF0EE400A9FED3C
:100D40006B0A20EE800A704707E090ED000ADFEDA5
:100D5000680A30EE600A80ED000A90ED000ADFEDCF
:100D6000650AB4EEE00AF1EE10FAEEDC07E090ED71
:100D7000000ADFED5F0A30EE200A80ED000A90EDF8
:100D8000000ADFED5D0AB4EEE00AF1EE10FAEED9EA
:100D9000704710B52DED028B82B0044694ED040A25
:100DA000DFED560A30EE200A8DED010A01A8FFF7AB
:100DB000CBFFFFF75CFF00EE100AB8EEC00AB1EE01
:100DC000400ADFED4F0A20EE200A84ED000AFFF70B
:100DD0005DFF00EE100AB8EEC00ADFED490A20EE12
:100DE000200A84ED010A9DED010AFFF7A6FFB0EE8F
:100DF000408A03F0A5FCD4ED000A60EE208A9DED48
:100E0000010AFFF79AFFB0EE408A03F0E5FCD4ED4B
:100E1000010A40EEC08A94ED020A38EE800A84EDA1
:100E2000020A9DED010AFFF788FFB0EE408A03F049
:100E3000D3FCD4ED000A60EE208A9DED010AFFF795
:100E40007CFFB0EE408A03F07BFCD4ED010A40EE5B
:100E5000808A94ED030A38EE800A84ED030A02B01A
:100E6000BDEC028B10BD70B50446002604F11000E5
:100E7000FFF76AFF50202349087047204870207A06
:100E80008870607AC870A07A0871E07A4871207B17
:100E90008871607BC871A07B0872E07B4872207CFF
:100EA0008872607CC872A07C0873E07C487300BFC5
:100EB000002505E01348405D3044C6B2681CC5B249
:100EC0000E2DF7DB0F48867302F00AFB70BD0000A1
:100ED000009411001600002044000020280000208B
:100EE00000007AC400007A44A35DC03135FA8E3C1C
:100EF0000000B44300003443000034C3000000008D
:100F00003207FB3B28010020094880470948004779
:100F1000FEE7FEE7FEE7FEE7FEE7FEE7FEE7FEE7A9
:100F2000FEE7FEE704480549054A064B7047000006
:100F3000C5040008890100089801002098070020D6
:100F4000980300209803002032490143324A11607F
:100F5000704770B5002100230F22C4781CB32E4CBB
:100F6000246804F4E064C4F5E064C4F30721C1F12B
:100F70000404E3B20A4144789C40E1B2847814400E
:100F800021430C07210E254C05786155047804F0A7
:100F90001F050124AC4005786D11AD0005F1E02579
:100FA000C5F8004109E0047804F01F050124AC40B5
:100FB0001B4D0678761145F8264070BD194A0A4047
:100FC0000243154B1B1F1A60704739B1124A121D9C
:100FD00012680243104B1B1D1A6006E00E4A121DD8
:100FE000126882430C4B1B1D1A607047042808D1FD
:100FF0004FF0E021096941F004014FF0E022116156
:1010000007E04FF0E021096921F004014FF0E022F0
:10101000116170470000FA050CED00E000E400E00B
:1010200080E100E080FFFF1F10B50446984884422D
:1010300008D10121084600F086FB0021012000F0C4
:1010400082FB76E09348844208D10121022000F01F
:101050007AFB0021022000F076FB6AE08E48844291
:1010600008D10121042000F06EFB0021042000F0D3
:101070006AFB5EE08948844208D10121082000F023
:1010800062FB0021082000F05EFB52E084488442AD
:1010900008D10121102000F056FB0021102000F0A3
:1010A00052FB46E07F48844208D10121202000F015
:1010B0004AFB0021202000F046FB3AE07A488442B7
:1010C00008D10121402000F03EFB0021402000F02B
:1010D0003AFB2EE07548844208D10121802000F0BF
:1010E00032FB0021802000F02EFB22E07048844279
:1010F00008D10121801500F026FB0021A01500F089
:1011000022FB16E06B48844208D10121401500F013
:101110001AFB0021601500F016FB0AE066488442C5
:1011200007D10121001500F00EFB0021201500F071
:101130000AFB10BDF0B50A4600210023002400BFC1
:101140003DE0012505FA01F3156805EA03049C4218
:1011500034D105684F000326BE40B54305601579BC
:101160004E00B5400668354305601579012D02D063
:101170001579022D16D185684F000326BE40B54370
:10118000856055794E00B540866835438560456871
:1011900001268E40B5434560456896798E40B6B2CB
:1011A00035434560C5684F000326BE40B543C56062
:1011B000D5794E00B540C6683543C560491C102935
:1011C000BFD3F0BD4FF6FF71016000210171417185
:1011D0008171C171704708B54FF480320092009A56
:1011E0000A430092009AC261C161009AC261C26959
:1011F0000092C269009208BD0246002013690B40AC
:101200000BB1012000E0002070470146086980B260
:1012100070470246002053690B400BB1012000E0EB
:10122000002070470146486980B2704701837047CB
:10123000418370470AB1018300E0418370474161F7
:10124000704742694A4042617047F0B5002300246C
:101250004D07ED0E02FA05F3CE1000F1200555F80A
:1012600026504E07F70E0F26BE40B543CF1000F1B3
:10127000200646F82750CE1000F1200555F82650DC
:1012800045EA0304CE1000F1200545F82640F0BDE4
:10129000000002400004024000080240000C02402E
:1012A000001002400014024000180240001C0240DE
:1012B000002002400024024000280240F948006853
:1012C00040F00100F74908600020F6490831086045
:1012D000F4480068F4490840F2490860F348091DE1
:1012E0000860F348EF4984310860F0481038091D60
:1012F0000860EC48006820F48020EA49086000207B
:10130000E8490C310860E7498C31086070470021DA
:10131000E44A921C117011460870704710B50146DE
:101320000022002300204A11012A02D1DD4C23684B
:1013300008E0022A03D1DB4C7034236802E0D94C68
:101340007434236801F01F02012494401C400CB146
:10135000012000E0002010BD38B5002000900024DE
:10136000002500BF3120FFF7D9FF05460098401C3B
:1013700000900098B0F5A04F01D0002DF2D03120A0
:10138000FFF7CCFF08B1012400E00024204638BD5F
:1013900001460020C34A106820F0F80040EAC1006E
:1013A00010607047C349086070470021BD4A703221
:1013B00011701170012802D004280AD104E0012123
:1013C000B84A7032117005E00521B64A70321170CA
:1013D00000E000BF00BF7047B7490860704770B5B4
:1013E000049C41EA82150126C6EB530645EA0645F0
:1013F000054345EA0465AB4E361D356070BDAD4909
:1014000008667047820142EA0172A64B84331A6073
:101410007047A8498866704710B5830143EA0163A5
:1014200043EA02739F4C8834236010BDA1490867CA
:101430007047A049C864704702460020994B0833A2
:10144000186820F0EC6042EA01031843954B08331A
:101450001860704702460020924B0833186820F04D
:10146000784042EA010318438E4B083318607047F6
:10147000014600208B4A0832106820F00300084320
:101480001060704787480830006800F00C00704713
:1014900001460020834A0832106820F0F00008431B
:1014A00010607047014600207E4A0832106820F420
:1014B000E05008431060704701460020794A083226
:1014C000106820F4604040EAC10010607047F0B539
:1014D000002100220024022500260223714F083734
:1014E0003F6807F00C0121B1042905D0082937D144
:1014F00005E0724F076036E0714F076033E0694FD7
:101500003F1D3F68C7F38056664F3F1D3F6807F099
:101510003F036EB16A4FB7FBF3F7DFF888C10CF1F8
:10152000040CDCF800C0CCF3881C07FB0CF40CE0C6
:10153000624FB7FBF3F7DFF86CC10CF1040CDCF879
:1015400000C0CCF3881C07FB0CF4564F3F1D3F68CE
:10155000C7F301477F1C7D00B4FBF5F7076002E08D
:10156000564F076000BF00BF4E4F08373F6807F077
:10157000F0010909534F7A5C0768D7404760494F2B
:1015800008373F6807F4E051890A4E4F7A5C476894
:10159000D7408760434F08373F6807F46041490BE5
:1015A000484F7A5C4768D740C760F0BD002100F41F
:1015B0004072B2F5407F0AD13A4A0832116821F4EC
:1015C000F811414A02401143364A08321160354A47
:1015D00070321268C0F30B031A43324B70331A6037
:1015E00070473549443908607047334940390860CD
:1015F000704736490860704701460020294A8C32FE
:10160000106820F01F004A1E1043264A8C321060DA
:10161000704701460020234A8C32106820F4F850AD
:101620004A1E40EA02201F4A8C3210607047014671
:1016300000201C4A8C32106820F4401008431060CF
:10164000704701460020174A8C32106820F4400091
:1016500008431060704701460020124A8C3210681F
:1016600020F4403008431060704719490860704703
:1016700039B10C4A3032126802430A4B30331A60D7
:1016800006E0084A303212688243064B30331A6053
:101690007047F9B1034A343212680243014B3433C4
:1016A0001A601CE000380240FFFFF6EA1030002408
:1016B0000030002000004742800E47420024F40022
:1016C00000127A002C000020FFFCFF0F5C01474253
:1016D000E01147428F4A126882438E4B1A6070476E
:1016E00039B18C4A121D126802438A4B1B1D1A60C5
:1016F00006E0884A121D12688243864B1B1D1A6041
:10170000704739B1834A0C3212680243814B0C3363
:101710001A6006E07F4A0C32126882437D4B0C331C
:101720001A60704739B17B4A103212680243794B14
:1017300010331A6006E0774A103212688243754B04
:1017400010331A60704739B1724A243A1268024362
:10175000704B243B1A6006E06E4A243A12688243BA
:101760006C4B243B1A60704739B16A4A203A1268C0
:101770000243684B203B1A6006E0664A203A126832
:101780008243644B203B1A60704739B1614A1C3A6E
:10179000126802435F4B1C3B1A6006E05D4A1C3A2C
:1017A000126882435B4B1C3B1A60704739B1594A3F
:1017B000143A12680243574B143B1A6006E0554A2C
:1017C000143A12688243534B143B1A60704739B184
:1017D000504A103A126802434E4B103B1A6006E022
:1017E0004C4A103A126882434A4B103B1A607047C9
:1017F00039B1484A1C3212680243464B1C331A6006
:1018000006E0444A1C3212688243424B1C331A6081
:10181000704739B13F4A2032126802433D4B2033B2
:101820001A6006E03B4A203212688243394B20336B
:101830001A60704739B1374A243212680243354B77
:1018400024331A6006E0334A243212688243314B53
:1018500024331A60704739B12E4A2C321268024381
:101860002C4B2C331A6006E02A4A2C321268824331
:10187000284B2C331A60704739B1264A303212682F
:101880000243244B30331A6006E0224A3032126899
:101890008243204B30331A607047012808D11D491C
:1018A0003C31096841F008011A4A3C32116007E0F6
:1018B00018493C31096821F00801164A3C32116090
:1018C000704739B1134A273A12780243114B273B2C
:1018D0001A7006E00F4A273A127882430D4B273BD5
:1018E0001A7070470B484030006840F0807009491A
:1018F00040310860704701460020064A283A1268C5
:101900000A400AB1012000E0002070470149263951
:10191000087070473438024010B50446FA488442D3
:1019200008D101211020FFF752FF00211020FFF7FE
:101930004EFF57E0F548844209D101214804FFF7E2
:1019400035FF00214FF40030FFF730FF4AE0F04848
:10195000844209D101218804FFF728FF00214FF4B8
:101960008020FFF723FF3DE0EA48844209D10121AE
:10197000C804FFF71BFF00214FF40020FFF716FFFC
:1019800030E0E548844209D101210805FFF70EFF48
:1019900000214FF48010FFF709FF23E0DF48844265
:1019A00008D101212020FFF712FF00212020FFF79E
:1019B0000EFF17E0DA48844209D101218807FFF7BA
:1019C000F5FE00214FF08040FFF7F0FE0AE0D54819
:1019D000844207D101214005FFF7E8FE00216005A0
:1019E000FFF7E4FE10BD2DE9FF4705460E46002433
:1019F000A14600BFA046B08900B100BF2C8A24F4E4
:101A00004054F08804432C82AC8941F20C6084433A
:101A1000B08831890843718908430443AC81AC8A9A
:101A200024F44074B0890443AC826846FFF74FFD4C
:101A3000B548854202D0B948854202D1DDF80C9004
:101A400001E0DDF80890A88900F4004040B109EBFE
:101A5000C90000EB091031684900B0FBF1F707E05D
:101A600009EBC90000EB091031688900B0FBF1F700
:101A70006420B7FBF0F004012009642101FB107819
:101A8000A88900F4004040B1322000EBC800B0FB50
:101A9000F1F000F00700044308E0322000EB0810EA
:101AA0006421B0FBF1F000F00F0004432C81BDE88D
:101AB000FF874FF41651016000218180C1800181B0
:101AC0000C21418100218181704710B50246002020
:101AD000108A20F470600B884C8823438C88234341
:101AE000CC8823431843108210BD0021018041801F
:101AF0008180C180704721B1828942F40052828185
:101B000004E082894DF6FF731A4082817047028B90
:101B100002F47F420283028B0A430283704721B1A1
:101B2000828942F40042828103E08289C2F30E027C
:101B30008281704721B1828A42F40062828204E08D
:101B4000828A4FF2FF731A4082827047C1F3080203
:101B50008280704701468888C0F308007047028A77
:101B60004FF6F0731A400282028A0A4302827047DB
:101B700021B1828942F00202828104E082894FF61B
:101B8000FD731A408281704782894FF2FF731A40B9
:101B9000828182890A4382817047028A4FF6DF730D
:101BA0001A400282028A0A430282704721B1028AE5
:101BB00042F48042028204E0028A4BF6FF731A402C
:101BC00002827047818941F001018181704721B112
:101BD000828A42F00802828204E0828A4FF6F7731A
:101BE0001A4082827047028BD2B20283028B42EA91
:101BF00001220283704721B1828A42F02002828250
:101C000004E0828A4FF6DF731A408282704721B166
:101C1000828A42F01002828204E0828A4FF6EF73D9
:101C20001A4082827047828A4FF6FB731A40828282
:101C3000828A0A438282704721B1828A42F002027C
:101C4000828204E0828A4FF6FD731A4082827047D6
:101C50001AB1838A0B43838202E0838A8B43838297
:101C60007047F0B50346002400260025002040F60A
:101C70006A17B94200D100BF1846C1F3421401F0FF
:101C80001F06012707FA06F5012C01D10C3004E0EC
:101C9000022C01D1103000E014301AB107682F4334
:101CA000076002E00768AF430760F0BD024600200E
:101CB000B1F5007F00D100BF13880B400BB10120AC
:101CC00000E00020704701F40072B2F5007F00D1FF
:101CD00000BFCA430280704770B50246002400234B
:101CE0000025002040F66A16B14200D100BFC1F3C2
:101CF000421501F01F03012606FA03F3012D13D14B
:101D00009689334017E00000001001400044004075
:101D100000480040004C00400050004000140140CA
:101D200000780040007C0040022D02D1168A33402A
:101D300001E0968A33400C12012606FA04F4168854
:101D4000344013B10CB1012000E0002070BD10B58B
:101D50000022002340F66A14A14200D100BF0A12FB
:101D600001249440A3B2DC43048010BD10B50446A6
:101D7000FE48844208D101210846FFF728FD0021D2
:101D80000120FFF724FD9DE0B4F1804F08D101212F
:101D90000846FFF70BFD00210120FFF707FD91E04A
:101DA000F348844208D101210220FFF7FFFC002103
:101DB0000220FFF7FBFC85E0EE48844208D10121B8
:101DC0000420FFF7F3FC00210420FFF7EFFC79E08B
:101DD000E948844208D101210820FFF7E7FC0021EF
:101DE0000820FFF7E3FC6DE0E448844208D10121BC
:101DF0001020FFF7DBFC00211020FFF7D7FC61E08B
:101E0000DF48844208D101212020FFF7CFFC0021C8
:101E10002020FFF7CBFC55E0DA48844208D10121AD
:101E20000220FFF7D4FC00210220FFF7D0FC49E09C
:101E3000D548844209D101210804FFF7C8FC0021DC
:101E40004FF48030FFF7C3FC3CE0D048844209D116
:101E500001214804FFF7BBFC00214FF40030FFF7DD
:101E6000B6FC2FE0CA48844209D101218804FFF75B
:101E7000AEFC00214FF48020FFF7A9FC22E0C5480A
:101E8000844208D101214020FFF790FC002140202E
:101E9000FFF78CFC16E0C048844208D10121802065
:101EA000FFF784FC00218020FFF780FC0AE0BB489C
:101EB000844207D101218015FFF778FC0021A0158D
:101EC000FFF774FC10BD00220288A84B98420ED088
:101ED000AC4B98420BD0B0F1804F08D0A44B984245
:101EE00005D0A44B984202D0A34B984204D14FF6A0
:101EF0008F731A404B881A43A04B984207D0A04BCF
:101F0000984204D04FF6FF431A400B891A430280CF
:101F10004B68C3620B880385944B984202D0994B5F
:101F2000984201D18B7A03860123838270474FF058
:101F3000FF31416000210180018141808172704741
:101F40000185828270470A46002101884FF68F730F
:101F5000194011430180704741627047C162704768
:101F60000146486A70470146088D704721B10288D2
:101F700042F00202028004E002884FF6FD731A402C
:101F80000280704721B1028842F00402028004E01E
:101F900002884FF6FB731A400280704721B1028815
:101FA00042F08002028004E002884FF67F731A40FC
:101FB0000280704702884FF6F7731A400280028849
:101FC0000A430280704702884FF6FF431A4002809E
:101FD00002880A430280704721B1028842F0010260
:101FE000028004E002884FF6FE731A4002807047B8
:101FF00070B5002400220023058C4FF6FE76354094
:102000000584028C8388048B4FF68F752C40B51E97
:102010002C400D882C43751E2A408D892A434D88FB
:102020002A43524DA84202D0564DA84213D14FF632
:10203000F7752A40CD892A434FF6FB752A408D88D3
:102040002A434FF6FF652B404FF6FF552B400D8A74
:102050002B434D8A2B43838004838D684563028420
:1020600070BD70B5002400220023058C4FF6EF767A
:1020700035400584028C8388048B48F6FF752C401C
:102080004FF6FF452C400D884FF6FF7606EA0525F2
:102090002C434FF6DF752A408D8906EA05152A4341
:1020A0004D8806EA05152A43304DA84202D0354D29
:1020B000A8421DD14FF67F752A40CD894FF6FF7695
:1020C00006EA05152A434FF6BF752A408D8806EAB1
:1020D00005152A434FF6FF352B404FF2FF752B4075
:1020E0000D8A06EA85052B434D8A06EA85052B43B2
:1020F000838004838D688563028470BD70B500247D
:1021000000220023058C4FF6FF6635400584028CC3
:102110008388848B4FF68F752C404FF6FC752C40CE
:102120000D882C434FF6FF552A408D894FF6FF76D8
:1021300006EA05252A434D8806EA05252A430B4D64
:10214000A84202D00F4DA84238D14FF2FF752A4065
:10215000CD894FF6FF7606EA05252A434FF6FF356F
:102160002A408D8806EA05252A4319E0000001402F
:102170000004004000080040000C00400010004037
:1021800000140040000401400040014000440140B0
:102190000048014000180040001C004000200040A2
:1021A0004EF6FF752B404DF6FF752B400D8A06EA63
:1021B00005152B434D8A06EA05152B43838084833E
:1021C0008D68C563028470BD70B5002200230024B1
:1021D000058C4EF6FF7635400584038C8488828B0F
:1021E00048F6FF752A404FF6FF452A400D884FF606
:1021F000FF7606EA05252A434DF6FF752B408D89AB
:1022000006EA05352B434D8806EA05352B43FE4D7E
:10221000A84202D0FD4DA84208D14BF6FF752C40D4
:102220000D8A4FF6FF7606EA85152C43848082835B
:102230008D680564038470BD002101804180818028
:1022400081608181C18101824182704770B50346FE
:10225000002000241846183001258D40ACB21D8C9A
:10226000A5431D8409B108290AD100EB6100056866
:102270004FF68F76354005600568154305600FE021
:102280000D1FC5F34E052844056848F6FF76354016
:10229000056005684FF6FF7606EA022635430560BD
:1022A00070BD4163704781637047C16370470164CB
:1022B00070470A460021018B4FF68F731940114376
:1022C000018370470A460021018B48F6FF731940CD
:1022D0004FF6FF7303EA02231943018370470A464E
:1022E0000021818B4FF68F73194011438183704712
:1022F0000A460021818B48F6FF7319404FF6FF73A1
:1023000003EA02231943818370470A460021018BA7
:102310004FF6F77319401143018370470A460021B5
:10232000018B4FF2FF7319404FF6FF7303EA02234C
:102330001943018370470A460021818B4FF6F773DA
:1023400019401143818370470A460021818B4FF267
:10235000FF7319404FF6FF7303EA02231943818389
:1023600070470A460021018B4FF6FB731940114359
:10237000018370470A460021018B4FF6FF33194055
:102380004FF6FF7303EA02231943018370470A469D
:102390000021818B4FF6FB731940114381837047F5
:1023A0000A460021818B4FF6FF3319404FF6FF7329
:1023B00003EA02231943818370470A460021018BF7
:1023C0004FF67F7319401143018370470A4600217D
:1023D000018BC1F30E014FF6FF7303EA0223194389
:1023E000018370470A460021818B4FF67F731940A5
:1023F0001143818370470A460021818BC1F30E018E
:102400004FF6FF7303EA02231943818370470A469C
:102410000021018C4FF6FD73194011430184704770
:102420000A460021018C4FF6F773194011430184CD
:1024300070470A460021018C4FF6DF7319404FF6B2
:10244000FF7303EA02131943018470470A4600210F
:10245000018C4FF67F7319404FF6FF7303EA0213A6
:102460001943018470470A460021018C4FF6FF533F
:1024700019404FF6FF7303EA0223194301847047A2
:102480000A460021018C4FF2FF7319404FF6FF738B
:1024900003EA02231943018470470A460021018C94
:1024A0004DF6FF7319404FF6FF7303EA02331943E9
:1024B0000184704730B5002301248C40A3B2048C02
:1024C0009C430484048C02FA01F5ADB22C430484CD
:1024D00030BD30B5002304248C40A3B2048C9C434F
:1024E0000484048C02FA01F5ADB22C43048430BD9F
:1024F000828B4FF2FF331A408283828B4FF6FF7339
:1025000003EA01231A4382837047F0B50C4615464F
:10251000002100220026078C4EF6FF7C07EA0C07FC
:102520000784818B028C4FF6FF7707EA043640F66A
:10253000FF4739404FF6FF7707EA052739434FF643
:10254000FF7707EA0337394345F6FF773A4046F409
:1025500080573A4381830284F0BD828B4FF6F37338
:102560001A408283828B0A4382837047F0B50C46FF
:102570001546002100220026078C4FF6FF6C07EA63
:102580000C070784818B028C4FF6FF7707EA04263D
:102590004FF60C7739404FF6FF7707EA03172F43C2
:1025A00039434FF2FF573A4046F480773A438183EC
:1025B0000284F0BD028B4FF2FF331A400283028B7C
:1025C0004FF6FF7303EA01231A4302837047F0B505
:1025D0000C461546002100220026078C4FF6EF7CA2
:1025E00007EA0C070784018B028C4FF6FF7707EA96
:1025F000041640F6FF4739404FF6FF7707EA0337E6
:1026000039434FF6FF7703E000000140000401402A
:1026100007EA052739434FF65F773A4046F010073F
:102620003A4301830284F0BD028B4FF6F3731A40E4
:102630000283028B0A4302837047F0B50C461546AD
:1026400000210022068C4FF6FE773E400684018B67
:10265000028C4FF60C7631407E1C06EA03162E43A0
:1026600031434FF6F576324044F0010632430183A0
:102670000284F0BD70B505460C46208850B9238908
:10268000A28861882846FFF7D8FFE1882846FFF72F
:10269000CBFF25E0208804280AD12389A2886188FD
:1026A0002846FFF794FFE1882846FFF783FF17E0ED
:1026B000208808280AD12389A28861882846FFF744
:1026C00055FFE1882846FFF748FF09E02389A288E3
:1026D00061882846FFF719FFE1882846FFF708FFC1
:1026E00070BD002101804180012181800021C180D5
:1026F000018170472DE9F04105460C46002601276F
:10270000608808B9022600E00026A088012801D1CF
:10271000022700E001272088A0B92389A2886188C8
:102720002846FFF78AFFE1882846FFF77DFF2389C7
:102730003A4631462846FFF74AFFE1882846FFF728
:1027400039FF13E02389A28861882846FFF73FFFFD
:10275000E1882846FFF72EFF23893A46314628466E
:10276000FFF76BFFE1882846FFF75EFFBDE8F081C9
:102770000146486B70470146886B70470146C86B3D
:1027800070470146086C70470A884B881A438B884B
:102790001A43CB881A430B891A434B891A438B89F6
:1027A0001A43A0F8442070470021018041808180B5
:1027B000C180018141818181704731B1B0F84420ED
:1027C00042F40042A0F8442005E0B0F84420C2F3EF
:1027D0000E02A0F84420704721B1828842F0040222
:1027E000828004E082884FF6FB731A408280704733
:1027F00021B1828842F00102828004E082884FF693
:10280000FE731A40828070471AB183890B4383811B
:1028100002E083898B43838170478182704702463F
:102820000020138A0B400BB1012000E0002070470C
:10283000CA430282704730B50246002000230024BC
:10284000158A05EA0103958905EA010413B10CB163
:10285000012000E0002030BDCA430282704741EAF7
:102860000203A0F8483070471AB183890B43838173
:1028700002E083898B438381704721B1828842F0D3
:102880000802828004E082884FF6F7731A40828043
:10289000704701894FF6F8721140018170470A466E
:1028A000002101894FF68F73194011430181704750
:1028B00030B504460D4629462046FFF7F0FF208933
:1028C00040F00700208130BD2DE9F04104460D465F
:1028D00016461F46602D06D13B4601223146204652
:1028E000FFF775FE05E03B46012231462046FFF723
:1028F000A4FE29462046FFF7D2FF208940F00700BA
:102900002081BDE8F08130B50C4600210189C9B2B3
:102910004FF6FF7505EA0325154325432943018139
:1029200030BD2DE9F04105460E4617469846002475
:1029300043463A4631462846FFF7E5FF2C894FF6D5
:10294000F870044044F007044FF68F70044044F0E0
:1029500070042C81BDE8F081F0B504460D461646A2
:102960001F463B46324629462046FFF7CCFF2089CA
:1029700040F480402081F0BD82884FF68F731A406A
:10298000828082880A438280704702894FF6F873FA
:102990001A40028102890A430281704702894FF678
:1029A0007F731A40028102890A4302817047F0B5A1
:1029B0000C4615461E460021002200230189028B89
:1029C000038C4FF6F877394021434FF6FC473A40E5
:1029D00040F201173A434FF6DD773B404FF6FF7761
:1029E00007EA06172F433B43018102830384F0BDAE
:1029F00021B1828842F08002828004E082884FF612
:102A00007F731A4082807047A0F850107047000012
:102A1000016821F0010101600021016041608160D5
:102A2000C160016121214161DB49884204D13D211E
:102A3000D94A103A91608CE0D7491831884205D1C3
:102A40004FF47461D44A103A916082E0D249303137
:102A5000884205D14FF47411CF4A103A916078E062
:102A6000CD494831884205D14FF07461CA4A103AC5
:102A700091606EE0C8496031884204D1C749C64AB6
:102A8000103AD16065E0C4497831884204D1C44924
:102A9000C14A103AD1605CE0BF499031884204D10C
:102AA000C049BD4A103AD16053E0BB49A8318842C1
:102AB00005D14FF03D51B84A103AD16049E0BA49CA
:102AC000884204D13D21B84A083A116041E0B64934
:102AD0001831884205D14FF47461B34A083A116045
:102AE00037E0B1493031884205D14FF47411AE4A14
:102AF000083A11602DE0AC494831884205D14FF0C9
:102B00007461A94A083A116023E0A74960318842FC
:102B100004D1A249A44A121F11601AE0A2497831D7
:102B2000884204D19E49A04A121F116011E09E49BB
:102B30009031884204D19B499B4A121F116008E0E2
:102B40009949A831884204D14FF03D51964A121F4D
:102B50001160704710B500220268944B1A40CC688F
:102B60000B6823434C6923438C692343CC6923437B
:102B70000C6A23434C6A23438C6A23434C6B2343E4
:102B80008C6B23431A430260426922F00702D1E9A9
:102B90000B3423431A4342610B6943604B688360E3
:102BA0008B68C36010BD0021016041608160C1601D
:102BB000016141618161C161016241628162C16201
:102BC000016341638163704721B1026842F00102F1
:102BD000026003E0026822F001020260704721B146
:102BE000026842F40042026003E0026822F40042FC
:102BF0000260704721B1026842F02002026003E0E7
:102C0000026822F02002026070474160704701466E
:102C1000486880B2704722B1036843F40023036020
:102C200003E0036823F4002303600161704721B1CE
:102C3000026842F48022026003E0026822F48022EB
:102C4000026070470AB1016100E0C160704701464F
:102C500000200A6802F400220AB1012000E00020EE
:102C60007047014600200A6802F001020AB1012003
:102C700000E000207047014600204A6902F0380059
:102C8000704730B503460A4600200024464DAB424B
:102C900002D24149103901E04349103902F0005590
:102CA0000DB14C6800E00C68414D2C4004EA02056F
:102CB0000DB1012000E0002030BD02463A4B9A429F
:102CC00002D23548103801E03748103801F000537F
:102CD0001BB1374B0B40C36002E0354B0B408360A8
:102CE000704710B501F080034BB122B1436943F046
:102CF0008003436103E0436923F08003436180293B
:102D00000BD02AB1036801F01E042343036004E0E2
:102D1000036801F01E04A343036010BD70B50246B2
:102D2000002000240025204EB24202D21A4B103B54
:102D300001E01D4B103B1F4E0E4036B11E2606EA29
:102D4000D124166806EA040502E0566906F08005FB
:102D500001F000560EB15C6800E01C68144E34406F
:102D600004EA010616B10DB1012000E0002070BD9B
:102D700002460D4B9A4202D20748103801E00A4839
:102D8000103801F000531BB1094B0B40C36002E047
:102D9000074B0B4083607047106002403D000020ED
:102DA000400F002000003D20106402403F801CF0D6
:102DB0007D0F7D0F3C0F3C0F10B50446FB4884424D
:102DC00008D101218014FEF702FD0021A014FEF7B6
:102DD000FEFC3CE0F648844208D101210014FEF7D5
:102DE000E5FC00212014FEF7E1FC30E0F1488442CC
:102DF00008D10121C013FEF7D9FC0021E013FEF732
:102E0000D5FC24E0EC48844208D101214014FEF7AF
:102E1000DEFC00216014FEF7DAFC18E0E74884428B
:102E200009D101210805FEF7D2FC00214FF48010E2
:102E3000FEF7CDFC0BE0E248844208D101214805B1
:102E4000FEF7C5FC00214FF40010FEF7C0FC10BDDA
:102E500010B50022028802F441520B884C882343AB
:102E60008C882343CC8823430C8923434C892343F8
:102E70008C892343CC8923431A430280838B4FF2EE
:102E8000FF74234083830B8A038210BD2DE9F04F2A
:102E90000025022300244FF001090022002600270C
:102EA00094469046B0F81CA04FF2400B0AEA0B0A79
:102EB000A0F81CA04FF0020AA0F820A0858BD1F842
:102EC00008A0BAF1020F01D100BF82E0B1F804A05E
:102ED000BAF1000F02D14FF0010901E04FF00209F1
:102EE000DFF8E0A2DAF800A00AF4000ABAF1000F55
:102EF00009D0DFF8D0A2DAF800A02AF4000ADFF83F
:102F0000C4B2CBF800A0DFF8BCA20AF17C0ADAF860
:102F100000A0CAF3881CDFF8ACA20AF17C0ADAF838
:102F200000A0CAF30278DFF89CA2AAF1040ADAF83A
:102F300000A00AF03F07DFF88CA2AAF1040ADAF831
:102F400000A00AF4800ABAF5800F08D1DFF878A251
:102F5000BAFBF7FA0AFB0CFABAFBF8F607E0DFF85F
:102F60006CA2BAFBF7FA0AFB0CFABAFBF8F6B1F856
:102F700006A0BAF5007F0ED14FEA162A0AEB8A0A9C
:102F80004FEA4A0AD1F808B0BAFBFBFA0AF1050A7F
:102F90001FFA8AF20FE04FEA491AB6FBFAFA0AEB77
:102FA0008A0A4FEA4A0AD1F808B0BAFBFBFA0AF1DA
:102FB000050A1FFA8AF24FF00A0AB2FBFAF202F08F
:102FC0000104A2EB040ACAF34F034FF6FF7A0AEAA0
:102FD0000424022B01DBFF2B01DD02230024B1F8C6
:102FE00006A04AEA040A4AEA030AA0F820A0B1F8B7
:102FF00004A0B1F80CB04AEA0B0AB1F802B04AEAF0
:103000000B0AB1F800B04AEA0B0A4AF4006A4AEA2D
:1030100005058583BDE8F08F002101804180818016
:10302000C180018141818181C18107210182704775
:103030000021018041808180C180022181600021C6
:103040008181704721B1028842F04002028004E091
:1030500002884FF6BF731A400280704721B1828BFD
:1030600042F48062828304E0828B4FF6FF331A4081
:103070008283704702884FF2FF731A4002800288F1
:103080000A4302807047B1F5804F04D1028842F4B0
:103090008042028004E002884BF6FF731A400280EF
:1030A00070474FF6FF62914204D0028842F480726A
:1030B000028004E002884FF6FF631A4002807047E6
:1030C00021B1828842F00402828004E082884FF6B7
:1030D000FB731A408280704721B1828842F010024F
:1030E000828004E082884FF6EF731A408280704736
:1030F00030B500220023848B4FF240052C4084839E
:1031000002240484828B0C88B4F5007F01D00C88E3
:1031100014B94FF4807308E00C88B4F5407F03D0F5
:103120000C88B4F5807F00D100238C888D892C43D6
:103130004D882C431C4344F400642243828330BDF9
:103140000146888970478181704721B1028842F425
:103150000052028004E002884DF6FF731A4002809C
:103160007047018841F48051018070470246002079
:10317000012901D0108B00E0908A70470146088A2F
:1031800070471AB183880B43838002E083888B43A6
:103190008380704730B5002400230C110125A54021
:1031A000ABB2AAB185881D43858014E00030014090
:1031B00000380040003C0040003401400050014015
:1031C000005401400838024000127A000024F40044
:1031D00085889D43858030BD0246002013890B40C1
:1031E0000BB1012000E000207047CA430281704704
:1031F000F0B50246002000240023002501F00F074F
:103200000126BE40B4B20B1101269E40B3B296888F
:1032100006EA03051689264016B10DB1012000E02B
:103220000020F0BD10B5002201F00F040123A340DF
:103230009AB2D343038110BD10B504466FF0040069
:10324000FDF7D4FEE11704EB5171C1F3C701394A10
:1032500011701046007800EB4001C1EBC0104FF632
:10326000FF7101EAC0003449088010BD0146314AAF
:1032700012784A434FF0E0235A6100229A611A46BD
:10328000126942F001021A6100BF4FF0E02210699A
:1032900000F001021AB100F48032002AF5D04FF09C
:1032A000E022126922F001024FF0E0231A610022AD
:1032B0009A6170470146204A12884A434FF0E02342
:1032C0005A6100229A611A46126942F001021A619B
:1032D00000BF4FF0E022106900F001021AB100F4C3
:1032E0008032002AF5D04FF0E022126922F001026C
:1032F0004FF0E0231A6100229A61704770B50446CE
:103300004FF4077094FBF0F0C6B24FF4077094FBD3
:10331000F0F100FB114085B205E04FF40770FFF7B4
:10332000C9FF701EC6B2002EF7D115B12846FFF7AF
:10333000C1FF70BD3C0000203E0000200FB430B53E
:10334000CBB0054601AC50A800904FF4947101A891
:10335000009B4F9A00F074F9002000900BE014F8E5
:10336000011B2846FEF7F2FB00BF40212846FEF76E
:103370009DFC0028F9D020780028F0D14BB030BC5B
:103380005DF814FB10B596B0044601210846FEF71F
:103390006FF901211020FEF7C5F901218805FEF71C
:1033A00067F9072209219D48FDF74FFF07220A21EF
:1033B0009A48FDF74AFF9A48FFF72AFB00BF984852
:1033C000FFF74FFC0028FAD14FF0006000909548BD
:1033D000019095480290402003900F200490002017
:1033E00005904FF4806006900020079008900990A7
:1033F0004FF400300A9000200B9003200C90002026
:103400000D900E9069468648FFF7A4FB46208DF884
:103410003C0001208DF83D008DF83E008DF83F0006
:103420000FA8FDF796FD4FF020517D48FFF745FCB2
:10343000012214217A48FFF754FC012280217948A7
:10344000001FFEF705FC4FF4C060149002208DF8B9
:1034500054008DF8550000208DF8560001208DF89D
:10346000570014A96D48FDF765FE10940020ADF8D3
:103470004400ADF84600ADF84800ADF84C000C2013
:10348000ADF84A0010A96748001FFEF7ACFA012109
:103490006448001FFEF72FFB012240F226616148BD
:1034A000001FFEF7DEFB40215E48001FFEF70BFC0D
:1034B000012240F225515B48001FFEF7D2FB252078
:1034C0008DF83C0000208DF83D0003208DF83E0073
:1034D00001208DF83F000FA8FDF73BFD16B010BD91
:1034E00010B55248007878B94FF020514C48FFF79A
:1034F000E4FB0F214A48FFF788FB01214848FFF70A
:1035000063FB01204949087010BD10B588B004461E
:1035100001210420FEF7ACF801218804FEF7F1F840
:1035200007220A214248FDF790FE07220B2140485E
:10353000FDF78BFE4FF44060069002208DF81C00D2
:103540008DF81D0000208DF81E0001208DF81F0051
:1035500006A93748FDF7EEFD02940020ADF80C00F7
:10356000ADF80E00ADF81000ADF814000C20ADF869
:10357000120002A92F48FEF736FA01212D48FEF766
:10358000BAFA40212B48FEF79EFB27208DF8040055
:1035900000208DF8050003208DF8060001208DF82D
:1035A000070001A8FDF7D5FC08B010BD10B500BF9D
:1035B00040F227711B48001FFEF78EFB48B900221E
:1035C00040F226611748001FFEF74BFB0020174909
:1035D000087040F225511348001FFEF77DFB48B9E3
:1035E0001048001FFEF7B6FAC4B2782C02D10120B1
:1035F0001149087010BD10B510490948FFF78EFB3E
:1036000050B10E490648FFF758FB012240F22661EF
:103610000448001FFEF725FB10BD0000000002401B
:10362000B86402400410014028010020400000203E
:1036300000080240004800404100002000800028AF
:103640007CB51D4616460C00009001D02044401E5B
:10365000074B7B442A4669460190304600F0C5F886
:1036600005461CB10020694600F0D2F828467CBD12
:10367000C501000070477047704770B50446856902
:103680000068C10601D5302600E02026C00707D01B
:1036900070BDD4E9012130469047206A401C206269
:1036A0006D1EF6D570BD70B5044685690078C007FB
:1036B00007D170BDD4E9012120209047206A401C29
:1036C00020626D1EF6D570BD09684A0501D540B26D
:1036D0007047C905FCD500B2704709684A0501D595
:1036E000C0B27047C905FCD580B2704770B50C46B2
:1036F0000546012A05D02878800600D5EA6900230E
:1037000002E0012305E05B1C934202D2E05C00284A
:10371000F9D1A869E618C01AA861286A1844286275
:103720002846FFF7AAFF04E0D5E9012114F8010BB0
:103730009047B442F8D32846FFF7B5FF70BD0000AC
:103740002DE9F0410646002410687529314616A57A
:1037500010D0FFF7B9FF002802DA404213A507E0B6
:1037600031688A0701D512A502E0490704D511A5E1
:10377000012401E0FFF7B1FF00210A2206F124072E
:1037800009E0B0FBF2FCB0FBF2F302FB1C003030AE
:1037900078541846491C0028F3D123462A4630465F
:1037A000BDE8F04100F069BA000000002D00000003
:1037B0002B0000002000000011680268006A530519
:1037C00001D508700AE0D30501D5088006E013068C
:1037D00003D5C217C1E9000200E00860012070476C
:1037E00001694A1C02610878704700B58FB0CDE9C5
:1037F00001310021059105497944CDE903101146B5
:10380000684600F031F90FB000BD0000E5FFFFFF92
:103810000A6802F8010B0A607047D1E900239A4256
:1038200002D2531C0B601070704700002DE9FF5F3F
:1038300015468A460446DFF8AC80F8440027D8E9EC
:1038400000103E46CDE9001010E03AF816106A4626
:1038500002A800F023FE411C07D02178890603D579
:10386000E269391891420DD80744761C2078800609
:1038700002D5E069B84205DDAE42E6DB3AF8160053
:103880000028E2D1A069C01BA0612046FFF7F5FE29
:10389000D8E90010CDE90010002017E03AF8181020
:1038A0006A4602A800F0FAFDB0F1FF3F81460BD056
:1038B00000250DF1080B05E0D4E901211BF80500F6
:1038C00090476D1C4D45F7D308F10100B04280468A
:1038D000E4DB206A384420622046FFF7E4FEBDE8BE
:1038E000FF9F0000361900002DE9F0418046D21DEF
:1038F00022F007020025D2E90002F52915A614D00E
:10390000011E72F1000106DA0023D0EB030063EB25
:10391000020211A608E0D8F800108B0701D50FA607
:1039200002E0490701D50EA601251146002408F141
:10393000240704E000F05CF930323A55641C50EA88
:103940000102F7D12B46324621464046BDE8F04100
:1039500000F093B9000000002D0000002B000000D3
:103960002000000030B4002100F1240408E002F03F
:103970000705D208303542EA4372DB086554491C1A
:1039800052EA0305F3D10468002310A2250708D5E5
:1039900004F020040C4304D0C46901230CA2641E6B
:1039A000C46130BC00F069B910B504462146106806
:1039B000FFF793FE02462046BDE810400023D1E702
:1039C000D21D22F00701D1E90023CBE7000000005F
:1039D00030000000F0B40D460188090502D5214CE5
:1039E0007C4402E01F4C7C440E34002100F124068C
:1039F00008E002F00F071209E75D42EA03721B09B3
:103A00007754491C52EA0307F3D1027800231207C6
:103A100004D5702D06D009B1022311342246F0BC22
:103A200000F02BB901231034F8E770B504460D46B9
:103A300021461068FFF751FE024629462046BDE8A0
:103A400070400023C6E7D21D22F00703D3E900230C
:103A5000C0E70368126843F0200303600823C361D2
:103A60000023B7E7981700002DE9F05F8946044668
:103A70004FF0000ADFF874B1FB44C0F820A02046E4
:103A8000E1688847002874D0252806D0D4E90121B0
:103A90009047206A401C2062F1E700265F462046DE
:103AA000E16888472028054607DB312D05D27819C3
:103AB00010F8200C08B10643F1E7B00701D526F055
:103AC0000406C4F81CA00027C4F818A02A2D09D0A9
:103AD000284601F09CFA38B304EB8708303DC8F85B
:103AE000185019E059F8041B204604EB8702916135
:103AF000E1688847012F054618D1E069002820DADF
:103B000026F020061DE0D8F8180000EB800005EB39
:103B100040003038C8F818002046E168884705465C
:103B200001F075FA0028EED1012F0AD02E2D08D110
:103B30002046E16888477F1C0546022F46F0200694
:103B4000C4DBA069002803DA404246F00106A06108
:103B5000F00701D026F010066C2D0BD0682D09D08F
:103B60004C2D39D06A2D35D0742D35D07A2D33D0E7
:103B700016E038E0E1682F4620468847B8420546FF
:103B800009D16C2F26D04FF48060E16806432046AF
:103B90008847054604E06C2F1AD04FF48070064326
:103BA0000DB3A5F14100192802D8203546F400666E
:103BB0004A462946204626604E46FCF71FFB80B148
:103BC00001280BD0F61D26F0070000F1080956E782
:103BD0004020E4E78020D8E70020D6E706F104097A
:103BE0004DE7284652E7206ABDE8F09F28170000FD
:103BF00030B5B0F10A024FEA900E71F100034EEABF
:103C0000817EB0EB0E0061EB91014FEA101E4EEA8F
:103C1000017E10EB0E0041EB11114FEA102E4EEA1F
:103C2000016E10EB0E0041EB11214FEA104E4EEAEF
:103C3000014E10EB0E0041EB1141401841F1000123
:103C40004FEAD00040EA41704FEAD10110EB800505
:103C50004FEA810444EA907444EB01046D1944EB8B
:103C60000404521BA3414FF0000348BF0A3200D5A1
:103C700030BD401C41F1000130BD2DE9F0470D463B
:103C800099469246044600F124080168880604D546
:103C9000E06921F01001216000E00120A84201DD6F
:103CA000471B00E00027A1697A1902EB0900081AF6
:103CB000A0612078C00602D42046FFF7DEFC002673
:103CC00008E0D4E901211AF806009047206A401C58
:103CD000761C20624E45F4DB2078C0060AD52046CB
:103CE000FFF7CBFC06E0D4E9012130209047206AA1
:103CF000401C2062381EA7F10107F4DC07E0D4E97C
:103D0000012118F805009047206A401C2062281EF7
:103D1000A5F10105F3DC2046FFF7C5FC207800067D
:103D200002D50220BDE8F0870120FBE770472DE9AE
:103D3000FF4F0C461E464FF0FF378BB0D2E9000113
:103D4000DDF860800A908A46C1F30A5505B93D4600
:103D5000002108464FF00000BAF1000F00F44000C7
:103D600005DA00EB80004FF4400101EA50004FEA11
:103D70009059B9F1010F00DDB9460A9850EA4A009E
:103D80000ED044F61050A5F2FF3545432F14B8F17C
:103D9000000F1ED07542291E1EDDC9F100021CE075
:103DA000B8F1010F4FF0000001D0302103E0F243E1
:103DB00005E02154401CB042FBDB304600220021CC
:103DC00021540B99C1F80880C1E900200FB0BDE86B
:103DD000F08FBD1B6D1CDEE74A4600DA694206A87B
:103DE00000F0EEFB06AB93E8070003AB83E80700A7
:103DF00050460A9900F038FD8DE80700A0F5005004
:103E00001F3800900398002D09DD42F21F014A4639
:103E1000084403A90390684600F097FF08E0A0F566
:103E200000504A461F3803A90390684600F0A1FFDE
:103E30008DE807000004000C03D04FF0FF3041086C
:103E400000E01046B8F1000F03D0002200921546A2
:103E50001EE0751E05D4FFF7CBFE303262556D1E95
:103E6000F9D5B3460122084302D000227F1C04E0AA
:103E70002078302801D100227F1E002A099786D0A1
:103E80001DE0112D07DAFFF7B3FE303262556D1CCD
:103E900050EA0102F5D1084302D00098C8B10EE003
:103EA0000021681E05E0235C625C63542254401EBE
:103EB000491C8142F7DBAB46A81B401E099000203D
:103EC00004F80B000B98099AC0F80880C0E9002B91
:103ED0007CE711264FF0000859E72DE9F04F88469E
:103EE0000446D21D22F0070191B0D1E90001CDE9CD
:103EF0000A0101F074F802460B98C00F01D02D2082
:103F000007E02068810701D52B2002E0202101EA8B
:103F1000C000032A099001D0072A05DB0346414669
:103F2000204600F00DFB0BE12078800601D5E0690A
:103F300000E00620B8F1650F814606D0B8F1660FA3
:103F400018D0B8F1670F70D131E00020B9F1110F2E
:103F5000009001DB112301E009F101030AAA01A984
:103F60000CA8FFF7E4FEDDE90C70002609F101055D
:103F7000834647E001204B4600904FF000470AAAD5
:103F800001A90CA8FFF7D3FEDDE90DB00C995D4641
:103F9000002610B909F101000D18B9EB050003D492
:103FA000C0F1FF3609F10105A5EB09002BE0B9F1DD
:103FB000010F01DA4FF001090020B9F1110F009053
:103FC000484601DD112300E003460AAA01A90CA816
:103FD000FFF7ADFEDDE90C704D46002683462078E4
:103FE00000070AD4AB4500DA5D4601A8012D04DDC7
:103FF000411911F8011C302907D04F4502DA17F199
:10400000040F04DA012082460FE06D1EEEE7002F58
:1040100002DCED1B3E4403E0781CA84200DD7D1C61
:10402000B81B00F1010A4FF000472078000703D4C5
:10403000AA4501DB4FF0FF3A0021B7F1004F0DF127
:1040400043088DF8431024D002202B23002F01DADF
:104050007F422D230A21021EA0F1010000DC5FB186
:1040600097FBF1FC97FBF1F201FB1C7C17460CF16E
:10407000300C08F801CDEEE7A8F1010003702188AB
:10408000090501D5452100E06521A0F1010800F8EE
:10409000011C09980FA9A1EB0807FF1D00B1012021
:1040A000411901EBEA70A1693844081A401EA06169
:1040B0002078C00602D42046FFF7DFFA099828B11D
:1040C000D4E901219047206A401C20622078C00674
:1040D00022D52046FFF7D1FA1EE0002E04DBB345BF
:1040E00002DD01A8805D00E03020D4E90121904785
:1040F000206A401C2062761CAAF101005FEA000AD7
:104100000AD100F019FAC0680168405CD4E90121C5
:104110009047206A401C2062281EA5F10105DCDCC6
:1041200007E0D4E9012118F8010B9047206A401CF0
:104130002062381EA7F10107F3DC2046FFF7B3FA2F
:10414000032011B043E600002DE9F04F04460D4670
:10415000D21D22F0070089B0D0E9009248461746E8
:10416000394600F03CFF0246F80F01D02D2307E04E
:104170002068810701D52B2302E0202101EAC0033A
:104180008DF820300BB1012000E00020032A824688
:1041900001D0072A04DB2946204600F0D1F93DE191
:1041A0002078800601D40D2500E0E569C7F30A56A2
:1041B0000D2D49DA00214FEA175B08464FF0000049
:1041C000002F00F4400007DA00EB80004FF44001BC
:1041D00000EBD07001EA60008115012901DD4FF08C
:1041E000FF3100224FEA850CBCF1180F06D31346AD
:1041F000ACF118004FF08052C24003E04FF480133E
:1042000023FA0CF30CF10C0CBCF1200F04D3ACF12D
:10421000200C09FA0CF001E007FA0CF000294FF02D
:10422000004801DD18B90FE00ED140450CD319EB61
:1042300002095F4121B9404502D19F4329EA0209A1
:10424000BBEB175F00D0761C2088000502D57B48A9
:10425000784402E079487844193808AA302302F8F3
:104260000A30037C0AF10101002E0AF1020A5354BC
:104270006A4602DC4FF0300101E04FF031014FF0AF
:1042800001088DF8001002D0A6F2FF3603E059EACB
:10429000470100D06A4E002D02DC2178090704D5C1
:1042A0004FF002082E218DF80110C44600210BE0CA
:1042B000C7F303433F01C35C491C6D1E02F808307D
:1042C000052908F1010801DA002DF1DC00210CE0DC
:1042D00000EB1973491C1B786D1E082902F8083081
:1042E0004FEA091908F1010801DA002DF0DC217804
:1042F000890602D514E0A8F10108E04505DD02EBCE
:10430000080111F8011C3029F5D0B8F1000F07DDC4
:1043100002EB080111F8011C2E2901D1A8F10108B6
:10432000002D05DD3E2102F808106D1E08F1010880
:10433000407C002E02F8080008F1010804DA2D2064
:10434000764202F8080002E02B2002F808000A2159
:104350004FF47A70864208F101080BDB96FBF0F30C
:10436000303302F8083096FBF0F308F1010800FB47
:10437000136601E0642E0CDB642096FBF0F330330F
:1043800002F8083096FBF0F308F1010800FB136611
:1043900001E00A2E06DB96FBF1F0303002F808004F
:1043A00008F1010896FBF1F001FB1060303002F8D3
:1043B0000800A16908F1010808EB050202EB0A00F8
:1043C000081AA0612078C00602D42046FFF755F9EC
:1043D000216A08AE01EB0A00206204E0D4E9012161
:1043E00016F8010B9047BAF1010AF7D22078C006FF
:1043F00002D52046FFF741F96E4609E016F8010B99
:104400003E280FD0D4E901219047206A401C206249
:10441000B8F10108F2D22046FFF745F909B00320B0
:10442000BDE8F08F206A2844206203E0D4E901212E
:10443000302090476D1EEBD3F8E70000740F0000AA
:1044400002FCFFFF10B5436913B1AFF3008001E038
:10445000FFF74CF9012010BD127800F124010A7019
:1044600000224A700122EDE711684FF0FF32E9E7C0
:1044700010B5436913B1AFF3008001E0FFF7D6F93F
:10448000012010BD128800F1240182840022C28420
:104490000122EDE711684FF0FF32E9E770B51646EB
:1044A0000C46054600F040F8036893F80101012826
:1044B00006D0FF2C0FD8185D68B101202C7070BD9C
:1044C000D3F807013246214603F207130344284676
:1044D000BDE8704018474FF0FF3070BD754600F0E2
:1044E000E3F8AE4605006946534620F007008546CE
:1044F00018B020B5FCF716FDBDE820404FF00006CF
:104500004FF000074FF000084FF0000B21F00701BB
:10451000AC46ACE8C009ACE8C009ACE8C009ACE8FE
:10452000C0098D467047000010B500F005F8001D69
:1045300010BD00BF150B0000004870475801002057
:104540002DE9F0411F46044603260168072A01F4BD
:10455000006004DB08B116A505E016A503E008B16C
:1045600015A500E015A521F010002060A069C01E6F
:10457000A0610FB1401EA0612046FFF77EF84FB149
:10458000D4E9012138469047206A401C2062C01CB3
:10459000206206E0206AFAE7D4E9012115F8010B50
:1045A0009047761EF8D22046FFF77DF8BDE8F081EF
:1045B0004E414E006E616E00494E4600696E6600C7
:1045C0002DE9F047814616468AB0334878440DC835
:1045D0008DE80D0030487844801C03AC0DC884E899
:1045E0000D0041F69B300844372190FBF1F290FB1F
:1045F000F1F5A5F1800501FB12041B3C02D56442D4
:10460000012000E00020DFF890A080460027FA4457
:10461000AAF1BE0A0DE0E00709D03246684607EB72
:1046200047010AEB810100F0A4FB8DE8070064104C
:104630007F1C002CEFD1184F7F44AC3F18E0E807F7
:1046400014D007EB04100DF1180A90E80E008AE868
:104650000E00C068F04201D198190890324606A9B0
:1046600003A800F086FB03AB83E807006D10641C11
:10467000002DE4D132466946B8F1000F03A802D0FC
:1046800000F063FB01E000F074FBC9E90001C9F828
:1046900008200AB0BDE8F087880C00000446AFF39C
:1046A00000802046FBF70FFE0048704738010020CD
:1046B0004FF0013C50F8042B51F8043B9A4221D1B1
:1046C000A2EB0C03934313EACC1317D150F8042B3D
:1046D00051F8043B9A4215D1A2EB0C03934313EA21
:1046E000CC130BD150F8042B51F8043B9A4209D15A
:1046F000A2EB0C03934313EACC13DBD04FF0000082
:10470000704700BFD01A01BAB1FA81F101F0180167
:1047100022FA01F0CB40C1F12001DBB2C0B2C01AD5
:104720002CFA01F3D11A914311EAC311E6D1704773
:1047300001491820ABBEFEE72600020070470000CA
:104740009FED221A9FED222A20EE010AB5EE001AF3
:1047500030EE010ABDEEC01A11EE100AB5EE400AA5
:10476000F1EE10FAB8BF013801EE100AB8EEC11A26
:1047700030EE410A20EE020ABDEEC01A9FED152A66
:1047800011EE100A002130EE021AB1EB502F45F263
:1047900070211CBF0020B0EE410AC0F6000101EEFE
:1047A000100A01EB8001B8EE411A30EE410A91ED9A
:1047B000001A91ED012AB7EE003A33EE403A23EEAB
:1047C000011A20EE020A31EE000A704783F9223EF8
:1047D00000000044000000C49FED201A9FED202A35
:1047E00020EE010ABDEEC01A11EE100AB5EE400A25
:1047F000F1EE10FAB8BF013801EE100AB8EEC11A96
:1048000030EE410A20EE020ABDEEC01A9FED152AD5
:1048100011EE100A002130EE021AB1EB502F45F2D2
:1048200070211CBF0020B0EE410AC0F6000101EE6D
:10483000100A01EB8001B8EE411A30EE410A91ED09
:10484000001A91ED012AB7EE003A33EE403A23EE1A
:10485000011A20EE020A31EE000A704783F9223E67
:1048600000000044000000C45FEA400C08BF91F063
:10487000000F4FEA8C234FEAC12243EA51514FEA1D
:104880001C5018BF00F5F0404FEA300018BF41F04F
:1048900000415FEA6C5C00F02980BCF1FF3F08BF7B
:1048A00040F080407047130C06BF12044FF0100C0C
:1048B0004FF0000C130E04BF12020CF1080C130F82
:1048C00004BF12010CF1040C930F04BF92000CF111
:1048D000020CD30F04BF52000CF1010C11464FF033
:1048E0000002A0F11F00A0EB0C00704711F0004F78
:1048F00008BF704731F000413FF4D5AF0B0C06BF45
:1049000009044FF0100C4FF0000C0B0E04BF09020D
:104910000CF1080C0B0F04BF09010CF1040C8B0FF8
:1049200004BF89000CF1020CCB0F04BF49000CF14D
:10493000010CCCF12003A0EB0C0022FA03F302FAE5
:104940000CF241EA030100F10100704720F07F4CB6
:1049500080EA030023F07F47ACEB070303F57C53A9
:1049600000F0004003F1FF032DE980494FEA154BA9
:1049700009B44FEA144325EA0B4E24EA03480FF228
:10498000042606EB132749083E785FEA320203FB50
:104990000667C7F5000707FB06F64FEA54374FEAEC
:1049A000D64606F1020607FB066CCCF1005C4FEA26
:1049B0001C472CEA074C07FB06F40CFB06F504EB3E
:1049C00015464FEA961634BF00204FF000404FEADC
:1049D000D13706FB07FC4FEA1C4C0CFB0BF7D21B34
:1049E00003FB0CF761EB07010CFB0EF7B0EB074084
:1049F00072EB17420CFB08F734BFA2EB0742B2EB95
:104A0000074261EB17414FEA0C444FEA910706FB5E
:104A100007FC4FEA1C4C0CFB0BF7B0EBC74072EBEA
:104A2000573203FB0CF734BFA2EBC742B2EBC742CD
:104A300061EB57310CFB0EF7B0EBC70072EB57720E
:104A40000CFB08F734BFA2EBC702B2EBC70261EB65
:104A50005771039F4FEA816141EA921104EBCC0444
:104A60004FEAD1374FEA826206FB07FC42EA901216
:104A70004FEA80604FEA1C4C0CFB0BF7D21B03FB88
:104A80000CF761EB07010CFB0EF7B0EB074072EB84
:104A900017420CFB08F734BFA2EB0742B2EB074208
:104AA00061EB17414FEA8C554FEA910704EB9C24C8
:104AB00006FB07FC4FEA1C4C0CFB0BF7B0EBC740A6
:104AC00072EB573203FB0CF734BFA2EBC742B2EBD9
:104AD000C74261EB57310CFB0EF7B0EBC70072EB2E
:104AE00057720CFB08F734BFA2EBC702B2EBC70248
:104AF00061EB577115EB4C254FEA816141EA921148
:104B00004FEA82624FEAD13742EA901206FB07FC75
:104B100044F100044FEA80604FEA1C4C0CFB0BF799
:104B2000D21B03FB0CF761EB07010CFB0EF7B0EB9C
:104B3000074072EB17420CFB08F734BFA2EB0742A9
:104B4000B2EB074261EB174115EB1C154FEA8131BF
:104B500041EA92414FEA823242EA90424FEA803083
:104B60004FEA0C7644F1000448EA03434EEA0B484E
:104B70004FF0000EB2EB080C71EB030724BF624646
:104B800039464EEB0E0E4FF0000B001852414941D2
:104B90004BEB0B0BB2EB080C71EB03077BF1000B3B
:104BA00024BF624639464EEB0E0E4FF0000B001844
:104BB000524149414BEB0B0BB2EB080C71EB030775
:104BC0007BF1000B24BF624639464EEB0E0E51EAD4
:104BD000020718BF46F0010616EB0E7655F10002EB
:104BE00054F1000103D5BDE88901BDE80088BDE8A6
:104BF0008901BDE80048B619524141EB0101A3F11A
:104C00000103704780807F7E7D7C7B7A7978777620
:104C100076757473727171706F6E6E6D6C6C6B6A99
:104C20006A69686867666665646463636261616037
:104C3000605F5F5E5E5D5D5C5C5B5B5A5A595958B4
:104C4000585757565655555554545353525252511E
:104C5000515050504F4F4F4E4E4D4D4D4C4C4C4B74
:104C60004B4B4A4A4A4949494848484747474746BB
:104C700046464545454444444443434343424242F7
:104C800042414141002B26D4770021D01CB54FEA88
:104C9000370703B44FF010004FF010014FF0000041
:104CA0000FBCBDE810400BF1010BBBF1010F08BFB9
:104CB0005FEA170722BF12F1010211F101014FF063
:104CC000004143F1000300F0004043EA0000704758
:104CD000F9D35708DAE746EA064613F1400F4FEAE0
:104CE00016461FDD13F1200FDFBF16430A460021D1
:104CF00020335B42C8D0C3F1200746EA064602FAD9
:104D000007F74FEA164646EA0706C3F1200722FADC
:104D100003F201FA07F721FA03F14FF0000342EA28
:104D20000702B1E746EA020646EA06464FEA164699
:104D300046EA0106BCBF46EA0646360C4FF00003C1
:104D40004FF000024FF000019EE72DE9C048934666
:104D500030B491E8380007C831EA400C48BF34EA63
:104D6000430C03D5FFF7F2FDFFF78CFFF0BCBDE865
:104D700000882DE9C048934630B491E8380007C850
:104D800010F0804F08BF13F0804F03D100F005F8FA
:104D9000FFF778FFF0BCBDE8008820F07F4780EA8D
:104DA000030023F07F4C07EB0C03A3F57C5300F0CA
:104DB0000040A3F1FE0392F0000F00F0B38095F0E5
:104DC000000F00F077802DE901494FEA11404FEACA
:104DD000144621EA004800FB06FC24EA064708FBCB
:104DE00006F607FB08F800FB07F718EB06484CEB44
:104DF000164C4FEA124B18EB07484FEA15464CEB9E
:104E0000174022EA0B4E0BFB06FC25EA06470EFB79
:104E100006F607FB0EFE0BFB07F71EEB064E4CEBF0
:104E2000164C4FF000061EEB074E4CEB174B18EBE1
:104E30000B0840F1000018EB0E0B58EB000840F196
:104E400000008F1A4FF000013CBFC943661B14BF1E
:104E5000B5EB040C00213CBFC943F61B4FEA1744D5
:104E60004EEA8E0E27EA04454FEA1C4704FB076210
:104E70002CEA074C05FB07F70CFB05F604FB0CFCC2
:104E800016EB074642EB174216EB0C4642EB1C4270
:104E90001BEB060658EB0202414146EA9E0601D58D
:104EA000BDE80189B619524141EB0101A3F10103AB
:104EB000BDE801894FEA14454FEA114724EA054647
:104EC00021EA074C05FB07F406FB07F70CFB06F18C
:104ED00005FB0CFC11EB074144EB17444FEA12476A
:104EE00011EB0C4144EB1C4422EA074C05FB07F292
:104EF00006FB07F70CFB06F605FB0CFC16EB07465A
:104F000042EB174216EB0C4642EB1C456A1854F173
:104F1000000148BF7047B619524141EB0101A3F1AE
:104F20000103704795F0000F37D04FEA11424FEA66
:104F3000144721EA024624EA074C02FB07F106FB6C
:104F400007F70CFB06F402FB0CFC14EB074441EBE7
:104F500017414FEA154714EB0C4441EB1C4125EA7D
:104F6000074C02FB07F506FB07F70CFB06F602FBF6
:104F70000CFC16EB074645EB174516EB0C4645EBCC
:104F80001C42121951F1000148BF7047B619524135
:104F900041EB0101A3F1010370474FEA14454FEAC9
:104FA000114724EA054621EA074C05FB07F106FBF9
:104FB00007F70CFB06F24FF0000605FB0CFC12EBAA
:104FC000074241EB174112EB0C4251EB1C4148BF29
:104FD0007047921841EB0101A3F10103704703B43C
:104FE00001984100009850EAC12018BF04204A0DE2
:104FF00018BF40F0010040F2FF72B2EB515F08BFF2
:1050000040F00200012808BF052002B07047303888
:105010000A2801D2012070470020704710B50029EE
:105020000AD00878002807D005487844FFF740FBED
:10503000002801D0002010BD0248784410BD0000B7
:105040006A0A0000620A000010B500290AD0087838
:10505000002807D005487844FFF72AFB002801D034
:10506000002010BD0248784410BD00005A0A00001C
:10507000520A00000808A0F500114FEA31017047FC
:1050800043004FEAD30C4FEA3C0C43401FBF40079C
:105090000CF1605113F0FE4F70471CF0006F03D10C
:1050A00000200CF0004170470CF0004343EA5070C0
:1050B00010B540EACC0000F00EF800BF00000092EE
:1050C0004FEA0001FFF7D6BF4FF000414FF000005C
:1050D000A1F5002170470EF1020E2EF0030E5EF8CE
:1050E000044B244204D44FEA4102B2F17F4F11D85D
:1050F0004FEA4003B3F17F4F0CD80ED14FEAD07C7A
:10510000B2F17F4F0CEB4C0C0CF1020C08BF4CEBD6
:10511000D17C04E04FF0080C01E04FEAD17C0CEBAD
:105120004C0324FA03F404F00704B4F1040C06D28F
:105130000EEB840CBDE810404CF0010C6047DFE83A
:105140000CF0070802024FF00040A0F5800010BDEF
:105150000846420018BFD2F1807288BF00F00040BC
:1051600010BD4FF04070E1EE100A7047FEF7B5BE7B
:10517000FEF7EABF000000000000000030313233CB
:10518000343536373839414243444546403058007B
:1051900030313233343536373839616263646566AD
:1051A0004030780004000008000000000000000209
:1051B0000001000010303132333435363738396170
:1051C0006263646566787000303132333435363767
:1051D00038394142434445465850000002400000DF
:1051E000000000A00000000005400000000000C812
:1051F000000000000C4000000000409C0000000087
:10520000194000000020BCBE000000003440000037
:10521000BFC91B8E00000004B5400000504BCFD02A
:105220006607E2CF010000006C4100003E8251AAF7
:10523000DFEEA73401000000D9420000DCB5A0E297
:105240003A301F97FFFFFFFFB4450000FD25A0C8BF
:10525000E9A3C14FFFFFFFFFFF3F000000000080F8
:1052600000000000FF3F0000000000800000000080
:1052700000000000920E493CB10AC93C2BC3163D08
:105280002EFB483D752B7B3D04A9963D80B6AF3D76
:1052900036BDC83D2FBCE13D73B2FA3D87CF093E14
:1052A0008340163EB5AB223EA2102F3ECF6E3B3E52
:1052B000C2C5473E0115543E135C603E7F9A6C3E6A
:1052C000CCCF783EC07D823E938E883E229A8E3E21
:1052D00032A0943E86A09A3EE59AA03E128FA63E4A
:1052E000D47CAC3EEF63B23E2A44B83E491DBE3E7C
:1052F00015EFC33E53B9C93ECA7BCF3E4136D53EBA
:1053000080E8DA3E4F92E03E7533E63EBBCBEB3EA3
:10531000EA5AF13ECBE0F63E275DFC3EE4E7003F73
:105320003D9C033F824B063F9BF5083F6B9A0B3F2A
:10533000DA390E3FCDD3103F2A68133FD9F6153F17
:10534000C07F183FC6021B3FD17F1D3FCBF61F3FDA
:105350009967223F25D2243F5636273F1594293F8F
:105360004AEB2B3FDE3B2E3FBB85303FC9C8323F67
:10537000F304353F233A373F4268393F3B8F3B3F89
:10538000F9AE3D3F67C73F3F70D8413F01E2433F21
:1053900003E4453F65DE473F12D1493FF8BB4B3F31
:1053A000029F4D3F207A4F3F3D4D513F4918533F9B
:1053B00031DB543FE595563F5348583F6AF2593F19
:1053C0001A945B3F532D5D3F05BE5E3F2146603F13
:1053D00097C5613F5A3C633F59AA643F880F663FB7
:1053E000D86B673F3CBF683FA7096A3F0C4B6B3FD8
:1053F0005E836C3F93B26D3F9ED86E3F73F56F3FF7
:105400000809713F5213723F4714733FDD0B743F1D
:105410000BFA743FC6DE753F07BA763FC58B773F00
:10542000F853783F9812793F9DC7793F02737A3FCE
:10543000BE147B3FCDAC7B3F283B7C3FC9BF7C3F4C
:10544000AC3A7D3FCCAB7D3F23137E3FB0707E3FB7
:105450006DC47E3F580E7F3F6D4E7F3FAB847F3FD4
:105460000FB17F3F97D37F3F43EC7F3F11FB7F3FDF
:105470000000803F11FB7F3F43EC7F3F97D37F3F8E
:105480000FB17F3FAB847F3F6D4E7F3F580E7F3F14
:105490006DC47E3FB0707E3F23137E3FCCAB7D3F1B
:1054A000AC3A7D3FC9BF7C3F283B7C3FCDAC7B3FC6
:1054B000BE147B3F02737A3F9DC7793F9812793FB4
:1054C000F853783FC58B773F07BA763FC6DE753F06
:1054D0000BFA743FDD0B743F4714733F5213723F56
:1054E0000809713F73F56F3F9ED86E3F93B26D3FD1
:1054F0005E836C3F0C4B6B3FA7096A3F3CBF683F24
:10550000D86B673F880F663F59AA643F5A3C633F98
:1055100097C5613F2146603F05BE5E3F532D5D3F0D
:105520001A945B3F6AF2593F5348583FE595563FFE
:1055300031DB543F4918533F3D4D513F207A4F3F97
:10554000029F4D3FF8BB4B3F12D1493F65DE473FBD
:1055500003E4453F01E2433F70D8413F67C73F3F07
:10556000F9AE3D3F3B8F3B3F4268393F233A373FDF
:10557000F304353FC9C8323FBB85303FDE3B2E3F89
:105580004AEB2B3F1594293F5636273F25D2243F1F
:105590009967223FCBF61F3FD17F1D3FC6021B3FBD
:1055A000C07F183FD9F6153F2A68133FCDD3103F6F
:1055B000DA390E3F6B9A0B3F9BF5083F824B063F53
:1055C0003D9C033FE4E7003F275DFC3ECBE0F63E19
:1055D000EA5AF13EBBCBEB3E7533E63E4F92E03EDE
:1055E00080E8DA3E4136D53ECA7BCF3E53B9C93E4C
:1055F00015EFC33E491DBE3E2A44B83EEF63B23E9E
:10560000D47CAC3E128FA63EE59AA03E86A09A3E80
:1056100032A0943E229A8E3E938E883EC07D823E7A
:10562000CCCF783E7F9A6C3E135C603E0115543EB1
:10563000C2C5473ECF6E3B3EA2102F3EB5AB223EC9
:105640008340163E87CF093E73B2FA3D2FBCE13D41
:1056500036BDC83D80B6AF3D04A9963D752B7B3D58
:105660002EFB483D2BC3163DB10AC93C920E493C66
:1056700000000000920E49BCB10AC9BC2BC316BD84
:105680002EFB48BD752B7BBD04A996BD80B6AFBD72
:1056900036BDC8BD2FBCE1BD73B2FABD87CF09BE10
:1056A000834016BEB5AB22BEA2102FBECF6E3BBE4E
:1056B000C2C547BE011554BE135C60BE7F9A6CBE66
:1056C000CCCF78BEC07D82BE938E88BE229A8EBE1D
:1056D00032A094BE86A09ABEE59AA0BE128FA6BE46
:1056E000D47CACBEEF63B2BE2A44B8BE491DBEBE78
:1056F00015EFC3BE53B9C9BECA7BCFBE4136D5BEB6
:1057000080E8DABE4F92E0BE7533E6BEBBCBEBBE9F
:10571000EA5AF1BECBE0F6BE275DFCBEE4E700BF6F
:105720003D9C03BF824B06BF9BF508BF6B9A0BBF26
:10573000DA390EBFCDD310BF2A6813BFD9F615BF13
:10574000C07F18BFC6021BBFD17F1DBFCBF61FBFD6
:10575000996722BF25D224BF563627BF159429BF8B
:105760004AEB2BBFDE3B2EBFBB8530BFC9C832BF63
:10577000F30435BF233A37BF426839BF3B8F3BBF85
:10578000F9AE3DBF67C73FBF70D841BF01E243BF1D
:1057900003E445BF65DE47BF12D149BFF8BB4BBF2D
:1057A000029F4DBF207A4FBF3D4D51BF491853BF97
:1057B00031DB54BFE59556BF534858BF6AF259BF15
:1057C0001A945BBF532D5DBF05BE5EBF214660BF0F
:1057D00097C561BF5A3C63BF59AA64BF880F66BFB3
:1057E000D86B67BF3CBF68BFA7096ABF0C4B6BBFD4
:1057F0005E836CBF93B26DBF9ED86EBF73F56FBFF3
:10580000080971BF521372BF471473BFDD0B74BF19
:105810000BFA74BFC6DE75BF07BA76BFC58B77BFFC
:10582000F85378BF981279BF9DC779BF02737ABFCA
:10583000BE147BBFCDAC7BBF283B7CBFC9BF7CBF48
:10584000AC3A7DBFCCAB7DBF23137EBFB0707EBFB3
:105850006DC47EBF580E7FBF6D4E7FBFAB847FBFD0
:105860000FB17FBF97D37FBF43EC7FBF11FB7FBFDB
:10587000000080BF11FB7FBF43EC7FBF97D37FBF8A
:105880000FB17FBFAB847FBF6D4E7FBF580E7FBF10
:105890006DC47EBFB0707EBF23137EBFCCAB7DBF17
:1058A000AC3A7DBFC9BF7CBF283B7CBFCDAC7BBFC2
:1058B000BE147BBF02737ABF9DC779BF981279BFB0
:1058C000F85378BFC58B77BF07BA76BFC6DE75BF02
:1058D0000BFA74BFDD0B74BF471473BF521372BF52
:1058E000080971BF73F56FBF9ED86EBF93B26DBFCD
:1058F0005E836CBF0C4B6BBFA7096ABF3CBF68BF20
:10590000D86B67BF880F66BF59AA64BF5A3C63BF94
:1059100097C561BF214660BF05BE5EBF532D5DBF09
:105920001A945BBF6AF259BF534858BFE59556BFFA
:1059300031DB54BF491853BF3D4D51BF207A4FBF93
:10594000029F4DBFF8BB4BBF12D149BF65DE47BFB9
:1059500003E445BF01E243BF70D841BF67C73FBF03
:10596000F9AE3DBF3B8F3BBF426839BF233A37BFDB
:10597000F30435BFC9C832BFBB8530BFDE3B2EBF85
:105980004AEB2BBF159429BF563627BF25D224BF1B
:10599000996722BFCBF61FBFD17F1DBFC6021BBFB9
:1059A000C07F18BFD9F615BF2A6813BFCDD310BF6B
:1059B000DA390EBF6B9A0BBF9BF508BF824B06BF4F
:1059C0003D9C03BFE4E700BF275DFCBECBE0F6BE15
:1059D000EA5AF1BEBBCBEBBE7533E6BE4F92E0BEDA
:1059E00080E8DABE4136D5BECA7BCFBE53B9C9BE48
:1059F00015EFC3BE491DBEBE2A44B8BEEF63B2BE9A
:105A0000D47CACBE128FA6BEE59AA0BE86A09ABE7C
:105A100032A094BE229A8EBE938E88BEC07D82BE76
:105A2000CCCF78BE7F9A6CBE135C60BE011554BEAD
:105A3000C2C547BECF6E3BBEA2102FBEB5AB22BEC5
:105A4000834016BE87CF09BE73B2FABD2FBCE1BD3D
:105A500036BDC8BD80B6AFBD04A996BD752B7BBD54
:105A60002EFB48BD2BC316BDB10AC9BC920E49BC62
:105A700000000080C05B000800000020440000001F
:105A8000C4010008045C0008440000205407000022
:105A9000E00100081C00000043000000F8FFFFFFC9
:105AA0000C0000000E0000000F0000002E0000009F
:105AB0001001000043000000F8FFFFFF00404040DD
:105AC00040404040404041414141414040404040D1
:105AD000404040404040404040404040400502027D
